{"abi":[{"inputs":[{"internalType":"address","name":"creator","type":"address"}],"stateMutability":"nonpayable","type":"constructor"},{"inputs":[{"internalType":"uint256","name":"serviceIndex","type":"uint256"}],"name":"buyService","outputs":[],"stateMutability":"payable","type":"function"},{"inputs":[{"internalType":"uint256","name":"index","type":"uint256"}],"name":"buyerApproval","outputs":[],"stateMutability":"nonpayable","type":"function"},{"inputs":[{"internalType":"uint256","name":"index","type":"uint256"}],"name":"cancelRequestSeller","outputs":[],"stateMutability":"payable","type":"function"},{"inputs":[{"internalType":"uint256","name":"index","type":"uint256"}],"name":"cancelServiceBuyer","outputs":[],"stateMutability":"payable","type":"function"},{"inputs":[{"internalType":"string","name":"header","type":"string"},{"internalType":"string","name":"description","type":"string"},{"internalType":"uint256","name":"value","type":"uint256"}],"name":"createService","outputs":[],"stateMutability":"nonpayable","type":"function"},{"inputs":[],"name":"getServiceCount","outputs":[{"internalType":"uint256","name":"","type":"uint256"}],"stateMutability":"view","type":"function"},{"inputs":[],"name":"getServiceTypesCount","outputs":[{"internalType":"uint256","name":"","type":"uint256"}],"stateMutability":"view","type":"function"},{"inputs":[],"name":"seller","outputs":[{"internalType":"address","name":"","type":"address"}],"stateMutability":"view","type":"function"},{"inputs":[{"internalType":"uint256","name":"index","type":"uint256"}],"name":"sellerApproval","outputs":[],"stateMutability":"nonpayable","type":"function"},{"inputs":[{"internalType":"uint256","name":"","type":"uint256"}],"name":"serviceTypes","outputs":[{"internalType":"string","name":"header","type":"string"},{"internalType":"string","name":"description","type":"string"},{"internalType":"uint256","name":"value","type":"uint256"},{"internalType":"bool","name":"availability","type":"bool"}],"stateMutability":"view","type":"function"},{"inputs":[{"internalType":"uint256","name":"","type":"uint256"}],"name":"services","outputs":[{"internalType":"uint256","name":"serviceType","type":"uint256"},{"internalType":"bool","name":"complete","type":"bool"},{"internalType":"uint256","name":"requestTime","type":"uint256"},{"internalType":"address","name":"buyer","type":"address"},{"internalType":"bool","name":"buyerApprove","type":"bool"}],"stateMutability":"view","type":"function"}],"devdoc":{"kind":"dev","methods":{},"version":1},"evm":{"assembly":"    /* \"MarketPlace.sol\":1343:5065  contract LabourMarket {... */\n  mstore(0x40, 0x80)\n    /* \"MarketPlace.sol\":2017:2169  constructor (address creator) public {... */\n  callvalue\n  dup1\n  iszero\n  tag_1\n  jumpi\n  0x00\n  dup1\n  revert\ntag_1:\n  pop\n  mload(0x40)\n  sub(codesize, bytecodeSize)\n  dup1\n  bytecodeSize\n  dup4\n  codecopy\n  dup2\n  dup2\n  add\n  0x40\n  mstore\n  dup2\n  add\n  swap1\n  tag_2\n  swap2\n  swap1\n  tag_3\n  jump\t// in\ntag_2:\n    /* \"MarketPlace.sol\":2073:2080  creator */\n  dup1\n    /* \"MarketPlace.sol\":2064:2070  seller */\n  0x04\n  0x00\n    /* \"MarketPlace.sol\":2064:2080  seller = creator */\n  0x0100\n  exp\n  dup2\n  sload\n  dup2\n  0xffffffffffffffffffffffffffffffffffffffff\n  mul\n  not\n  and\n  swap1\n  dup4\n  0xffffffffffffffffffffffffffffffffffffffff\n  and\n  mul\n  or\n  swap1\n  sstore\n  pop\n    /* \"MarketPlace.sol\":2102:2106  true */\n  0x01\n    /* \"MarketPlace.sol\":2090:2099  available */\n  0x02\n  0x00\n    /* \"MarketPlace.sol\":2090:2106  available = true */\n  0x0100\n  exp\n  dup2\n  sload\n  dup2\n  0xff\n  mul\n  not\n  and\n  swap1\n  dup4\n  iszero\n  iszero\n  mul\n  or\n  swap1\n  sstore\n  pop\n    /* \"MarketPlace.sol\":2126:2141  100000000000000 */\n  0x5af3107a4000\n    /* \"MarketPlace.sol\":2116:2123  penalty */\n  0x03\n    /* \"MarketPlace.sol\":2116:2141  penalty = 100000000000000 */\n  dup2\n  swap1\n  sstore\n  pop\n    /* \"MarketPlace.sol\":2017:2169  constructor (address creator) public {... */\n  pop\n    /* \"MarketPlace.sol\":1343:5065  contract LabourMarket {... */\n  jump(tag_6)\n    /* \"#utility.yul\":88:205   */\ntag_8:\n    /* \"#utility.yul\":197:198   */\n  0x00\n    /* \"#utility.yul\":194:195   */\n  dup1\n    /* \"#utility.yul\":187:199   */\n  revert\n    /* \"#utility.yul\":334:460   */\ntag_10:\n    /* \"#utility.yul\":371:378   */\n  0x00\n    /* \"#utility.yul\":411:453   */\n  0xffffffffffffffffffffffffffffffffffffffff\n    /* \"#utility.yul\":404:409   */\n  dup3\n    /* \"#utility.yul\":400:454   */\n  and\n    /* \"#utility.yul\":389:454   */\n  swap1\n  pop\n    /* \"#utility.yul\":334:460   */\n  swap2\n  swap1\n  pop\n  jump\t// out\n    /* \"#utility.yul\":466:562   */\ntag_11:\n    /* \"#utility.yul\":503:510   */\n  0x00\n    /* \"#utility.yul\":532:556   */\n  tag_20\n    /* \"#utility.yul\":550:555   */\n  dup3\n    /* \"#utility.yul\":532:556   */\n  tag_10\n  jump\t// in\ntag_20:\n    /* \"#utility.yul\":521:556   */\n  swap1\n  pop\n    /* \"#utility.yul\":466:562   */\n  swap2\n  swap1\n  pop\n  jump\t// out\n    /* \"#utility.yul\":568:690   */\ntag_12:\n    /* \"#utility.yul\":641:665   */\n  tag_22\n    /* \"#utility.yul\":659:664   */\n  dup2\n    /* \"#utility.yul\":641:665   */\n  tag_11\n  jump\t// in\ntag_22:\n    /* \"#utility.yul\":634:639   */\n  dup2\n    /* \"#utility.yul\":631:666   */\n  eq\n    /* \"#utility.yul\":621:684   */\n  tag_23\n  jumpi\n    /* \"#utility.yul\":680:681   */\n  0x00\n    /* \"#utility.yul\":677:678   */\n  dup1\n    /* \"#utility.yul\":670:682   */\n  revert\n    /* \"#utility.yul\":621:684   */\ntag_23:\n    /* \"#utility.yul\":568:690   */\n  pop\n  jump\t// out\n    /* \"#utility.yul\":696:839   */\ntag_13:\n    /* \"#utility.yul\":753:758   */\n  0x00\n    /* \"#utility.yul\":784:790   */\n  dup2\n    /* \"#utility.yul\":778:791   */\n  mload\n    /* \"#utility.yul\":769:791   */\n  swap1\n  pop\n    /* \"#utility.yul\":800:833   */\n  tag_25\n    /* \"#utility.yul\":827:832   */\n  dup2\n    /* \"#utility.yul\":800:833   */\n  tag_12\n  jump\t// in\ntag_25:\n    /* \"#utility.yul\":696:839   */\n  swap3\n  swap2\n  pop\n  pop\n  jump\t// out\n    /* \"#utility.yul\":845:1196   */\ntag_3:\n    /* \"#utility.yul\":915:921   */\n  0x00\n    /* \"#utility.yul\":964:966   */\n  0x20\n    /* \"#utility.yul\":952:961   */\n  dup3\n    /* \"#utility.yul\":943:950   */\n  dup5\n    /* \"#utility.yul\":939:962   */\n  sub\n    /* \"#utility.yul\":935:967   */\n  slt\n    /* \"#utility.yul\":932:1051   */\n  iszero\n  tag_27\n  jumpi\n    /* \"#utility.yul\":970:1049   */\n  tag_28\n  tag_8\n  jump\t// in\ntag_28:\n    /* \"#utility.yul\":932:1051   */\ntag_27:\n    /* \"#utility.yul\":1090:1091   */\n  0x00\n    /* \"#utility.yul\":1115:1179   */\n  tag_29\n    /* \"#utility.yul\":1171:1178   */\n  dup5\n    /* \"#utility.yul\":1162:1168   */\n  dup3\n    /* \"#utility.yul\":1151:1160   */\n  dup6\n    /* \"#utility.yul\":1147:1169   */\n  add\n    /* \"#utility.yul\":1115:1179   */\n  tag_13\n  jump\t// in\ntag_29:\n    /* \"#utility.yul\":1105:1179   */\n  swap2\n  pop\n    /* \"#utility.yul\":1061:1189   */\n  pop\n    /* \"#utility.yul\":845:1196   */\n  swap3\n  swap2\n  pop\n  pop\n  jump\t// out\n    /* \"MarketPlace.sol\":1343:5065  contract LabourMarket {... */\ntag_6:\n  dataSize(sub_0)\n  dup1\n  dataOffset(sub_0)\n  0x00\n  codecopy\n  0x00\n  return\nstop\n\nsub_0: assembly {\n        /* \"MarketPlace.sol\":1343:5065  contract LabourMarket {... */\n      mstore(0x40, 0x80)\n      jumpi(tag_1, lt(calldatasize, 0x04))\n      shr(0xe0, calldataload(0x00))\n      dup1\n      0x7b15f1b6\n      gt\n      tag_13\n      jumpi\n      dup1\n      0x7b15f1b6\n      eq\n      tag_7\n      jumpi\n      dup1\n      0xc22c4f43\n      eq\n      tag_8\n      jumpi\n      dup1\n      0xc594e5ec\n      eq\n      tag_9\n      jumpi\n      dup1\n      0xd8ea0262\n      eq\n      tag_10\n      jumpi\n      dup1\n      0xdd36ff27\n      eq\n      tag_11\n      jumpi\n      dup1\n      0xdf1a68ce\n      eq\n      tag_12\n      jumpi\n      jump(tag_1)\n    tag_13:\n      dup1\n      0x03ff5c99\n      eq\n      tag_2\n      jumpi\n      dup1\n      0x08551a53\n      eq\n      tag_3\n      jumpi\n      dup1\n      0x3672404e\n      eq\n      tag_4\n      jumpi\n      dup1\n      0x437661da\n      eq\n      tag_5\n      jumpi\n      dup1\n      0x4c3912e7\n      eq\n      tag_6\n      jumpi\n    tag_1:\n      0x00\n      dup1\n      revert\n        /* \"MarketPlace.sol\":3049:3657  function cancelRequestSeller(uint index) public payable restricted {... */\n    tag_2:\n      tag_14\n      0x04\n      dup1\n      calldatasize\n      sub\n      dup2\n      add\n      swap1\n      tag_15\n      swap2\n      swap1\n      tag_16\n      jump\t// in\n    tag_15:\n      tag_17\n      jump\t// in\n    tag_14:\n      stop\n        /* \"MarketPlace.sol\":1771:1792  address public seller */\n    tag_3:\n      callvalue\n      dup1\n      iszero\n      tag_18\n      jumpi\n      0x00\n      dup1\n      revert\n    tag_18:\n      pop\n      tag_19\n      tag_20\n      jump\t// in\n    tag_19:\n      mload(0x40)\n      tag_21\n      swap2\n      swap1\n      tag_22\n      jump\t// in\n    tag_21:\n      mload(0x40)\n      dup1\n      swap2\n      sub\n      swap1\n      return\n        /* \"MarketPlace.sol\":4973:5061  function getServiceCount() public view returns(uint) {... */\n    tag_4:\n      callvalue\n      dup1\n      iszero\n      tag_23\n      jumpi\n      0x00\n      dup1\n      revert\n    tag_23:\n      pop\n      tag_24\n      tag_25\n      jump\t// in\n    tag_24:\n      mload(0x40)\n      tag_26\n      swap2\n      swap1\n      tag_27\n      jump\t// in\n    tag_26:\n      mload(0x40)\n      dup1\n      swap2\n      sub\n      swap1\n      return\n        /* \"MarketPlace.sol\":4310:4490  function buyerApproval(uint index) public {... */\n    tag_5:\n      callvalue\n      dup1\n      iszero\n      tag_28\n      jumpi\n      0x00\n      dup1\n      revert\n    tag_28:\n      pop\n      tag_29\n      0x04\n      dup1\n      calldatasize\n      sub\n      dup2\n      add\n      swap1\n      tag_30\n      swap2\n      swap1\n      tag_16\n      jump\t// in\n    tag_30:\n      tag_31\n      jump\t// in\n    tag_29:\n      stop\n        /* \"MarketPlace.sol\":1658:1687  Service[] public serviceTypes */\n    tag_6:\n      callvalue\n      dup1\n      iszero\n      tag_32\n      jumpi\n      0x00\n      dup1\n      revert\n    tag_32:\n      pop\n      tag_33\n      0x04\n      dup1\n      calldatasize\n      sub\n      dup2\n      add\n      swap1\n      tag_34\n      swap2\n      swap1\n      tag_16\n      jump\t// in\n    tag_34:\n      tag_35\n      jump\t// in\n    tag_33:\n      mload(0x40)\n      tag_36\n      swap5\n      swap4\n      swap3\n      swap2\n      swap1\n      tag_37\n      jump\t// in\n    tag_36:\n      mload(0x40)\n      dup1\n      swap2\n      sub\n      swap1\n      return\n        /* \"MarketPlace.sol\":2175:2497  function createService(string memory header,string memory description, uint value) public restricted{... */\n    tag_7:\n      callvalue\n      dup1\n      iszero\n      tag_38\n      jumpi\n      0x00\n      dup1\n      revert\n    tag_38:\n      pop\n      tag_39\n      0x04\n      dup1\n      calldatasize\n      sub\n      dup2\n      add\n      swap1\n      tag_40\n      swap2\n      swap1\n      tag_41\n      jump\t// in\n    tag_40:\n      tag_42\n      jump\t// in\n    tag_39:\n      stop\n        /* \"MarketPlace.sol\":1693:1725  ServiceRequest[] public services */\n    tag_8:\n      callvalue\n      dup1\n      iszero\n      tag_43\n      jumpi\n      0x00\n      dup1\n      revert\n    tag_43:\n      pop\n      tag_44\n      0x04\n      dup1\n      calldatasize\n      sub\n      dup2\n      add\n      swap1\n      tag_45\n      swap2\n      swap1\n      tag_16\n      jump\t// in\n    tag_45:\n      tag_46\n      jump\t// in\n    tag_44:\n      mload(0x40)\n      tag_47\n      swap6\n      swap5\n      swap4\n      swap3\n      swap2\n      swap1\n      tag_48\n      jump\t// in\n    tag_47:\n      mload(0x40)\n      dup1\n      swap2\n      sub\n      swap1\n      return\n        /* \"MarketPlace.sol\":2503:3043  function buyService(uint serviceIndex) public payable availability{... */\n    tag_9:\n      tag_49\n      0x04\n      dup1\n      calldatasize\n      sub\n      dup2\n      add\n      swap1\n      tag_50\n      swap2\n      swap1\n      tag_16\n      jump\t// in\n    tag_50:\n      tag_51\n      jump\t// in\n    tag_49:\n      stop\n        /* \"MarketPlace.sol\":4497:4862  function sellerApproval(uint index) public restricted{... */\n    tag_10:\n      callvalue\n      dup1\n      iszero\n      tag_52\n      jumpi\n      0x00\n      dup1\n      revert\n    tag_52:\n      pop\n      tag_53\n      0x04\n      dup1\n      calldatasize\n      sub\n      dup2\n      add\n      swap1\n      tag_54\n      swap2\n      swap1\n      tag_16\n      jump\t// in\n    tag_54:\n      tag_55\n      jump\t// in\n    tag_53:\n      stop\n        /* \"MarketPlace.sol\":3663:4303  function cancelServiceBuyer(uint index) public payable{... */\n    tag_11:\n      tag_56\n      0x04\n      dup1\n      calldatasize\n      sub\n      dup2\n      add\n      swap1\n      tag_57\n      swap2\n      swap1\n      tag_16\n      jump\t// in\n    tag_57:\n      tag_58\n      jump\t// in\n    tag_56:\n      stop\n        /* \"MarketPlace.sol\":4870:4967  function getServiceTypesCount() public view returns(uint) {... */\n    tag_12:\n      callvalue\n      dup1\n      iszero\n      tag_59\n      jumpi\n      0x00\n      dup1\n      revert\n    tag_59:\n      pop\n      tag_60\n      tag_61\n      jump\t// in\n    tag_60:\n      mload(0x40)\n      tag_62\n      swap2\n      swap1\n      tag_27\n      jump\t// in\n    tag_62:\n      mload(0x40)\n      dup1\n      swap2\n      sub\n      swap1\n      return\n        /* \"MarketPlace.sol\":3049:3657  function cancelRequestSeller(uint index) public payable restricted {... */\n    tag_17:\n        /* \"MarketPlace.sol\":1984:1990  seller */\n      0x04\n      0x00\n      swap1\n      sload\n      swap1\n      0x0100\n      exp\n      swap1\n      div\n      0xffffffffffffffffffffffffffffffffffffffff\n      and\n        /* \"MarketPlace.sol\":1970:1990  msg.sender == seller */\n      0xffffffffffffffffffffffffffffffffffffffff\n      and\n        /* \"MarketPlace.sol\":1970:1980  msg.sender */\n      caller\n        /* \"MarketPlace.sol\":1970:1990  msg.sender == seller */\n      0xffffffffffffffffffffffffffffffffffffffff\n      and\n      eq\n        /* \"MarketPlace.sol\":1962:1991  require(msg.sender == seller) */\n      tag_64\n      jumpi\n      0x00\n      dup1\n      revert\n    tag_64:\n        /* \"MarketPlace.sol\":3126:3156  ServiceRequest storage service */\n      0x00\n        /* \"MarketPlace.sol\":3159:3167  services */\n      0x01\n        /* \"MarketPlace.sol\":3168:3173  index */\n      dup3\n        /* \"MarketPlace.sol\":3159:3174  services[index] */\n      dup2\n      sload\n      dup2\n      lt\n      tag_66\n      jumpi\n      tag_67\n      tag_68\n      jump\t// in\n    tag_67:\n    tag_66:\n      swap1\n      0x00\n      mstore\n      keccak256(0x00, 0x20)\n      swap1\n      0x04\n      mul\n      add\n        /* \"MarketPlace.sol\":3126:3174  ServiceRequest storage service = services[index] */\n      swap1\n      pop\n        /* \"MarketPlace.sol\":3184:3211  Service storage serviceType */\n      0x00\n        /* \"MarketPlace.sol\":3214:3226  serviceTypes */\n      dup1\n        /* \"MarketPlace.sol\":3227:3234  service */\n      dup3\n        /* \"MarketPlace.sol\":3227:3246  service.serviceType */\n      0x00\n      add\n      sload\n        /* \"MarketPlace.sol\":3214:3247  serviceTypes[service.serviceType] */\n      dup2\n      sload\n      dup2\n      lt\n      tag_70\n      jumpi\n      tag_71\n      tag_68\n      jump\t// in\n    tag_71:\n    tag_70:\n      swap1\n      0x00\n      mstore\n      keccak256(0x00, 0x20)\n      swap1\n      0x04\n      mul\n      add\n        /* \"MarketPlace.sol\":3184:3247  Service storage serviceType = serviceTypes[service.serviceType] */\n      swap1\n      pop\n        /* \"MarketPlace.sol\":3277:3281  true */\n      0x01\n        /* \"MarketPlace.sol\":3258:3265  service */\n      dup3\n        /* \"MarketPlace.sol\":3258:3274  service.complete */\n      0x01\n      add\n      0x00\n        /* \"MarketPlace.sol\":3258:3281  service.complete = true */\n      0x0100\n      exp\n      dup2\n      sload\n      dup2\n      0xff\n      mul\n      not\n      and\n      swap1\n      dup4\n      iszero\n      iszero\n      mul\n      or\n      swap1\n      sstore\n      pop\n        /* \"MarketPlace.sol\":3318:3322  true */\n      0x01\n        /* \"MarketPlace.sol\":3291:3302  serviceType */\n      dup2\n        /* \"MarketPlace.sol\":3291:3315  serviceType.availability */\n      0x03\n      add\n      0x00\n        /* \"MarketPlace.sol\":3291:3322  serviceType.availability = true */\n      0x0100\n      exp\n      dup2\n      sload\n      dup2\n      0xff\n      mul\n      not\n      and\n      swap1\n      dup4\n      iszero\n      iszero\n      mul\n      or\n      swap1\n      sstore\n      pop\n        /* \"MarketPlace.sol\":3355:3359  true */\n      0x01\n        /* \"MarketPlace.sol\":3332:3339  service */\n      dup3\n        /* \"MarketPlace.sol\":3332:3352  service.buyerApprove */\n      0x03\n      add\n      0x14\n        /* \"MarketPlace.sol\":3332:3359  service.buyerApprove = true */\n      0x0100\n      exp\n      dup2\n      sload\n      dup2\n      0xff\n      mul\n      not\n      and\n      swap1\n      dup4\n      iszero\n      iszero\n      mul\n      or\n      swap1\n      sstore\n      pop\n        /* \"MarketPlace.sol\":3413:3423  30 minutes */\n      0x0708\n        /* \"MarketPlace.sol\":3391:3398  service */\n      dup3\n        /* \"MarketPlace.sol\":3391:3410  service.requestTime */\n      0x02\n      add\n      sload\n        /* \"MarketPlace.sol\":3391:3423  service.requestTime + 30 minutes */\n      tag_73\n      swap2\n      swap1\n      tag_74\n      jump\t// in\n    tag_73:\n        /* \"MarketPlace.sol\":3373:3388  block.timestamp */\n      timestamp\n        /* \"MarketPlace.sol\":3373:3423  block.timestamp < service.requestTime + 30 minutes */\n      lt\n        /* \"MarketPlace.sol\":3370:3650  if(block.timestamp < service.requestTime + 30 minutes){... */\n      iszero\n      tag_75\n      jumpi\n        /* \"MarketPlace.sol\":3447:3454  service */\n      dup2\n        /* \"MarketPlace.sol\":3447:3460  service.buyer */\n      0x03\n      add\n      0x00\n      swap1\n      sload\n      swap1\n      0x0100\n      exp\n      swap1\n      div\n      0xffffffffffffffffffffffffffffffffffffffff\n      and\n        /* \"MarketPlace.sol\":3439:3470  payable(service.buyer).transfer */\n      0xffffffffffffffffffffffffffffffffffffffff\n      and\n        /* \"MarketPlace.sol\":3439:3489  payable(service.buyer).transfer(serviceType.value) */\n      0x08fc\n        /* \"MarketPlace.sol\":3471:3482  serviceType */\n      dup3\n        /* \"MarketPlace.sol\":3471:3488  serviceType.value */\n      0x02\n      add\n      sload\n        /* \"MarketPlace.sol\":3439:3489  payable(service.buyer).transfer(serviceType.value) */\n      swap1\n      dup2\n      iszero\n      mul\n      swap1\n      mload(0x40)\n      0x00\n      mload(0x40)\n      dup1\n      dup4\n      sub\n      dup2\n      dup6\n      dup9\n      dup9\n      call\n      swap4\n      pop\n      pop\n      pop\n      pop\n      iszero\n      dup1\n      iszero\n      tag_77\n      jumpi\n      returndatasize\n      0x00\n      dup1\n      returndatacopy\n      revert(0x00, returndatasize)\n    tag_77:\n      pop\n        /* \"MarketPlace.sol\":3511:3517  seller */\n      0x04\n      0x00\n      swap1\n      sload\n      swap1\n      0x0100\n      exp\n      swap1\n      div\n      0xffffffffffffffffffffffffffffffffffffffff\n      and\n        /* \"MarketPlace.sol\":3503:3527  payable(seller).transfer */\n      0xffffffffffffffffffffffffffffffffffffffff\n      and\n        /* \"MarketPlace.sol\":3503:3538  payable(seller).transfer(msg.value) */\n      0x08fc\n        /* \"MarketPlace.sol\":3528:3537  msg.value */\n      callvalue\n        /* \"MarketPlace.sol\":3503:3538  payable(seller).transfer(msg.value) */\n      swap1\n      dup2\n      iszero\n      mul\n      swap1\n      mload(0x40)\n      0x00\n      mload(0x40)\n      dup1\n      dup4\n      sub\n      dup2\n      dup6\n      dup9\n      dup9\n      call\n      swap4\n      pop\n      pop\n      pop\n      pop\n      iszero\n      dup1\n      iszero\n      tag_79\n      jumpi\n      returndatasize\n      0x00\n      dup1\n      returndatacopy\n      revert(0x00, returndatasize)\n    tag_79:\n      pop\n        /* \"MarketPlace.sol\":3370:3650  if(block.timestamp < service.requestTime + 30 minutes){... */\n      jump(tag_80)\n    tag_75:\n        /* \"MarketPlace.sol\":3585:3592  service */\n      dup2\n        /* \"MarketPlace.sol\":3585:3598  service.buyer */\n      0x03\n      add\n      0x00\n      swap1\n      sload\n      swap1\n      0x0100\n      exp\n      swap1\n      div\n      0xffffffffffffffffffffffffffffffffffffffff\n      and\n        /* \"MarketPlace.sol\":3577:3608  payable(service.buyer).transfer */\n      0xffffffffffffffffffffffffffffffffffffffff\n      and\n        /* \"MarketPlace.sol\":3577:3639  payable(service.buyer).transfer(serviceType.value + msg.value) */\n      0x08fc\n        /* \"MarketPlace.sol\":3629:3638  msg.value */\n      callvalue\n        /* \"MarketPlace.sol\":3609:3620  serviceType */\n      dup4\n        /* \"MarketPlace.sol\":3609:3626  serviceType.value */\n      0x02\n      add\n      sload\n        /* \"MarketPlace.sol\":3609:3638  serviceType.value + msg.value */\n      tag_81\n      swap2\n      swap1\n      tag_74\n      jump\t// in\n    tag_81:\n        /* \"MarketPlace.sol\":3577:3639  payable(service.buyer).transfer(serviceType.value + msg.value) */\n      swap1\n      dup2\n      iszero\n      mul\n      swap1\n      mload(0x40)\n      0x00\n      mload(0x40)\n      dup1\n      dup4\n      sub\n      dup2\n      dup6\n      dup9\n      dup9\n      call\n      swap4\n      pop\n      pop\n      pop\n      pop\n      iszero\n      dup1\n      iszero\n      tag_83\n      jumpi\n      returndatasize\n      0x00\n      dup1\n      returndatacopy\n      revert(0x00, returndatasize)\n    tag_83:\n      pop\n        /* \"MarketPlace.sol\":3370:3650  if(block.timestamp < service.requestTime + 30 minutes){... */\n    tag_80:\n        /* \"MarketPlace.sol\":3116:3657  {... */\n      pop\n      pop\n        /* \"MarketPlace.sol\":3049:3657  function cancelRequestSeller(uint index) public payable restricted {... */\n      pop\n      jump\t// out\n        /* \"MarketPlace.sol\":1771:1792  address public seller */\n    tag_20:\n      0x04\n      0x00\n      swap1\n      sload\n      swap1\n      0x0100\n      exp\n      swap1\n      div\n      0xffffffffffffffffffffffffffffffffffffffff\n      and\n      dup2\n      jump\t// out\n        /* \"MarketPlace.sol\":4973:5061  function getServiceCount() public view returns(uint) {... */\n    tag_25:\n        /* \"MarketPlace.sol\":5020:5024  uint */\n      0x00\n        /* \"MarketPlace.sol\":5039:5047  services */\n      0x01\n        /* \"MarketPlace.sol\":5039:5054  services.length */\n      dup1\n      sload\n      swap1\n      pop\n        /* \"MarketPlace.sol\":5032:5054  return services.length */\n      swap1\n      pop\n        /* \"MarketPlace.sol\":4973:5061  function getServiceCount() public view returns(uint) {... */\n      swap1\n      jump\t// out\n        /* \"MarketPlace.sol\":4310:4490  function buyerApproval(uint index) public {... */\n    tag_31:\n        /* \"MarketPlace.sol\":4358:4388  ServiceRequest storage service */\n      0x00\n        /* \"MarketPlace.sol\":4391:4399  services */\n      0x01\n        /* \"MarketPlace.sol\":4400:4405  index */\n      dup3\n        /* \"MarketPlace.sol\":4391:4406  services[index] */\n      dup2\n      sload\n      dup2\n      lt\n      tag_86\n      jumpi\n      tag_87\n      tag_68\n      jump\t// in\n    tag_87:\n    tag_86:\n      swap1\n      0x00\n      mstore\n      keccak256(0x00, 0x20)\n      swap1\n      0x04\n      mul\n      add\n        /* \"MarketPlace.sol\":4358:4406  ServiceRequest storage service = services[index] */\n      swap1\n      pop\n        /* \"MarketPlace.sol\":4438:4448  msg.sender */\n      caller\n        /* \"MarketPlace.sol\":4421:4448  service.buyer == msg.sender */\n      0xffffffffffffffffffffffffffffffffffffffff\n      and\n        /* \"MarketPlace.sol\":4421:4428  service */\n      dup2\n        /* \"MarketPlace.sol\":4421:4434  service.buyer */\n      0x03\n      add\n      0x00\n      swap1\n      sload\n      swap1\n      0x0100\n      exp\n      swap1\n      div\n      0xffffffffffffffffffffffffffffffffffffffff\n      and\n        /* \"MarketPlace.sol\":4421:4448  service.buyer == msg.sender */\n      0xffffffffffffffffffffffffffffffffffffffff\n      and\n      eq\n        /* \"MarketPlace.sol\":4413:4449  require(service.buyer == msg.sender) */\n      tag_89\n      jumpi\n      0x00\n      dup1\n      revert\n    tag_89:\n        /* \"MarketPlace.sol\":4479:4483  true */\n      0x01\n        /* \"MarketPlace.sol\":4456:4463  service */\n      dup2\n        /* \"MarketPlace.sol\":4456:4476  service.buyerApprove */\n      0x03\n      add\n      0x14\n        /* \"MarketPlace.sol\":4456:4483  service.buyerApprove = true */\n      0x0100\n      exp\n      dup2\n      sload\n      dup2\n      0xff\n      mul\n      not\n      and\n      swap1\n      dup4\n      iszero\n      iszero\n      mul\n      or\n      swap1\n      sstore\n      pop\n        /* \"MarketPlace.sol\":4352:4490  {... */\n      pop\n        /* \"MarketPlace.sol\":4310:4490  function buyerApproval(uint index) public {... */\n      pop\n      jump\t// out\n        /* \"MarketPlace.sol\":1658:1687  Service[] public serviceTypes */\n    tag_35:\n      0x00\n      dup2\n      dup2\n      sload\n      dup2\n      lt\n      tag_90\n      jumpi\n      0x00\n      dup1\n      revert\n    tag_90:\n      swap1\n      0x00\n      mstore\n      keccak256(0x00, 0x20)\n      swap1\n      0x04\n      mul\n      add\n      0x00\n      swap2\n      pop\n      swap1\n      pop\n      dup1\n      0x00\n      add\n      dup1\n      sload\n      tag_92\n      swap1\n      tag_93\n      jump\t// in\n    tag_92:\n      dup1\n      0x1f\n      add\n      0x20\n      dup1\n      swap2\n      div\n      mul\n      0x20\n      add\n      mload(0x40)\n      swap1\n      dup2\n      add\n      0x40\n      mstore\n      dup1\n      swap3\n      swap2\n      swap1\n      dup2\n      dup2\n      mstore\n      0x20\n      add\n      dup3\n      dup1\n      sload\n      tag_94\n      swap1\n      tag_93\n      jump\t// in\n    tag_94:\n      dup1\n      iszero\n      tag_95\n      jumpi\n      dup1\n      0x1f\n      lt\n      tag_96\n      jumpi\n      0x0100\n      dup1\n      dup4\n      sload\n      div\n      mul\n      dup4\n      mstore\n      swap2\n      0x20\n      add\n      swap2\n      jump(tag_95)\n    tag_96:\n      dup3\n      add\n      swap2\n      swap1\n      0x00\n      mstore\n      keccak256(0x00, 0x20)\n      swap1\n    tag_97:\n      dup2\n      sload\n      dup2\n      mstore\n      swap1\n      0x01\n      add\n      swap1\n      0x20\n      add\n      dup1\n      dup4\n      gt\n      tag_97\n      jumpi\n      dup3\n      swap1\n      sub\n      0x1f\n      and\n      dup3\n      add\n      swap2\n    tag_95:\n      pop\n      pop\n      pop\n      pop\n      pop\n      swap1\n      dup1\n      0x01\n      add\n      dup1\n      sload\n      tag_98\n      swap1\n      tag_93\n      jump\t// in\n    tag_98:\n      dup1\n      0x1f\n      add\n      0x20\n      dup1\n      swap2\n      div\n      mul\n      0x20\n      add\n      mload(0x40)\n      swap1\n      dup2\n      add\n      0x40\n      mstore\n      dup1\n      swap3\n      swap2\n      swap1\n      dup2\n      dup2\n      mstore\n      0x20\n      add\n      dup3\n      dup1\n      sload\n      tag_99\n      swap1\n      tag_93\n      jump\t// in\n    tag_99:\n      dup1\n      iszero\n      tag_100\n      jumpi\n      dup1\n      0x1f\n      lt\n      tag_101\n      jumpi\n      0x0100\n      dup1\n      dup4\n      sload\n      div\n      mul\n      dup4\n      mstore\n      swap2\n      0x20\n      add\n      swap2\n      jump(tag_100)\n    tag_101:\n      dup3\n      add\n      swap2\n      swap1\n      0x00\n      mstore\n      keccak256(0x00, 0x20)\n      swap1\n    tag_102:\n      dup2\n      sload\n      dup2\n      mstore\n      swap1\n      0x01\n      add\n      swap1\n      0x20\n      add\n      dup1\n      dup4\n      gt\n      tag_102\n      jumpi\n      dup3\n      swap1\n      sub\n      0x1f\n      and\n      dup3\n      add\n      swap2\n    tag_100:\n      pop\n      pop\n      pop\n      pop\n      pop\n      swap1\n      dup1\n      0x02\n      add\n      sload\n      swap1\n      dup1\n      0x03\n      add\n      0x00\n      swap1\n      sload\n      swap1\n      0x0100\n      exp\n      swap1\n      div\n      0xff\n      and\n      swap1\n      pop\n      dup5\n      jump\t// out\n        /* \"MarketPlace.sol\":2175:2497  function createService(string memory header,string memory description, uint value) public restricted{... */\n    tag_42:\n        /* \"MarketPlace.sol\":1984:1990  seller */\n      0x04\n      0x00\n      swap1\n      sload\n      swap1\n      0x0100\n      exp\n      swap1\n      div\n      0xffffffffffffffffffffffffffffffffffffffff\n      and\n        /* \"MarketPlace.sol\":1970:1990  msg.sender == seller */\n      0xffffffffffffffffffffffffffffffffffffffff\n      and\n        /* \"MarketPlace.sol\":1970:1980  msg.sender */\n      caller\n        /* \"MarketPlace.sol\":1970:1990  msg.sender == seller */\n      0xffffffffffffffffffffffffffffffffffffffff\n      and\n      eq\n        /* \"MarketPlace.sol\":1962:1991  require(msg.sender == seller) */\n      tag_104\n      jumpi\n      0x00\n      dup1\n      revert\n    tag_104:\n        /* \"MarketPlace.sol\":2285:2311  Service storage newService */\n      0x00\n        /* \"MarketPlace.sol\":2314:2326  serviceTypes */\n      dup1\n        /* \"MarketPlace.sol\":2314:2333  serviceTypes.push() */\n      0x01\n      dup2\n      0x01\n      dup2\n      sload\n      add\n      dup1\n      dup3\n      sstore\n      dup1\n      swap2\n      pop\n      pop\n      sub\n      swap1\n      0x00\n      mstore\n      keccak256(0x00, 0x20)\n      swap1\n      0x04\n      mul\n      add\n        /* \"MarketPlace.sol\":2285:2333  Service storage newService = serviceTypes.push() */\n      swap1\n      pop\n        /* \"MarketPlace.sol\":2364:2370  header */\n      dup4\n        /* \"MarketPlace.sol\":2344:2354  newService */\n      dup2\n        /* \"MarketPlace.sol\":2344:2361  newService.header */\n      0x00\n      add\n        /* \"MarketPlace.sol\":2344:2370  newService.header = header */\n      swap1\n      dup1\n      mload\n      swap1\n      0x20\n      add\n      swap1\n      tag_107\n      swap3\n      swap2\n      swap1\n      tag_108\n      jump\t// in\n    tag_107:\n      pop\n        /* \"MarketPlace.sol\":2405:2416  description */\n      dup3\n        /* \"MarketPlace.sol\":2380:2390  newService */\n      dup2\n        /* \"MarketPlace.sol\":2380:2402  newService.description */\n      0x01\n      add\n        /* \"MarketPlace.sol\":2380:2416  newService.description = description */\n      swap1\n      dup1\n      mload\n      swap1\n      0x20\n      add\n      swap1\n      tag_109\n      swap3\n      swap2\n      swap1\n      tag_108\n      jump\t// in\n    tag_109:\n      pop\n        /* \"MarketPlace.sol\":2445:2450  value */\n      dup2\n        /* \"MarketPlace.sol\":2426:2436  newService */\n      dup2\n        /* \"MarketPlace.sol\":2426:2442  newService.value */\n      0x02\n      add\n        /* \"MarketPlace.sol\":2426:2450  newService.value = value */\n      dup2\n      swap1\n      sstore\n      pop\n        /* \"MarketPlace.sol\":2486:2490  true */\n      0x01\n        /* \"MarketPlace.sol\":2460:2470  newService */\n      dup2\n        /* \"MarketPlace.sol\":2460:2483  newService.availability */\n      0x03\n      add\n      0x00\n        /* \"MarketPlace.sol\":2460:2490  newService.availability = true */\n      0x0100\n      exp\n      dup2\n      sload\n      dup2\n      0xff\n      mul\n      not\n      and\n      swap1\n      dup4\n      iszero\n      iszero\n      mul\n      or\n      swap1\n      sstore\n      pop\n        /* \"MarketPlace.sol\":2275:2497  {... */\n      pop\n        /* \"MarketPlace.sol\":2175:2497  function createService(string memory header,string memory description, uint value) public restricted{... */\n      pop\n      pop\n      pop\n      jump\t// out\n        /* \"MarketPlace.sol\":1693:1725  ServiceRequest[] public services */\n    tag_46:\n      0x01\n      dup2\n      dup2\n      sload\n      dup2\n      lt\n      tag_110\n      jumpi\n      0x00\n      dup1\n      revert\n    tag_110:\n      swap1\n      0x00\n      mstore\n      keccak256(0x00, 0x20)\n      swap1\n      0x04\n      mul\n      add\n      0x00\n      swap2\n      pop\n      swap1\n      pop\n      dup1\n      0x00\n      add\n      sload\n      swap1\n      dup1\n      0x01\n      add\n      0x00\n      swap1\n      sload\n      swap1\n      0x0100\n      exp\n      swap1\n      div\n      0xff\n      and\n      swap1\n      dup1\n      0x02\n      add\n      sload\n      swap1\n      dup1\n      0x03\n      add\n      0x00\n      swap1\n      sload\n      swap1\n      0x0100\n      exp\n      swap1\n      div\n      0xffffffffffffffffffffffffffffffffffffffff\n      and\n      swap1\n      dup1\n      0x03\n      add\n      0x14\n      swap1\n      sload\n      swap1\n      0x0100\n      exp\n      swap1\n      div\n      0xff\n      and\n      swap1\n      pop\n      dup6\n      jump\t// out\n        /* \"MarketPlace.sol\":2503:3043  function buyService(uint serviceIndex) public payable availability{... */\n    tag_51:\n        /* \"MarketPlace.sol\":1901:1905  true */\n      0x01\n        /* \"MarketPlace.sol\":1888:1905  available == true */\n      iszero\n      iszero\n        /* \"MarketPlace.sol\":1888:1897  available */\n      0x02\n      0x00\n      swap1\n      sload\n      swap1\n      0x0100\n      exp\n      swap1\n      div\n      0xff\n      and\n        /* \"MarketPlace.sol\":1888:1905  available == true */\n      iszero\n      iszero\n      eq\n        /* \"MarketPlace.sol\":1880:1906  require(available == true) */\n      tag_113\n      jumpi\n      0x00\n      dup1\n      revert\n    tag_113:\n        /* \"MarketPlace.sol\":2580:2610  ServiceRequest storage service */\n      0x00\n        /* \"MarketPlace.sol\":2613:2621  services */\n      0x01\n        /* \"MarketPlace.sol\":2613:2628  services.push() */\n      dup1\n      dup2\n      0x01\n      dup2\n      sload\n      add\n      dup1\n      dup3\n      sstore\n      dup1\n      swap2\n      pop\n      pop\n      sub\n      swap1\n      0x00\n      mstore\n      keccak256(0x00, 0x20)\n      swap1\n      0x04\n      mul\n      add\n        /* \"MarketPlace.sol\":2580:2628  ServiceRequest storage service = services.push() */\n      swap1\n      pop\n        /* \"MarketPlace.sol\":2638:2665  Service storage serviceType */\n      0x00\n        /* \"MarketPlace.sol\":2668:2680  serviceTypes */\n      dup1\n        /* \"MarketPlace.sol\":2681:2693  serviceIndex */\n      dup4\n        /* \"MarketPlace.sol\":2668:2694  serviceTypes[serviceIndex] */\n      dup2\n      sload\n      dup2\n      lt\n      tag_116\n      jumpi\n      tag_117\n      tag_68\n      jump\t// in\n    tag_117:\n    tag_116:\n      swap1\n      0x00\n      mstore\n      keccak256(0x00, 0x20)\n      swap1\n      0x04\n      mul\n      add\n        /* \"MarketPlace.sol\":2638:2694  Service storage serviceType = serviceTypes[serviceIndex] */\n      swap1\n      pop\n        /* \"MarketPlace.sol\":2726:2737  serviceType */\n      dup1\n        /* \"MarketPlace.sol\":2726:2743  serviceType.value */\n      0x02\n      add\n      sload\n        /* \"MarketPlace.sol\":2713:2722  msg.value */\n      callvalue\n        /* \"MarketPlace.sol\":2713:2743  msg.value == serviceType.value */\n      eq\n        /* \"MarketPlace.sol\":2705:2744  require(msg.value == serviceType.value) */\n      tag_119\n      jumpi\n      0x00\n      dup1\n      revert\n    tag_119:\n        /* \"MarketPlace.sol\":2777:2792  block.timestamp */\n      timestamp\n        /* \"MarketPlace.sol\":2755:2762  service */\n      dup3\n        /* \"MarketPlace.sol\":2755:2774  service.requestTime */\n      0x02\n      add\n        /* \"MarketPlace.sol\":2755:2792  service.requestTime = block.timestamp */\n      dup2\n      swap1\n      sstore\n      pop\n        /* \"MarketPlace.sol\":2824:2836  serviceIndex */\n      dup3\n        /* \"MarketPlace.sol\":2802:2809  service */\n      dup3\n        /* \"MarketPlace.sol\":2802:2821  service.serviceType */\n      0x00\n      add\n        /* \"MarketPlace.sol\":2802:2836  service.serviceType = serviceIndex */\n      dup2\n      swap1\n      sstore\n      pop\n        /* \"MarketPlace.sol\":2862:2872  msg.sender */\n      caller\n        /* \"MarketPlace.sol\":2846:2853  service */\n      dup3\n        /* \"MarketPlace.sol\":2846:2859  service.buyer */\n      0x03\n      add\n      0x00\n        /* \"MarketPlace.sol\":2846:2872  service.buyer = msg.sender */\n      0x0100\n      exp\n      dup2\n      sload\n      dup2\n      0xffffffffffffffffffffffffffffffffffffffff\n      mul\n      not\n      and\n      swap1\n      dup4\n      0xffffffffffffffffffffffffffffffffffffffff\n      and\n      mul\n      or\n      swap1\n      sstore\n      pop\n        /* \"MarketPlace.sol\":2901:2906  false */\n      0x00\n        /* \"MarketPlace.sol\":2882:2889  service */\n      dup3\n        /* \"MarketPlace.sol\":2882:2898  service.complete */\n      0x01\n      add\n      0x00\n        /* \"MarketPlace.sol\":2882:2906  service.complete = false */\n      0x0100\n      exp\n      dup2\n      sload\n      dup2\n      0xff\n      mul\n      not\n      and\n      swap1\n      dup4\n      iszero\n      iszero\n      mul\n      or\n      swap1\n      sstore\n      pop\n        /* \"MarketPlace.sol\":2943:2948  false */\n      0x00\n        /* \"MarketPlace.sol\":2916:2927  serviceType */\n      dup2\n        /* \"MarketPlace.sol\":2916:2940  serviceType.availability */\n      0x03\n      add\n      0x00\n        /* \"MarketPlace.sol\":2916:2948  serviceType.availability = false */\n      0x0100\n      exp\n      dup2\n      sload\n      dup2\n      0xff\n      mul\n      not\n      and\n      swap1\n      dup4\n      iszero\n      iszero\n      mul\n      or\n      swap1\n      sstore\n      pop\n        /* \"MarketPlace.sol\":2984:2992  services */\n      0x01\n        /* \"MarketPlace.sol\":2984:2999  services.length */\n      dup1\n      sload\n      swap1\n      pop\n        /* \"MarketPlace.sol\":2958:2971  serviceBought */\n      0x05\n        /* \"MarketPlace.sol\":2958:2983  serviceBought[msg.sender] */\n      0x00\n        /* \"MarketPlace.sol\":2972:2982  msg.sender */\n      caller\n        /* \"MarketPlace.sol\":2958:2983  serviceBought[msg.sender] */\n      0xffffffffffffffffffffffffffffffffffffffff\n      and\n      0xffffffffffffffffffffffffffffffffffffffff\n      and\n      dup2\n      mstore\n      0x20\n      add\n      swap1\n      dup2\n      mstore\n      0x20\n      add\n      0x00\n      keccak256\n        /* \"MarketPlace.sol\":2958:2999  serviceBought[msg.sender]=services.length */\n      dup2\n      swap1\n      sstore\n      pop\n        /* \"MarketPlace.sol\":3030:3035  false */\n      0x00\n        /* \"MarketPlace.sol\":3008:3015  service */\n      dup3\n        /* \"MarketPlace.sol\":3008:3028  service.buyerApprove */\n      0x03\n      add\n      0x14\n        /* \"MarketPlace.sol\":3008:3035  service.buyerApprove= false */\n      0x0100\n      exp\n      dup2\n      sload\n      dup2\n      0xff\n      mul\n      not\n      and\n      swap1\n      dup4\n      iszero\n      iszero\n      mul\n      or\n      swap1\n      sstore\n      pop\n        /* \"MarketPlace.sol\":2569:3043  {... */\n      pop\n      pop\n        /* \"MarketPlace.sol\":2503:3043  function buyService(uint serviceIndex) public payable availability{... */\n      pop\n      jump\t// out\n        /* \"MarketPlace.sol\":4497:4862  function sellerApproval(uint index) public restricted{... */\n    tag_55:\n        /* \"MarketPlace.sol\":1984:1990  seller */\n      0x04\n      0x00\n      swap1\n      sload\n      swap1\n      0x0100\n      exp\n      swap1\n      div\n      0xffffffffffffffffffffffffffffffffffffffff\n      and\n        /* \"MarketPlace.sol\":1970:1990  msg.sender == seller */\n      0xffffffffffffffffffffffffffffffffffffffff\n      and\n        /* \"MarketPlace.sol\":1970:1980  msg.sender */\n      caller\n        /* \"MarketPlace.sol\":1970:1990  msg.sender == seller */\n      0xffffffffffffffffffffffffffffffffffffffff\n      and\n      eq\n        /* \"MarketPlace.sol\":1962:1991  require(msg.sender == seller) */\n      tag_121\n      jumpi\n      0x00\n      dup1\n      revert\n    tag_121:\n        /* \"MarketPlace.sol\":4560:4590  ServiceRequest storage service */\n      0x00\n        /* \"MarketPlace.sol\":4593:4601  services */\n      0x01\n        /* \"MarketPlace.sol\":4602:4607  index */\n      dup3\n        /* \"MarketPlace.sol\":4593:4608  services[index] */\n      dup2\n      sload\n      dup2\n      lt\n      tag_123\n      jumpi\n      tag_124\n      tag_68\n      jump\t// in\n    tag_124:\n    tag_123:\n      swap1\n      0x00\n      mstore\n      keccak256(0x00, 0x20)\n      swap1\n      0x04\n      mul\n      add\n        /* \"MarketPlace.sol\":4560:4608  ServiceRequest storage service = services[index] */\n      swap1\n      pop\n        /* \"MarketPlace.sol\":4627:4634  service */\n      dup1\n        /* \"MarketPlace.sol\":4627:4647  service.buyerApprove */\n      0x03\n      add\n      0x14\n      swap1\n      sload\n      swap1\n      0x0100\n      exp\n      swap1\n      div\n      0xff\n      and\n        /* \"MarketPlace.sol\":4619:4648  require(service.buyerApprove) */\n      tag_126\n      jumpi\n      0x00\n      dup1\n      revert\n    tag_126:\n        /* \"MarketPlace.sol\":4679:4683  true */\n      0x01\n        /* \"MarketPlace.sol\":4660:4667  service */\n      dup2\n        /* \"MarketPlace.sol\":4660:4676  service.complete */\n      0x01\n      add\n      0x00\n        /* \"MarketPlace.sol\":4660:4683  service.complete = true */\n      0x0100\n      exp\n      dup2\n      sload\n      dup2\n      0xff\n      mul\n      not\n      and\n      swap1\n      dup4\n      iszero\n      iszero\n      mul\n      or\n      swap1\n      sstore\n      pop\n        /* \"MarketPlace.sol\":4694:4721  Service storage serviceType */\n      0x00\n        /* \"MarketPlace.sol\":4724:4736  serviceTypes */\n      dup1\n        /* \"MarketPlace.sol\":4737:4744  service */\n      dup3\n        /* \"MarketPlace.sol\":4737:4756  service.serviceType */\n      0x00\n      add\n      sload\n        /* \"MarketPlace.sol\":4724:4757  serviceTypes[service.serviceType] */\n      dup2\n      sload\n      dup2\n      lt\n      tag_127\n      jumpi\n      tag_128\n      tag_68\n      jump\t// in\n    tag_128:\n    tag_127:\n      swap1\n      0x00\n      mstore\n      keccak256(0x00, 0x20)\n      swap1\n      0x04\n      mul\n      add\n        /* \"MarketPlace.sol\":4694:4757  Service storage serviceType = serviceTypes[service.serviceType] */\n      swap1\n      pop\n        /* \"MarketPlace.sol\":4776:4782  seller */\n      0x04\n      0x00\n      swap1\n      sload\n      swap1\n      0x0100\n      exp\n      swap1\n      div\n      0xffffffffffffffffffffffffffffffffffffffff\n      and\n        /* \"MarketPlace.sol\":4768:4792  payable(seller).transfer */\n      0xffffffffffffffffffffffffffffffffffffffff\n      and\n        /* \"MarketPlace.sol\":4768:4811  payable(seller).transfer(serviceType.value) */\n      0x08fc\n        /* \"MarketPlace.sol\":4793:4804  serviceType */\n      dup3\n        /* \"MarketPlace.sol\":4793:4810  serviceType.value */\n      0x02\n      add\n      sload\n        /* \"MarketPlace.sol\":4768:4811  payable(seller).transfer(serviceType.value) */\n      swap1\n      dup2\n      iszero\n      mul\n      swap1\n      mload(0x40)\n      0x00\n      mload(0x40)\n      dup1\n      dup4\n      sub\n      dup2\n      dup6\n      dup9\n      dup9\n      call\n      swap4\n      pop\n      pop\n      pop\n      pop\n      iszero\n      dup1\n      iszero\n      tag_131\n      jumpi\n      returndatasize\n      0x00\n      dup1\n      returndatacopy\n      revert(0x00, returndatasize)\n    tag_131:\n      pop\n        /* \"MarketPlace.sol\":4848:4852  true */\n      0x01\n        /* \"MarketPlace.sol\":4821:4832  serviceType */\n      dup2\n        /* \"MarketPlace.sol\":4821:4845  serviceType.availability */\n      0x03\n      add\n      0x00\n        /* \"MarketPlace.sol\":4821:4852  serviceType.availability = true */\n      0x0100\n      exp\n      dup2\n      sload\n      dup2\n      0xff\n      mul\n      not\n      and\n      swap1\n      dup4\n      iszero\n      iszero\n      mul\n      or\n      swap1\n      sstore\n      pop\n        /* \"MarketPlace.sol\":4550:4862  {... */\n      pop\n      pop\n        /* \"MarketPlace.sol\":4497:4862  function sellerApproval(uint index) public restricted{... */\n      pop\n      jump\t// out\n        /* \"MarketPlace.sol\":3663:4303  function cancelServiceBuyer(uint index) public payable{... */\n    tag_58:\n        /* \"MarketPlace.sol\":3727:3757  ServiceRequest storage service */\n      0x00\n        /* \"MarketPlace.sol\":3760:3768  services */\n      0x01\n        /* \"MarketPlace.sol\":3769:3774  index */\n      dup3\n        /* \"MarketPlace.sol\":3760:3775  services[index] */\n      dup2\n      sload\n      dup2\n      lt\n      tag_133\n      jumpi\n      tag_134\n      tag_68\n      jump\t// in\n    tag_134:\n    tag_133:\n      swap1\n      0x00\n      mstore\n      keccak256(0x00, 0x20)\n      swap1\n      0x04\n      mul\n      add\n        /* \"MarketPlace.sol\":3727:3775  ServiceRequest storage service = services[index] */\n      swap1\n      pop\n        /* \"MarketPlace.sol\":3785:3812  Service storage serviceType */\n      0x00\n        /* \"MarketPlace.sol\":3815:3827  serviceTypes */\n      dup1\n        /* \"MarketPlace.sol\":3828:3835  service */\n      dup3\n        /* \"MarketPlace.sol\":3828:3847  service.serviceType */\n      0x00\n      add\n      sload\n        /* \"MarketPlace.sol\":3815:3848  serviceTypes[service.serviceType] */\n      dup2\n      sload\n      dup2\n      lt\n      tag_136\n      jumpi\n      tag_137\n      tag_68\n      jump\t// in\n    tag_137:\n    tag_136:\n      swap1\n      0x00\n      mstore\n      keccak256(0x00, 0x20)\n      swap1\n      0x04\n      mul\n      add\n        /* \"MarketPlace.sol\":3785:3848  Service storage serviceType = serviceTypes[service.serviceType] */\n      swap1\n      pop\n        /* \"MarketPlace.sol\":3881:3888  service */\n      dup2\n        /* \"MarketPlace.sol\":3881:3894  service.buyer */\n      0x03\n      add\n      0x00\n      swap1\n      sload\n      swap1\n      0x0100\n      exp\n      swap1\n      div\n      0xffffffffffffffffffffffffffffffffffffffff\n      and\n        /* \"MarketPlace.sol\":3867:3894  msg.sender == service.buyer */\n      0xffffffffffffffffffffffffffffffffffffffff\n      and\n        /* \"MarketPlace.sol\":3867:3877  msg.sender */\n      caller\n        /* \"MarketPlace.sol\":3867:3894  msg.sender == service.buyer */\n      0xffffffffffffffffffffffffffffffffffffffff\n      and\n      eq\n        /* \"MarketPlace.sol\":3859:3895  require(msg.sender == service.buyer) */\n      tag_139\n      jumpi\n      0x00\n      dup1\n      revert\n    tag_139:\n        /* \"MarketPlace.sol\":3925:3929  true */\n      0x01\n        /* \"MarketPlace.sol\":3906:3913  service */\n      dup3\n        /* \"MarketPlace.sol\":3906:3922  service.complete */\n      0x01\n      add\n      0x00\n        /* \"MarketPlace.sol\":3906:3929  service.complete = true */\n      0x0100\n      exp\n      dup2\n      sload\n      dup2\n      0xff\n      mul\n      not\n      and\n      swap1\n      dup4\n      iszero\n      iszero\n      mul\n      or\n      swap1\n      sstore\n      pop\n        /* \"MarketPlace.sol\":3966:3970  true */\n      0x01\n        /* \"MarketPlace.sol\":3939:3950  serviceType */\n      dup2\n        /* \"MarketPlace.sol\":3939:3963  serviceType.availability */\n      0x03\n      add\n      0x00\n        /* \"MarketPlace.sol\":3939:3970  serviceType.availability = true */\n      0x0100\n      exp\n      dup2\n      sload\n      dup2\n      0xff\n      mul\n      not\n      and\n      swap1\n      dup4\n      iszero\n      iszero\n      mul\n      or\n      swap1\n      sstore\n      pop\n        /* \"MarketPlace.sol\":4003:4007  true */\n      0x01\n        /* \"MarketPlace.sol\":3980:3987  service */\n      dup3\n        /* \"MarketPlace.sol\":3980:4000  service.buyerApprove */\n      0x03\n      add\n      0x14\n        /* \"MarketPlace.sol\":3980:4007  service.buyerApprove = true */\n      0x0100\n      exp\n      dup2\n      sload\n      dup2\n      0xff\n      mul\n      not\n      and\n      swap1\n      dup4\n      iszero\n      iszero\n      mul\n      or\n      swap1\n      sstore\n      pop\n        /* \"MarketPlace.sol\":4061:4071  30 minutes */\n      0x0708\n        /* \"MarketPlace.sol\":4039:4046  service */\n      dup3\n        /* \"MarketPlace.sol\":4039:4058  service.requestTime */\n      0x02\n      add\n      sload\n        /* \"MarketPlace.sol\":4039:4071  service.requestTime + 30 minutes */\n      tag_140\n      swap2\n      swap1\n      tag_74\n      jump\t// in\n    tag_140:\n        /* \"MarketPlace.sol\":4021:4036  block.timestamp */\n      timestamp\n        /* \"MarketPlace.sol\":4021:4071  block.timestamp < service.requestTime + 30 minutes */\n      lt\n        /* \"MarketPlace.sol\":4018:4297  if(block.timestamp < service.requestTime + 30 minutes){... */\n      iszero\n      tag_141\n      jumpi\n        /* \"MarketPlace.sol\":4094:4101  service */\n      dup2\n        /* \"MarketPlace.sol\":4094:4107  service.buyer */\n      0x03\n      add\n      0x00\n      swap1\n      sload\n      swap1\n      0x0100\n      exp\n      swap1\n      div\n      0xffffffffffffffffffffffffffffffffffffffff\n      and\n        /* \"MarketPlace.sol\":4086:4117  payable(service.buyer).transfer */\n      0xffffffffffffffffffffffffffffffffffffffff\n      and\n        /* \"MarketPlace.sol\":4086:4148  payable(service.buyer).transfer(serviceType.value + msg.value) */\n      0x08fc\n        /* \"MarketPlace.sol\":4138:4147  msg.value */\n      callvalue\n        /* \"MarketPlace.sol\":4118:4129  serviceType */\n      dup4\n        /* \"MarketPlace.sol\":4118:4135  serviceType.value */\n      0x02\n      add\n      sload\n        /* \"MarketPlace.sol\":4118:4147  serviceType.value + msg.value */\n      tag_142\n      swap2\n      swap1\n      tag_74\n      jump\t// in\n    tag_142:\n        /* \"MarketPlace.sol\":4086:4148  payable(service.buyer).transfer(serviceType.value + msg.value) */\n      swap1\n      dup2\n      iszero\n      mul\n      swap1\n      mload(0x40)\n      0x00\n      mload(0x40)\n      dup1\n      dup4\n      sub\n      dup2\n      dup6\n      dup9\n      dup9\n      call\n      swap4\n      pop\n      pop\n      pop\n      pop\n      iszero\n      dup1\n      iszero\n      tag_144\n      jumpi\n      returndatasize\n      0x00\n      dup1\n      returndatacopy\n      revert(0x00, returndatasize)\n    tag_144:\n      pop\n        /* \"MarketPlace.sol\":4018:4297  if(block.timestamp < service.requestTime + 30 minutes){... */\n      jump(tag_145)\n    tag_141:\n        /* \"MarketPlace.sol\":4195:4201  seller */\n      0x04\n      0x00\n      swap1\n      sload\n      swap1\n      0x0100\n      exp\n      swap1\n      div\n      0xffffffffffffffffffffffffffffffffffffffff\n      and\n        /* \"MarketPlace.sol\":4187:4211  payable(seller).transfer */\n      0xffffffffffffffffffffffffffffffffffffffff\n      and\n        /* \"MarketPlace.sol\":4187:4222  payable(seller).transfer(msg.value) */\n      0x08fc\n        /* \"MarketPlace.sol\":4212:4221  msg.value */\n      callvalue\n        /* \"MarketPlace.sol\":4187:4222  payable(seller).transfer(msg.value) */\n      swap1\n      dup2\n      iszero\n      mul\n      swap1\n      mload(0x40)\n      0x00\n      mload(0x40)\n      dup1\n      dup4\n      sub\n      dup2\n      dup6\n      dup9\n      dup9\n      call\n      swap4\n      pop\n      pop\n      pop\n      pop\n      iszero\n      dup1\n      iszero\n      tag_147\n      jumpi\n      returndatasize\n      0x00\n      dup1\n      returndatacopy\n      revert(0x00, returndatasize)\n    tag_147:\n      pop\n        /* \"MarketPlace.sol\":4244:4251  service */\n      dup2\n        /* \"MarketPlace.sol\":4244:4257  service.buyer */\n      0x03\n      add\n      0x00\n      swap1\n      sload\n      swap1\n      0x0100\n      exp\n      swap1\n      div\n      0xffffffffffffffffffffffffffffffffffffffff\n      and\n        /* \"MarketPlace.sol\":4236:4267  payable(service.buyer).transfer */\n      0xffffffffffffffffffffffffffffffffffffffff\n      and\n        /* \"MarketPlace.sol\":4236:4286  payable(service.buyer).transfer(serviceType.value) */\n      0x08fc\n        /* \"MarketPlace.sol\":4268:4279  serviceType */\n      dup3\n        /* \"MarketPlace.sol\":4268:4285  serviceType.value */\n      0x02\n      add\n      sload\n        /* \"MarketPlace.sol\":4236:4286  payable(service.buyer).transfer(serviceType.value) */\n      swap1\n      dup2\n      iszero\n      mul\n      swap1\n      mload(0x40)\n      0x00\n      mload(0x40)\n      dup1\n      dup4\n      sub\n      dup2\n      dup6\n      dup9\n      dup9\n      call\n      swap4\n      pop\n      pop\n      pop\n      pop\n      iszero\n      dup1\n      iszero\n      tag_149\n      jumpi\n      returndatasize\n      0x00\n      dup1\n      returndatacopy\n      revert(0x00, returndatasize)\n    tag_149:\n      pop\n        /* \"MarketPlace.sol\":4018:4297  if(block.timestamp < service.requestTime + 30 minutes){... */\n    tag_145:\n        /* \"MarketPlace.sol\":3717:4303  {... */\n      pop\n      pop\n        /* \"MarketPlace.sol\":3663:4303  function cancelServiceBuyer(uint index) public payable{... */\n      pop\n      jump\t// out\n        /* \"MarketPlace.sol\":4870:4967  function getServiceTypesCount() public view returns(uint) {... */\n    tag_61:\n        /* \"MarketPlace.sol\":4922:4926  uint */\n      0x00\n        /* \"MarketPlace.sol\":4941:4953  serviceTypes */\n      dup1\n        /* \"MarketPlace.sol\":4941:4960  serviceTypes.length */\n      dup1\n      sload\n      swap1\n      pop\n        /* \"MarketPlace.sol\":4934:4960  return serviceTypes.length */\n      swap1\n      pop\n        /* \"MarketPlace.sol\":4870:4967  function getServiceTypesCount() public view returns(uint) {... */\n      swap1\n      jump\t// out\n    tag_108:\n      dup3\n      dup1\n      sload\n      tag_151\n      swap1\n      tag_93\n      jump\t// in\n    tag_151:\n      swap1\n      0x00\n      mstore\n      keccak256(0x00, 0x20)\n      swap1\n      0x1f\n      add\n      0x20\n      swap1\n      div\n      dup2\n      add\n      swap3\n      dup3\n      tag_153\n      jumpi\n      0x00\n      dup6\n      sstore\n      jump(tag_152)\n    tag_153:\n      dup3\n      0x1f\n      lt\n      tag_154\n      jumpi\n      dup1\n      mload\n      not(0xff)\n      and\n      dup4\n      dup1\n      add\n      or\n      dup6\n      sstore\n      jump(tag_152)\n    tag_154:\n      dup3\n      dup1\n      add\n      0x01\n      add\n      dup6\n      sstore\n      dup3\n      iszero\n      tag_152\n      jumpi\n      swap2\n      dup3\n      add\n    tag_155:\n      dup3\n      dup2\n      gt\n      iszero\n      tag_156\n      jumpi\n      dup3\n      mload\n      dup3\n      sstore\n      swap2\n      0x20\n      add\n      swap2\n      swap1\n      0x01\n      add\n      swap1\n      jump(tag_155)\n    tag_156:\n    tag_152:\n      pop\n      swap1\n      pop\n      tag_157\n      swap2\n      swap1\n      tag_158\n      jump\t// in\n    tag_157:\n      pop\n      swap1\n      jump\t// out\n    tag_158:\n    tag_159:\n      dup1\n      dup3\n      gt\n      iszero\n      tag_160\n      jumpi\n      0x00\n      dup2\n      0x00\n      swap1\n      sstore\n      pop\n      0x01\n      add\n      jump(tag_159)\n    tag_160:\n      pop\n      swap1\n      jump\t// out\n        /* \"#utility.yul\":7:82   */\n    tag_161:\n        /* \"#utility.yul\":40:46   */\n      0x00\n        /* \"#utility.yul\":73:75   */\n      0x40\n        /* \"#utility.yul\":67:76   */\n      mload\n        /* \"#utility.yul\":57:76   */\n      swap1\n      pop\n        /* \"#utility.yul\":7:82   */\n      swap1\n      jump\t// out\n        /* \"#utility.yul\":88:205   */\n    tag_162:\n        /* \"#utility.yul\":197:198   */\n      0x00\n        /* \"#utility.yul\":194:195   */\n      dup1\n        /* \"#utility.yul\":187:199   */\n      revert\n        /* \"#utility.yul\":211:328   */\n    tag_163:\n        /* \"#utility.yul\":320:321   */\n      0x00\n        /* \"#utility.yul\":317:318   */\n      dup1\n        /* \"#utility.yul\":310:322   */\n      revert\n        /* \"#utility.yul\":334:411   */\n    tag_164:\n        /* \"#utility.yul\":371:378   */\n      0x00\n        /* \"#utility.yul\":400:405   */\n      dup2\n        /* \"#utility.yul\":389:405   */\n      swap1\n      pop\n        /* \"#utility.yul\":334:411   */\n      swap2\n      swap1\n      pop\n      jump\t// out\n        /* \"#utility.yul\":417:539   */\n    tag_165:\n        /* \"#utility.yul\":490:514   */\n      tag_195\n        /* \"#utility.yul\":508:513   */\n      dup2\n        /* \"#utility.yul\":490:514   */\n      tag_164\n      jump\t// in\n    tag_195:\n        /* \"#utility.yul\":483:488   */\n      dup2\n        /* \"#utility.yul\":480:515   */\n      eq\n        /* \"#utility.yul\":470:533   */\n      tag_196\n      jumpi\n        /* \"#utility.yul\":529:530   */\n      0x00\n        /* \"#utility.yul\":526:527   */\n      dup1\n        /* \"#utility.yul\":519:531   */\n      revert\n        /* \"#utility.yul\":470:533   */\n    tag_196:\n        /* \"#utility.yul\":417:539   */\n      pop\n      jump\t// out\n        /* \"#utility.yul\":545:684   */\n    tag_166:\n        /* \"#utility.yul\":591:596   */\n      0x00\n        /* \"#utility.yul\":629:635   */\n      dup2\n        /* \"#utility.yul\":616:636   */\n      calldataload\n        /* \"#utility.yul\":607:636   */\n      swap1\n      pop\n        /* \"#utility.yul\":645:678   */\n      tag_198\n        /* \"#utility.yul\":672:677   */\n      dup2\n        /* \"#utility.yul\":645:678   */\n      tag_165\n      jump\t// in\n    tag_198:\n        /* \"#utility.yul\":545:684   */\n      swap3\n      swap2\n      pop\n      pop\n      jump\t// out\n        /* \"#utility.yul\":690:1019   */\n    tag_16:\n        /* \"#utility.yul\":749:755   */\n      0x00\n        /* \"#utility.yul\":798:800   */\n      0x20\n        /* \"#utility.yul\":786:795   */\n      dup3\n        /* \"#utility.yul\":777:784   */\n      dup5\n        /* \"#utility.yul\":773:796   */\n      sub\n        /* \"#utility.yul\":769:801   */\n      slt\n        /* \"#utility.yul\":766:885   */\n      iszero\n      tag_200\n      jumpi\n        /* \"#utility.yul\":804:883   */\n      tag_201\n      tag_162\n      jump\t// in\n    tag_201:\n        /* \"#utility.yul\":766:885   */\n    tag_200:\n        /* \"#utility.yul\":924:925   */\n      0x00\n        /* \"#utility.yul\":949:1002   */\n      tag_202\n        /* \"#utility.yul\":994:1001   */\n      dup5\n        /* \"#utility.yul\":985:991   */\n      dup3\n        /* \"#utility.yul\":974:983   */\n      dup6\n        /* \"#utility.yul\":970:992   */\n      add\n        /* \"#utility.yul\":949:1002   */\n      tag_166\n      jump\t// in\n    tag_202:\n        /* \"#utility.yul\":939:1002   */\n      swap2\n      pop\n        /* \"#utility.yul\":895:1012   */\n      pop\n        /* \"#utility.yul\":690:1019   */\n      swap3\n      swap2\n      pop\n      pop\n      jump\t// out\n        /* \"#utility.yul\":1025:1151   */\n    tag_167:\n        /* \"#utility.yul\":1062:1069   */\n      0x00\n        /* \"#utility.yul\":1102:1144   */\n      0xffffffffffffffffffffffffffffffffffffffff\n        /* \"#utility.yul\":1095:1100   */\n      dup3\n        /* \"#utility.yul\":1091:1145   */\n      and\n        /* \"#utility.yul\":1080:1145   */\n      swap1\n      pop\n        /* \"#utility.yul\":1025:1151   */\n      swap2\n      swap1\n      pop\n      jump\t// out\n        /* \"#utility.yul\":1157:1253   */\n    tag_168:\n        /* \"#utility.yul\":1194:1201   */\n      0x00\n        /* \"#utility.yul\":1223:1247   */\n      tag_205\n        /* \"#utility.yul\":1241:1246   */\n      dup3\n        /* \"#utility.yul\":1223:1247   */\n      tag_167\n      jump\t// in\n    tag_205:\n        /* \"#utility.yul\":1212:1247   */\n      swap1\n      pop\n        /* \"#utility.yul\":1157:1253   */\n      swap2\n      swap1\n      pop\n      jump\t// out\n        /* \"#utility.yul\":1259:1377   */\n    tag_169:\n        /* \"#utility.yul\":1346:1370   */\n      tag_207\n        /* \"#utility.yul\":1364:1369   */\n      dup2\n        /* \"#utility.yul\":1346:1370   */\n      tag_168\n      jump\t// in\n    tag_207:\n        /* \"#utility.yul\":1341:1344   */\n      dup3\n        /* \"#utility.yul\":1334:1371   */\n      mstore\n        /* \"#utility.yul\":1259:1377   */\n      pop\n      pop\n      jump\t// out\n        /* \"#utility.yul\":1383:1605   */\n    tag_22:\n        /* \"#utility.yul\":1476:1480   */\n      0x00\n        /* \"#utility.yul\":1514:1516   */\n      0x20\n        /* \"#utility.yul\":1503:1512   */\n      dup3\n        /* \"#utility.yul\":1499:1517   */\n      add\n        /* \"#utility.yul\":1491:1517   */\n      swap1\n      pop\n        /* \"#utility.yul\":1527:1598   */\n      tag_209\n        /* \"#utility.yul\":1595:1596   */\n      0x00\n        /* \"#utility.yul\":1584:1593   */\n      dup4\n        /* \"#utility.yul\":1580:1597   */\n      add\n        /* \"#utility.yul\":1571:1577   */\n      dup5\n        /* \"#utility.yul\":1527:1598   */\n      tag_169\n      jump\t// in\n    tag_209:\n        /* \"#utility.yul\":1383:1605   */\n      swap3\n      swap2\n      pop\n      pop\n      jump\t// out\n        /* \"#utility.yul\":1611:1729   */\n    tag_170:\n        /* \"#utility.yul\":1698:1722   */\n      tag_211\n        /* \"#utility.yul\":1716:1721   */\n      dup2\n        /* \"#utility.yul\":1698:1722   */\n      tag_164\n      jump\t// in\n    tag_211:\n        /* \"#utility.yul\":1693:1696   */\n      dup3\n        /* \"#utility.yul\":1686:1723   */\n      mstore\n        /* \"#utility.yul\":1611:1729   */\n      pop\n      pop\n      jump\t// out\n        /* \"#utility.yul\":1735:1957   */\n    tag_27:\n        /* \"#utility.yul\":1828:1832   */\n      0x00\n        /* \"#utility.yul\":1866:1868   */\n      0x20\n        /* \"#utility.yul\":1855:1864   */\n      dup3\n        /* \"#utility.yul\":1851:1869   */\n      add\n        /* \"#utility.yul\":1843:1869   */\n      swap1\n      pop\n        /* \"#utility.yul\":1879:1950   */\n      tag_213\n        /* \"#utility.yul\":1947:1948   */\n      0x00\n        /* \"#utility.yul\":1936:1945   */\n      dup4\n        /* \"#utility.yul\":1932:1949   */\n      add\n        /* \"#utility.yul\":1923:1929   */\n      dup5\n        /* \"#utility.yul\":1879:1950   */\n      tag_170\n      jump\t// in\n    tag_213:\n        /* \"#utility.yul\":1735:1957   */\n      swap3\n      swap2\n      pop\n      pop\n      jump\t// out\n        /* \"#utility.yul\":1963:2062   */\n    tag_171:\n        /* \"#utility.yul\":2015:2021   */\n      0x00\n        /* \"#utility.yul\":2049:2054   */\n      dup2\n        /* \"#utility.yul\":2043:2055   */\n      mload\n        /* \"#utility.yul\":2033:2055   */\n      swap1\n      pop\n        /* \"#utility.yul\":1963:2062   */\n      swap2\n      swap1\n      pop\n      jump\t// out\n        /* \"#utility.yul\":2068:2237   */\n    tag_172:\n        /* \"#utility.yul\":2152:2163   */\n      0x00\n        /* \"#utility.yul\":2186:2192   */\n      dup3\n        /* \"#utility.yul\":2181:2184   */\n      dup3\n        /* \"#utility.yul\":2174:2193   */\n      mstore\n        /* \"#utility.yul\":2226:2230   */\n      0x20\n        /* \"#utility.yul\":2221:2224   */\n      dup3\n        /* \"#utility.yul\":2217:2231   */\n      add\n        /* \"#utility.yul\":2202:2231   */\n      swap1\n      pop\n        /* \"#utility.yul\":2068:2237   */\n      swap3\n      swap2\n      pop\n      pop\n      jump\t// out\n        /* \"#utility.yul\":2243:2550   */\n    tag_173:\n        /* \"#utility.yul\":2311:2312   */\n      0x00\n        /* \"#utility.yul\":2321:2434   */\n    tag_217:\n        /* \"#utility.yul\":2335:2341   */\n      dup4\n        /* \"#utility.yul\":2332:2333   */\n      dup2\n        /* \"#utility.yul\":2329:2342   */\n      lt\n        /* \"#utility.yul\":2321:2434   */\n      iszero\n      tag_219\n      jumpi\n        /* \"#utility.yul\":2420:2421   */\n      dup1\n        /* \"#utility.yul\":2415:2418   */\n      dup3\n        /* \"#utility.yul\":2411:2422   */\n      add\n        /* \"#utility.yul\":2405:2423   */\n      mload\n        /* \"#utility.yul\":2401:2402   */\n      dup2\n        /* \"#utility.yul\":2396:2399   */\n      dup5\n        /* \"#utility.yul\":2392:2403   */\n      add\n        /* \"#utility.yul\":2385:2424   */\n      mstore\n        /* \"#utility.yul\":2357:2359   */\n      0x20\n        /* \"#utility.yul\":2354:2355   */\n      dup2\n        /* \"#utility.yul\":2350:2360   */\n      add\n        /* \"#utility.yul\":2345:2360   */\n      swap1\n      pop\n        /* \"#utility.yul\":2321:2434   */\n      jump(tag_217)\n    tag_219:\n        /* \"#utility.yul\":2452:2458   */\n      dup4\n        /* \"#utility.yul\":2449:2450   */\n      dup2\n        /* \"#utility.yul\":2446:2459   */\n      gt\n        /* \"#utility.yul\":2443:2544   */\n      iszero\n      tag_220\n      jumpi\n        /* \"#utility.yul\":2532:2533   */\n      0x00\n        /* \"#utility.yul\":2523:2529   */\n      dup5\n        /* \"#utility.yul\":2518:2521   */\n      dup5\n        /* \"#utility.yul\":2514:2530   */\n      add\n        /* \"#utility.yul\":2507:2534   */\n      mstore\n        /* \"#utility.yul\":2443:2544   */\n    tag_220:\n        /* \"#utility.yul\":2292:2550   */\n      pop\n        /* \"#utility.yul\":2243:2550   */\n      pop\n      pop\n      pop\n      jump\t// out\n        /* \"#utility.yul\":2556:2658   */\n    tag_174:\n        /* \"#utility.yul\":2597:2603   */\n      0x00\n        /* \"#utility.yul\":2648:2650   */\n      0x1f\n        /* \"#utility.yul\":2644:2651   */\n      not\n        /* \"#utility.yul\":2639:2641   */\n      0x1f\n        /* \"#utility.yul\":2632:2637   */\n      dup4\n        /* \"#utility.yul\":2628:2642   */\n      add\n        /* \"#utility.yul\":2624:2652   */\n      and\n        /* \"#utility.yul\":2614:2652   */\n      swap1\n      pop\n        /* \"#utility.yul\":2556:2658   */\n      swap2\n      swap1\n      pop\n      jump\t// out\n        /* \"#utility.yul\":2664:3028   */\n    tag_175:\n        /* \"#utility.yul\":2752:2755   */\n      0x00\n        /* \"#utility.yul\":2780:2819   */\n      tag_223\n        /* \"#utility.yul\":2813:2818   */\n      dup3\n        /* \"#utility.yul\":2780:2819   */\n      tag_171\n      jump\t// in\n    tag_223:\n        /* \"#utility.yul\":2835:2906   */\n      tag_224\n        /* \"#utility.yul\":2899:2905   */\n      dup2\n        /* \"#utility.yul\":2894:2897   */\n      dup6\n        /* \"#utility.yul\":2835:2906   */\n      tag_172\n      jump\t// in\n    tag_224:\n        /* \"#utility.yul\":2828:2906   */\n      swap4\n      pop\n        /* \"#utility.yul\":2915:2967   */\n      tag_225\n        /* \"#utility.yul\":2960:2966   */\n      dup2\n        /* \"#utility.yul\":2955:2958   */\n      dup6\n        /* \"#utility.yul\":2948:2952   */\n      0x20\n        /* \"#utility.yul\":2941:2946   */\n      dup7\n        /* \"#utility.yul\":2937:2953   */\n      add\n        /* \"#utility.yul\":2915:2967   */\n      tag_173\n      jump\t// in\n    tag_225:\n        /* \"#utility.yul\":2992:3021   */\n      tag_226\n        /* \"#utility.yul\":3014:3020   */\n      dup2\n        /* \"#utility.yul\":2992:3021   */\n      tag_174\n      jump\t// in\n    tag_226:\n        /* \"#utility.yul\":2987:2990   */\n      dup5\n        /* \"#utility.yul\":2983:3022   */\n      add\n        /* \"#utility.yul\":2976:3022   */\n      swap2\n      pop\n        /* \"#utility.yul\":2756:3028   */\n      pop\n        /* \"#utility.yul\":2664:3028   */\n      swap3\n      swap2\n      pop\n      pop\n      jump\t// out\n        /* \"#utility.yul\":3034:3124   */\n    tag_176:\n        /* \"#utility.yul\":3068:3075   */\n      0x00\n        /* \"#utility.yul\":3111:3116   */\n      dup2\n        /* \"#utility.yul\":3104:3117   */\n      iszero\n        /* \"#utility.yul\":3097:3118   */\n      iszero\n        /* \"#utility.yul\":3086:3118   */\n      swap1\n      pop\n        /* \"#utility.yul\":3034:3124   */\n      swap2\n      swap1\n      pop\n      jump\t// out\n        /* \"#utility.yul\":3130:3239   */\n    tag_177:\n        /* \"#utility.yul\":3211:3232   */\n      tag_229\n        /* \"#utility.yul\":3226:3231   */\n      dup2\n        /* \"#utility.yul\":3211:3232   */\n      tag_176\n      jump\t// in\n    tag_229:\n        /* \"#utility.yul\":3206:3209   */\n      dup3\n        /* \"#utility.yul\":3199:3233   */\n      mstore\n        /* \"#utility.yul\":3130:3239   */\n      pop\n      pop\n      jump\t// out\n        /* \"#utility.yul\":3245:3968   */\n    tag_37:\n        /* \"#utility.yul\":3456:3460   */\n      0x00\n        /* \"#utility.yul\":3494:3497   */\n      0x80\n        /* \"#utility.yul\":3483:3492   */\n      dup3\n        /* \"#utility.yul\":3479:3498   */\n      add\n        /* \"#utility.yul\":3471:3498   */\n      swap1\n      pop\n        /* \"#utility.yul\":3544:3553   */\n      dup2\n        /* \"#utility.yul\":3538:3542   */\n      dup2\n        /* \"#utility.yul\":3534:3554   */\n      sub\n        /* \"#utility.yul\":3530:3531   */\n      0x00\n        /* \"#utility.yul\":3519:3528   */\n      dup4\n        /* \"#utility.yul\":3515:3532   */\n      add\n        /* \"#utility.yul\":3508:3555   */\n      mstore\n        /* \"#utility.yul\":3572:3650   */\n      tag_231\n        /* \"#utility.yul\":3645:3649   */\n      dup2\n        /* \"#utility.yul\":3636:3642   */\n      dup8\n        /* \"#utility.yul\":3572:3650   */\n      tag_175\n      jump\t// in\n    tag_231:\n        /* \"#utility.yul\":3564:3650   */\n      swap1\n      pop\n        /* \"#utility.yul\":3697:3706   */\n      dup2\n        /* \"#utility.yul\":3691:3695   */\n      dup2\n        /* \"#utility.yul\":3687:3707   */\n      sub\n        /* \"#utility.yul\":3682:3684   */\n      0x20\n        /* \"#utility.yul\":3671:3680   */\n      dup4\n        /* \"#utility.yul\":3667:3685   */\n      add\n        /* \"#utility.yul\":3660:3708   */\n      mstore\n        /* \"#utility.yul\":3725:3803   */\n      tag_232\n        /* \"#utility.yul\":3798:3802   */\n      dup2\n        /* \"#utility.yul\":3789:3795   */\n      dup7\n        /* \"#utility.yul\":3725:3803   */\n      tag_175\n      jump\t// in\n    tag_232:\n        /* \"#utility.yul\":3717:3803   */\n      swap1\n      pop\n        /* \"#utility.yul\":3813:3885   */\n      tag_233\n        /* \"#utility.yul\":3881:3883   */\n      0x40\n        /* \"#utility.yul\":3870:3879   */\n      dup4\n        /* \"#utility.yul\":3866:3884   */\n      add\n        /* \"#utility.yul\":3857:3863   */\n      dup6\n        /* \"#utility.yul\":3813:3885   */\n      tag_170\n      jump\t// in\n    tag_233:\n        /* \"#utility.yul\":3895:3961   */\n      tag_234\n        /* \"#utility.yul\":3957:3959   */\n      0x60\n        /* \"#utility.yul\":3946:3955   */\n      dup4\n        /* \"#utility.yul\":3942:3960   */\n      add\n        /* \"#utility.yul\":3933:3939   */\n      dup5\n        /* \"#utility.yul\":3895:3961   */\n      tag_177\n      jump\t// in\n    tag_234:\n        /* \"#utility.yul\":3245:3968   */\n      swap6\n      swap5\n      pop\n      pop\n      pop\n      pop\n      pop\n      jump\t// out\n        /* \"#utility.yul\":3974:4091   */\n    tag_178:\n        /* \"#utility.yul\":4083:4084   */\n      0x00\n        /* \"#utility.yul\":4080:4081   */\n      dup1\n        /* \"#utility.yul\":4073:4085   */\n      revert\n        /* \"#utility.yul\":4097:4214   */\n    tag_179:\n        /* \"#utility.yul\":4206:4207   */\n      0x00\n        /* \"#utility.yul\":4203:4204   */\n      dup1\n        /* \"#utility.yul\":4196:4208   */\n      revert\n        /* \"#utility.yul\":4220:4400   */\n    tag_180:\n        /* \"#utility.yul\":4268:4345   */\n      0x4e487b7100000000000000000000000000000000000000000000000000000000\n        /* \"#utility.yul\":4265:4266   */\n      0x00\n        /* \"#utility.yul\":4258:4346   */\n      mstore\n        /* \"#utility.yul\":4365:4369   */\n      0x41\n        /* \"#utility.yul\":4362:4363   */\n      0x04\n        /* \"#utility.yul\":4355:4370   */\n      mstore\n        /* \"#utility.yul\":4389:4393   */\n      0x24\n        /* \"#utility.yul\":4386:4387   */\n      0x00\n        /* \"#utility.yul\":4379:4394   */\n      revert\n        /* \"#utility.yul\":4406:4687   */\n    tag_181:\n        /* \"#utility.yul\":4489:4516   */\n      tag_239\n        /* \"#utility.yul\":4511:4515   */\n      dup3\n        /* \"#utility.yul\":4489:4516   */\n      tag_174\n      jump\t// in\n    tag_239:\n        /* \"#utility.yul\":4481:4487   */\n      dup2\n        /* \"#utility.yul\":4477:4517   */\n      add\n        /* \"#utility.yul\":4619:4625   */\n      dup2\n        /* \"#utility.yul\":4607:4617   */\n      dup2\n        /* \"#utility.yul\":4604:4626   */\n      lt\n        /* \"#utility.yul\":4583:4601   */\n      0xffffffffffffffff\n        /* \"#utility.yul\":4571:4581   */\n      dup3\n        /* \"#utility.yul\":4568:4602   */\n      gt\n        /* \"#utility.yul\":4565:4627   */\n      or\n        /* \"#utility.yul\":4562:4650   */\n      iszero\n      tag_240\n      jumpi\n        /* \"#utility.yul\":4630:4648   */\n      tag_241\n      tag_180\n      jump\t// in\n    tag_241:\n        /* \"#utility.yul\":4562:4650   */\n    tag_240:\n        /* \"#utility.yul\":4670:4680   */\n      dup1\n        /* \"#utility.yul\":4666:4668   */\n      0x40\n        /* \"#utility.yul\":4659:4681   */\n      mstore\n        /* \"#utility.yul\":4449:4687   */\n      pop\n        /* \"#utility.yul\":4406:4687   */\n      pop\n      pop\n      jump\t// out\n        /* \"#utility.yul\":4693:4822   */\n    tag_182:\n        /* \"#utility.yul\":4727:4733   */\n      0x00\n        /* \"#utility.yul\":4754:4774   */\n      tag_243\n      tag_161\n      jump\t// in\n    tag_243:\n        /* \"#utility.yul\":4744:4774   */\n      swap1\n      pop\n        /* \"#utility.yul\":4783:4816   */\n      tag_244\n        /* \"#utility.yul\":4811:4815   */\n      dup3\n        /* \"#utility.yul\":4803:4809   */\n      dup3\n        /* \"#utility.yul\":4783:4816   */\n      tag_181\n      jump\t// in\n    tag_244:\n        /* \"#utility.yul\":4693:4822   */\n      swap2\n      swap1\n      pop\n      jump\t// out\n        /* \"#utility.yul\":4828:5136   */\n    tag_183:\n        /* \"#utility.yul\":4890:4894   */\n      0x00\n        /* \"#utility.yul\":4980:4998   */\n      0xffffffffffffffff\n        /* \"#utility.yul\":4972:4978   */\n      dup3\n        /* \"#utility.yul\":4969:4999   */\n      gt\n        /* \"#utility.yul\":4966:5022   */\n      iszero\n      tag_246\n      jumpi\n        /* \"#utility.yul\":5002:5020   */\n      tag_247\n      tag_180\n      jump\t// in\n    tag_247:\n        /* \"#utility.yul\":4966:5022   */\n    tag_246:\n        /* \"#utility.yul\":5040:5069   */\n      tag_248\n        /* \"#utility.yul\":5062:5068   */\n      dup3\n        /* \"#utility.yul\":5040:5069   */\n      tag_174\n      jump\t// in\n    tag_248:\n        /* \"#utility.yul\":5032:5069   */\n      swap1\n      pop\n        /* \"#utility.yul\":5124:5128   */\n      0x20\n        /* \"#utility.yul\":5118:5122   */\n      dup2\n        /* \"#utility.yul\":5114:5129   */\n      add\n        /* \"#utility.yul\":5106:5129   */\n      swap1\n      pop\n        /* \"#utility.yul\":4828:5136   */\n      swap2\n      swap1\n      pop\n      jump\t// out\n        /* \"#utility.yul\":5142:5296   */\n    tag_184:\n        /* \"#utility.yul\":5226:5232   */\n      dup3\n        /* \"#utility.yul\":5221:5224   */\n      dup2\n        /* \"#utility.yul\":5216:5219   */\n      dup4\n        /* \"#utility.yul\":5203:5233   */\n      calldatacopy\n        /* \"#utility.yul\":5288:5289   */\n      0x00\n        /* \"#utility.yul\":5279:5285   */\n      dup4\n        /* \"#utility.yul\":5274:5277   */\n      dup4\n        /* \"#utility.yul\":5270:5286   */\n      add\n        /* \"#utility.yul\":5263:5290   */\n      mstore\n        /* \"#utility.yul\":5142:5296   */\n      pop\n      pop\n      pop\n      jump\t// out\n        /* \"#utility.yul\":5302:5714   */\n    tag_185:\n        /* \"#utility.yul\":5380:5385   */\n      0x00\n        /* \"#utility.yul\":5405:5471   */\n      tag_251\n        /* \"#utility.yul\":5421:5470   */\n      tag_252\n        /* \"#utility.yul\":5463:5469   */\n      dup5\n        /* \"#utility.yul\":5421:5470   */\n      tag_183\n      jump\t// in\n    tag_252:\n        /* \"#utility.yul\":5405:5471   */\n      tag_182\n      jump\t// in\n    tag_251:\n        /* \"#utility.yul\":5396:5471   */\n      swap1\n      pop\n        /* \"#utility.yul\":5494:5500   */\n      dup3\n        /* \"#utility.yul\":5487:5492   */\n      dup2\n        /* \"#utility.yul\":5480:5501   */\n      mstore\n        /* \"#utility.yul\":5532:5536   */\n      0x20\n        /* \"#utility.yul\":5525:5530   */\n      dup2\n        /* \"#utility.yul\":5521:5537   */\n      add\n        /* \"#utility.yul\":5570:5573   */\n      dup5\n        /* \"#utility.yul\":5561:5567   */\n      dup5\n        /* \"#utility.yul\":5556:5559   */\n      dup5\n        /* \"#utility.yul\":5552:5568   */\n      add\n        /* \"#utility.yul\":5549:5574   */\n      gt\n        /* \"#utility.yul\":5546:5658   */\n      iszero\n      tag_253\n      jumpi\n        /* \"#utility.yul\":5577:5656   */\n      tag_254\n      tag_179\n      jump\t// in\n    tag_254:\n        /* \"#utility.yul\":5546:5658   */\n    tag_253:\n        /* \"#utility.yul\":5667:5708   */\n      tag_255\n        /* \"#utility.yul\":5701:5707   */\n      dup5\n        /* \"#utility.yul\":5696:5699   */\n      dup3\n        /* \"#utility.yul\":5691:5694   */\n      dup6\n        /* \"#utility.yul\":5667:5708   */\n      tag_184\n      jump\t// in\n    tag_255:\n        /* \"#utility.yul\":5386:5714   */\n      pop\n        /* \"#utility.yul\":5302:5714   */\n      swap4\n      swap3\n      pop\n      pop\n      pop\n      jump\t// out\n        /* \"#utility.yul\":5734:6074   */\n    tag_186:\n        /* \"#utility.yul\":5790:5795   */\n      0x00\n        /* \"#utility.yul\":5839:5842   */\n      dup3\n        /* \"#utility.yul\":5832:5836   */\n      0x1f\n        /* \"#utility.yul\":5824:5830   */\n      dup4\n        /* \"#utility.yul\":5820:5837   */\n      add\n        /* \"#utility.yul\":5816:5843   */\n      slt\n        /* \"#utility.yul\":5806:5928   */\n      tag_257\n      jumpi\n        /* \"#utility.yul\":5847:5926   */\n      tag_258\n      tag_178\n      jump\t// in\n    tag_258:\n        /* \"#utility.yul\":5806:5928   */\n    tag_257:\n        /* \"#utility.yul\":5964:5970   */\n      dup2\n        /* \"#utility.yul\":5951:5971   */\n      calldataload\n        /* \"#utility.yul\":5989:6068   */\n      tag_259\n        /* \"#utility.yul\":6064:6067   */\n      dup5\n        /* \"#utility.yul\":6056:6062   */\n      dup3\n        /* \"#utility.yul\":6049:6053   */\n      0x20\n        /* \"#utility.yul\":6041:6047   */\n      dup7\n        /* \"#utility.yul\":6037:6054   */\n      add\n        /* \"#utility.yul\":5989:6068   */\n      tag_185\n      jump\t// in\n    tag_259:\n        /* \"#utility.yul\":5980:6068   */\n      swap2\n      pop\n        /* \"#utility.yul\":5796:6074   */\n      pop\n        /* \"#utility.yul\":5734:6074   */\n      swap3\n      swap2\n      pop\n      pop\n      jump\t// out\n        /* \"#utility.yul\":6080:7059   */\n    tag_41:\n        /* \"#utility.yul\":6177:6183   */\n      0x00\n        /* \"#utility.yul\":6185:6191   */\n      dup1\n        /* \"#utility.yul\":6193:6199   */\n      0x00\n        /* \"#utility.yul\":6242:6244   */\n      0x60\n        /* \"#utility.yul\":6230:6239   */\n      dup5\n        /* \"#utility.yul\":6221:6228   */\n      dup7\n        /* \"#utility.yul\":6217:6240   */\n      sub\n        /* \"#utility.yul\":6213:6245   */\n      slt\n        /* \"#utility.yul\":6210:6329   */\n      iszero\n      tag_261\n      jumpi\n        /* \"#utility.yul\":6248:6327   */\n      tag_262\n      tag_162\n      jump\t// in\n    tag_262:\n        /* \"#utility.yul\":6210:6329   */\n    tag_261:\n        /* \"#utility.yul\":6396:6397   */\n      0x00\n        /* \"#utility.yul\":6385:6394   */\n      dup5\n        /* \"#utility.yul\":6381:6398   */\n      add\n        /* \"#utility.yul\":6368:6399   */\n      calldataload\n        /* \"#utility.yul\":6426:6444   */\n      0xffffffffffffffff\n        /* \"#utility.yul\":6418:6424   */\n      dup2\n        /* \"#utility.yul\":6415:6445   */\n      gt\n        /* \"#utility.yul\":6412:6529   */\n      iszero\n      tag_263\n      jumpi\n        /* \"#utility.yul\":6448:6527   */\n      tag_264\n      tag_163\n      jump\t// in\n    tag_264:\n        /* \"#utility.yul\":6412:6529   */\n    tag_263:\n        /* \"#utility.yul\":6553:6616   */\n      tag_265\n        /* \"#utility.yul\":6608:6615   */\n      dup7\n        /* \"#utility.yul\":6599:6605   */\n      dup3\n        /* \"#utility.yul\":6588:6597   */\n      dup8\n        /* \"#utility.yul\":6584:6606   */\n      add\n        /* \"#utility.yul\":6553:6616   */\n      tag_186\n      jump\t// in\n    tag_265:\n        /* \"#utility.yul\":6543:6616   */\n      swap4\n      pop\n        /* \"#utility.yul\":6339:6626   */\n      pop\n        /* \"#utility.yul\":6693:6695   */\n      0x20\n        /* \"#utility.yul\":6682:6691   */\n      dup5\n        /* \"#utility.yul\":6678:6696   */\n      add\n        /* \"#utility.yul\":6665:6697   */\n      calldataload\n        /* \"#utility.yul\":6724:6742   */\n      0xffffffffffffffff\n        /* \"#utility.yul\":6716:6722   */\n      dup2\n        /* \"#utility.yul\":6713:6743   */\n      gt\n        /* \"#utility.yul\":6710:6827   */\n      iszero\n      tag_266\n      jumpi\n        /* \"#utility.yul\":6746:6825   */\n      tag_267\n      tag_163\n      jump\t// in\n    tag_267:\n        /* \"#utility.yul\":6710:6827   */\n    tag_266:\n        /* \"#utility.yul\":6851:6914   */\n      tag_268\n        /* \"#utility.yul\":6906:6913   */\n      dup7\n        /* \"#utility.yul\":6897:6903   */\n      dup3\n        /* \"#utility.yul\":6886:6895   */\n      dup8\n        /* \"#utility.yul\":6882:6904   */\n      add\n        /* \"#utility.yul\":6851:6914   */\n      tag_186\n      jump\t// in\n    tag_268:\n        /* \"#utility.yul\":6841:6914   */\n      swap3\n      pop\n        /* \"#utility.yul\":6636:6924   */\n      pop\n        /* \"#utility.yul\":6963:6965   */\n      0x40\n        /* \"#utility.yul\":6989:7042   */\n      tag_269\n        /* \"#utility.yul\":7034:7041   */\n      dup7\n        /* \"#utility.yul\":7025:7031   */\n      dup3\n        /* \"#utility.yul\":7014:7023   */\n      dup8\n        /* \"#utility.yul\":7010:7032   */\n      add\n        /* \"#utility.yul\":6989:7042   */\n      tag_166\n      jump\t// in\n    tag_269:\n        /* \"#utility.yul\":6979:7042   */\n      swap2\n      pop\n        /* \"#utility.yul\":6934:7052   */\n      pop\n        /* \"#utility.yul\":6080:7059   */\n      swap3\n      pop\n      swap3\n      pop\n      swap3\n      jump\t// out\n        /* \"#utility.yul\":7065:7705   */\n    tag_48:\n        /* \"#utility.yul\":7258:7262   */\n      0x00\n        /* \"#utility.yul\":7296:7299   */\n      0xa0\n        /* \"#utility.yul\":7285:7294   */\n      dup3\n        /* \"#utility.yul\":7281:7300   */\n      add\n        /* \"#utility.yul\":7273:7300   */\n      swap1\n      pop\n        /* \"#utility.yul\":7310:7381   */\n      tag_271\n        /* \"#utility.yul\":7378:7379   */\n      0x00\n        /* \"#utility.yul\":7367:7376   */\n      dup4\n        /* \"#utility.yul\":7363:7380   */\n      add\n        /* \"#utility.yul\":7354:7360   */\n      dup9\n        /* \"#utility.yul\":7310:7381   */\n      tag_170\n      jump\t// in\n    tag_271:\n        /* \"#utility.yul\":7391:7457   */\n      tag_272\n        /* \"#utility.yul\":7453:7455   */\n      0x20\n        /* \"#utility.yul\":7442:7451   */\n      dup4\n        /* \"#utility.yul\":7438:7456   */\n      add\n        /* \"#utility.yul\":7429:7435   */\n      dup8\n        /* \"#utility.yul\":7391:7457   */\n      tag_177\n      jump\t// in\n    tag_272:\n        /* \"#utility.yul\":7467:7539   */\n      tag_273\n        /* \"#utility.yul\":7535:7537   */\n      0x40\n        /* \"#utility.yul\":7524:7533   */\n      dup4\n        /* \"#utility.yul\":7520:7538   */\n      add\n        /* \"#utility.yul\":7511:7517   */\n      dup7\n        /* \"#utility.yul\":7467:7539   */\n      tag_170\n      jump\t// in\n    tag_273:\n        /* \"#utility.yul\":7549:7621   */\n      tag_274\n        /* \"#utility.yul\":7617:7619   */\n      0x60\n        /* \"#utility.yul\":7606:7615   */\n      dup4\n        /* \"#utility.yul\":7602:7620   */\n      add\n        /* \"#utility.yul\":7593:7599   */\n      dup6\n        /* \"#utility.yul\":7549:7621   */\n      tag_169\n      jump\t// in\n    tag_274:\n        /* \"#utility.yul\":7631:7698   */\n      tag_275\n        /* \"#utility.yul\":7693:7696   */\n      0x80\n        /* \"#utility.yul\":7682:7691   */\n      dup4\n        /* \"#utility.yul\":7678:7697   */\n      add\n        /* \"#utility.yul\":7669:7675   */\n      dup5\n        /* \"#utility.yul\":7631:7698   */\n      tag_177\n      jump\t// in\n    tag_275:\n        /* \"#utility.yul\":7065:7705   */\n      swap7\n      swap6\n      pop\n      pop\n      pop\n      pop\n      pop\n      pop\n      jump\t// out\n        /* \"#utility.yul\":7711:7891   */\n    tag_68:\n        /* \"#utility.yul\":7759:7836   */\n      0x4e487b7100000000000000000000000000000000000000000000000000000000\n        /* \"#utility.yul\":7756:7757   */\n      0x00\n        /* \"#utility.yul\":7749:7837   */\n      mstore\n        /* \"#utility.yul\":7856:7860   */\n      0x32\n        /* \"#utility.yul\":7853:7854   */\n      0x04\n        /* \"#utility.yul\":7846:7861   */\n      mstore\n        /* \"#utility.yul\":7880:7884   */\n      0x24\n        /* \"#utility.yul\":7877:7878   */\n      0x00\n        /* \"#utility.yul\":7870:7885   */\n      revert\n        /* \"#utility.yul\":7897:8077   */\n    tag_187:\n        /* \"#utility.yul\":7945:8022   */\n      0x4e487b7100000000000000000000000000000000000000000000000000000000\n        /* \"#utility.yul\":7942:7943   */\n      0x00\n        /* \"#utility.yul\":7935:8023   */\n      mstore\n        /* \"#utility.yul\":8042:8046   */\n      0x11\n        /* \"#utility.yul\":8039:8040   */\n      0x04\n        /* \"#utility.yul\":8032:8047   */\n      mstore\n        /* \"#utility.yul\":8066:8070   */\n      0x24\n        /* \"#utility.yul\":8063:8064   */\n      0x00\n        /* \"#utility.yul\":8056:8071   */\n      revert\n        /* \"#utility.yul\":8083:8388   */\n    tag_74:\n        /* \"#utility.yul\":8123:8126   */\n      0x00\n        /* \"#utility.yul\":8142:8162   */\n      tag_279\n        /* \"#utility.yul\":8160:8161   */\n      dup3\n        /* \"#utility.yul\":8142:8162   */\n      tag_164\n      jump\t// in\n    tag_279:\n        /* \"#utility.yul\":8137:8162   */\n      swap2\n      pop\n        /* \"#utility.yul\":8176:8196   */\n      tag_280\n        /* \"#utility.yul\":8194:8195   */\n      dup4\n        /* \"#utility.yul\":8176:8196   */\n      tag_164\n      jump\t// in\n    tag_280:\n        /* \"#utility.yul\":8171:8196   */\n      swap3\n      pop\n        /* \"#utility.yul\":8330:8331   */\n      dup3\n        /* \"#utility.yul\":8262:8328   */\n      0xffffffffffffffffffffffffffffffffffffffffffffffffffffffffffffffff\n        /* \"#utility.yul\":8258:8332   */\n      sub\n        /* \"#utility.yul\":8255:8256   */\n      dup3\n        /* \"#utility.yul\":8252:8333   */\n      gt\n        /* \"#utility.yul\":8249:8356   */\n      iszero\n      tag_281\n      jumpi\n        /* \"#utility.yul\":8336:8354   */\n      tag_282\n      tag_187\n      jump\t// in\n    tag_282:\n        /* \"#utility.yul\":8249:8356   */\n    tag_281:\n        /* \"#utility.yul\":8380:8381   */\n      dup3\n        /* \"#utility.yul\":8377:8378   */\n      dup3\n        /* \"#utility.yul\":8373:8382   */\n      add\n        /* \"#utility.yul\":8366:8382   */\n      swap1\n      pop\n        /* \"#utility.yul\":8083:8388   */\n      swap3\n      swap2\n      pop\n      pop\n      jump\t// out\n        /* \"#utility.yul\":8394:8574   */\n    tag_188:\n        /* \"#utility.yul\":8442:8519   */\n      0x4e487b7100000000000000000000000000000000000000000000000000000000\n        /* \"#utility.yul\":8439:8440   */\n      0x00\n        /* \"#utility.yul\":8432:8520   */\n      mstore\n        /* \"#utility.yul\":8539:8543   */\n      0x22\n        /* \"#utility.yul\":8536:8537   */\n      0x04\n        /* \"#utility.yul\":8529:8544   */\n      mstore\n        /* \"#utility.yul\":8563:8567   */\n      0x24\n        /* \"#utility.yul\":8560:8561   */\n      0x00\n        /* \"#utility.yul\":8553:8568   */\n      revert\n        /* \"#utility.yul\":8580:8900   */\n    tag_93:\n        /* \"#utility.yul\":8624:8630   */\n      0x00\n        /* \"#utility.yul\":8661:8662   */\n      0x02\n        /* \"#utility.yul\":8655:8659   */\n      dup3\n        /* \"#utility.yul\":8651:8663   */\n      div\n        /* \"#utility.yul\":8641:8663   */\n      swap1\n      pop\n        /* \"#utility.yul\":8708:8709   */\n      0x01\n        /* \"#utility.yul\":8702:8706   */\n      dup3\n        /* \"#utility.yul\":8698:8710   */\n      and\n        /* \"#utility.yul\":8729:8747   */\n      dup1\n        /* \"#utility.yul\":8719:8800   */\n      tag_285\n      jumpi\n        /* \"#utility.yul\":8785:8789   */\n      0x7f\n        /* \"#utility.yul\":8777:8783   */\n      dup3\n        /* \"#utility.yul\":8773:8790   */\n      and\n        /* \"#utility.yul\":8763:8790   */\n      swap2\n      pop\n        /* \"#utility.yul\":8719:8800   */\n    tag_285:\n        /* \"#utility.yul\":8847:8849   */\n      0x20\n        /* \"#utility.yul\":8839:8845   */\n      dup3\n        /* \"#utility.yul\":8836:8850   */\n      lt\n        /* \"#utility.yul\":8816:8834   */\n      dup2\n        /* \"#utility.yul\":8813:8851   */\n      eq\n        /* \"#utility.yul\":8810:8894   */\n      iszero\n      tag_286\n      jumpi\n        /* \"#utility.yul\":8866:8884   */\n      tag_287\n      tag_188\n      jump\t// in\n    tag_287:\n        /* \"#utility.yul\":8810:8894   */\n    tag_286:\n        /* \"#utility.yul\":8631:8900   */\n      pop\n        /* \"#utility.yul\":8580:8900   */\n      swap2\n      swap1\n      pop\n      jump\t// out\n\n    auxdata: 0xa2646970667358221220e2b81097740d93e58b27b1368341057d55fd18e77f80ae92e3bde429ab170db664736f6c63430008090033\n}\n","bytecode":{"linkReferences":{},"object":"60806040523480156200001157600080fd5b506040516200153438038062001534833981810160405281019062000037919062000111565b80600460006101000a81548173ffffffffffffffffffffffffffffffffffffffff021916908373ffffffffffffffffffffffffffffffffffffffff1602179055506001600260006101000a81548160ff021916908315150217905550655af3107a40006003819055505062000143565b600080fd5b600073ffffffffffffffffffffffffffffffffffffffff82169050919050565b6000620000d982620000ac565b9050919050565b620000eb81620000cc565b8114620000f757600080fd5b50565b6000815190506200010b81620000e0565b92915050565b6000602082840312156200012a5762000129620000a7565b5b60006200013a84828501620000fa565b91505092915050565b6113e180620001536000396000f3fe60806040526004361061009c5760003560e01c80637b15f1b6116100645780637b15f1b61461017c578063c22c4f43146101a5578063c594e5ec146101e6578063d8ea026214610202578063dd36ff271461022b578063df1a68ce146102475761009c565b806303ff5c99146100a157806308551a53146100bd5780633672404e146100e8578063437661da146101135780634c3912e71461013c575b600080fd5b6100bb60048036038101906100b69190610ec9565b610272565b005b3480156100c957600080fd5b506100d26104e8565b6040516100df9190610f37565b60405180910390f35b3480156100f457600080fd5b506100fd61050e565b60405161010a9190610f61565b60405180910390f35b34801561011f57600080fd5b5061013a60048036038101906101359190610ec9565b61051b565b005b34801561014857600080fd5b50610163600480360381019061015e9190610ec9565b6105be565b6040516101739493929190611030565b60405180910390f35b34801561018857600080fd5b506101a3600480360381019061019e91906111b8565b61071b565b005b3480156101b157600080fd5b506101cc60048036038101906101c79190610ec9565b6107f6565b6040516101dd959493929190611243565b60405180910390f35b61020060048036038101906101fb9190610ec9565b610876565b005b34801561020e57600080fd5b5061022960048036038101906102249190610ec9565b6109e8565b005b61024560048036038101906102409190610ec9565b610b58565b005b34801561025357600080fd5b5061025c610dd0565b6040516102699190610f61565b60405180910390f35b600460009054906101000a900473ffffffffffffffffffffffffffffffffffffffff1673ffffffffffffffffffffffffffffffffffffffff163373ffffffffffffffffffffffffffffffffffffffff16146102cc57600080fd5b6000600182815481106102e2576102e1611296565b5b9060005260206000209060040201905060008082600001548154811061030b5761030a611296565b5b9060005260206000209060040201905060018260010160006101000a81548160ff02191690831515021790555060018160030160006101000a81548160ff02191690831515021790555060018260030160146101000a81548160ff021916908315150217905550610708826002015461038491906112f4565b421015610468578160030160009054906101000a900473ffffffffffffffffffffffffffffffffffffffff1673ffffffffffffffffffffffffffffffffffffffff166108fc82600201549081150290604051600060405180830381858888f193505050501580156103f9573d6000803e3d6000fd5b50600460009054906101000a900473ffffffffffffffffffffffffffffffffffffffff1673ffffffffffffffffffffffffffffffffffffffff166108fc349081150290604051600060405180830381858888f19350505050158015610462573d6000803e3d6000fd5b506104e3565b8160030160009054906101000a900473ffffffffffffffffffffffffffffffffffffffff1673ffffffffffffffffffffffffffffffffffffffff166108fc3483600201546104b691906112f4565b9081150290604051600060405180830381858888f193505050501580156104e1573d6000803e3d6000fd5b505b505050565b600460009054906101000a900473ffffffffffffffffffffffffffffffffffffffff1681565b6000600180549050905090565b60006001828154811061053157610530611296565b5b906000526020600020906004020190503373ffffffffffffffffffffffffffffffffffffffff168160030160009054906101000a900473ffffffffffffffffffffffffffffffffffffffff1673ffffffffffffffffffffffffffffffffffffffff161461059d57600080fd5b60018160030160146101000a81548160ff0219169083151502179055505050565b600081815481106105ce57600080fd5b90600052602060002090600402016000915090508060000180546105f190611379565b80601f016020809104026020016040519081016040528092919081815260200182805461061d90611379565b801561066a5780601f1061063f5761010080835404028352916020019161066a565b820191906000526020600020905b81548152906001019060200180831161064d57829003601f168201915b50505050509080600101805461067f90611379565b80601f01602080910402602001604051908101604052809291908181526020018280546106ab90611379565b80156106f85780601f106106cd576101008083540402835291602001916106f8565b820191906000526020600020905b8154815290600101906020018083116106db57829003601f168201915b5050505050908060020154908060030160009054906101000a900460ff16905084565b600460009054906101000a900473ffffffffffffffffffffffffffffffffffffffff1673ffffffffffffffffffffffffffffffffffffffff163373ffffffffffffffffffffffffffffffffffffffff161461077557600080fd5b6000806001816001815401808255809150500390600052602060002090600402019050838160000190805190602001906107b0929190610ddc565b50828160010190805190602001906107c9929190610ddc565b5081816002018190555060018160030160006101000a81548160ff02191690831515021790555050505050565b6001818154811061080657600080fd5b90600052602060002090600402016000915090508060000154908060010160009054906101000a900460ff16908060020154908060030160009054906101000a900473ffffffffffffffffffffffffffffffffffffffff16908060030160149054906101000a900460ff16905085565b60011515600260009054906101000a900460ff1615151461089657600080fd5b600060018081600181540180825580915050039060005260206000209060040201905060008083815481106108ce576108cd611296565b5b90600052602060002090600402019050806002015434146108ee57600080fd5b428260020181905550828260000181905550338260030160006101000a81548173ffffffffffffffffffffffffffffffffffffffff021916908373ffffffffffffffffffffffffffffffffffffffff16021790555060008260010160006101000a81548160ff02191690831515021790555060008160030160006101000a81548160ff021916908315150217905550600180549050600560003373ffffffffffffffffffffffffffffffffffffffff1673ffffffffffffffffffffffffffffffffffffffff1681526020019081526020016000208190555060008260030160146101000a81548160ff021916908315150217905550505050565b600460009054906101000a900473ffffffffffffffffffffffffffffffffffffffff1673ffffffffffffffffffffffffffffffffffffffff163373ffffffffffffffffffffffffffffffffffffffff1614610a4257600080fd5b600060018281548110610a5857610a57611296565b5b906000526020600020906004020190508060030160149054906101000a900460ff16610a8357600080fd5b60018160010160006101000a81548160ff021916908315150217905550600080826000015481548110610ab957610ab8611296565b5b90600052602060002090600402019050600460009054906101000a900473ffffffffffffffffffffffffffffffffffffffff1673ffffffffffffffffffffffffffffffffffffffff166108fc82600201549081150290604051600060405180830381858888f19350505050158015610b35573d6000803e3d6000fd5b5060018160030160006101000a81548160ff021916908315150217905550505050565b600060018281548110610b6e57610b6d611296565b5b90600052602060002090600402019050600080826000015481548110610b9757610b96611296565b5b906000526020600020906004020190508160030160009054906101000a900473ffffffffffffffffffffffffffffffffffffffff1673ffffffffffffffffffffffffffffffffffffffff163373ffffffffffffffffffffffffffffffffffffffff1614610c0357600080fd5b60018260010160006101000a81548160ff02191690831515021790555060018160030160006101000a81548160ff02191690831515021790555060018260030160146101000a81548160ff0219169083151502179055506107088260020154610c6c91906112f4565b421015610cf2578160030160009054906101000a900473ffffffffffffffffffffffffffffffffffffffff1673ffffffffffffffffffffffffffffffffffffffff166108fc348360020154610cc191906112f4565b9081150290604051600060405180830381858888f19350505050158015610cec573d6000803e3d6000fd5b50610dcb565b600460009054906101000a900473ffffffffffffffffffffffffffffffffffffffff1673ffffffffffffffffffffffffffffffffffffffff166108fc349081150290604051600060405180830381858888f19350505050158015610d5a573d6000803e3d6000fd5b508160030160009054906101000a900473ffffffffffffffffffffffffffffffffffffffff1673ffffffffffffffffffffffffffffffffffffffff166108fc82600201549081150290604051600060405180830381858888f19350505050158015610dc9573d6000803e3d6000fd5b505b505050565b60008080549050905090565b828054610de890611379565b90600052602060002090601f016020900481019282610e0a5760008555610e51565b82601f10610e2357805160ff1916838001178555610e51565b82800160010185558215610e51579182015b82811115610e50578251825591602001919060010190610e35565b5b509050610e5e9190610e62565b5090565b5b80821115610e7b576000816000905550600101610e63565b5090565b6000604051905090565b600080fd5b600080fd5b6000819050919050565b610ea681610e93565b8114610eb157600080fd5b50565b600081359050610ec381610e9d565b92915050565b600060208284031215610edf57610ede610e89565b5b6000610eed84828501610eb4565b91505092915050565b600073ffffffffffffffffffffffffffffffffffffffff82169050919050565b6000610f2182610ef6565b9050919050565b610f3181610f16565b82525050565b6000602082019050610f4c6000830184610f28565b92915050565b610f5b81610e93565b82525050565b6000602082019050610f766000830184610f52565b92915050565b600081519050919050565b600082825260208201905092915050565b60005b83811015610fb6578082015181840152602081019050610f9b565b83811115610fc5576000848401525b50505050565b6000601f19601f8301169050919050565b6000610fe782610f7c565b610ff18185610f87565b9350611001818560208601610f98565b61100a81610fcb565b840191505092915050565b60008115159050919050565b61102a81611015565b82525050565b6000608082019050818103600083015261104a8187610fdc565b9050818103602083015261105e8186610fdc565b905061106d6040830185610f52565b61107a6060830184611021565b95945050505050565b600080fd5b600080fd5b7f4e487b7100000000000000000000000000000000000000000000000000000000600052604160045260246000fd5b6110c582610fcb565b810181811067ffffffffffffffff821117156110e4576110e361108d565b5b80604052505050565b60006110f7610e7f565b905061110382826110bc565b919050565b600067ffffffffffffffff8211156111235761112261108d565b5b61112c82610fcb565b9050602081019050919050565b82818337600083830152505050565b600061115b61115684611108565b6110ed565b90508281526020810184848401111561117757611176611088565b5b611182848285611139565b509392505050565b600082601f83011261119f5761119e611083565b5b81356111af848260208601611148565b91505092915050565b6000806000606084860312156111d1576111d0610e89565b5b600084013567ffffffffffffffff8111156111ef576111ee610e8e565b5b6111fb8682870161118a565b935050602084013567ffffffffffffffff81111561121c5761121b610e8e565b5b6112288682870161118a565b925050604061123986828701610eb4565b9150509250925092565b600060a0820190506112586000830188610f52565b6112656020830187611021565b6112726040830186610f52565b61127f6060830185610f28565b61128c6080830184611021565b9695505050505050565b7f4e487b7100000000000000000000000000000000000000000000000000000000600052603260045260246000fd5b7f4e487b7100000000000000000000000000000000000000000000000000000000600052601160045260246000fd5b60006112ff82610e93565b915061130a83610e93565b9250827fffffffffffffffffffffffffffffffffffffffffffffffffffffffffffffffff0382111561133f5761133e6112c5565b5b828201905092915050565b7f4e487b7100000000000000000000000000000000000000000000000000000000600052602260045260246000fd5b6000600282049050600182168061139157607f821691505b602082108114156113a5576113a461134a565b5b5091905056fea2646970667358221220e2b81097740d93e58b27b1368341057d55fd18e77f80ae92e3bde429ab170db664736f6c63430008090033","opcodes":"PUSH1 0x80 PUSH1 0x40 MSTORE CALLVALUE DUP1 ISZERO PUSH3 0x11 JUMPI PUSH1 0x0 DUP1 REVERT JUMPDEST POP PUSH1 0x40 MLOAD PUSH3 0x1534 CODESIZE SUB DUP1 PUSH3 0x1534 DUP4 CODECOPY DUP2 DUP2 ADD PUSH1 0x40 MSTORE DUP2 ADD SWAP1 PUSH3 0x37 SWAP2 SWAP1 PUSH3 0x111 JUMP JUMPDEST DUP1 PUSH1 0x4 PUSH1 0x0 PUSH2 0x100 EXP DUP2 SLOAD DUP2 PUSH20 0xFFFFFFFFFFFFFFFFFFFFFFFFFFFFFFFFFFFFFFFF MUL NOT AND SWAP1 DUP4 PUSH20 0xFFFFFFFFFFFFFFFFFFFFFFFFFFFFFFFFFFFFFFFF AND MUL OR SWAP1 SSTORE POP PUSH1 0x1 PUSH1 0x2 PUSH1 0x0 PUSH2 0x100 EXP DUP2 SLOAD DUP2 PUSH1 0xFF MUL NOT AND SWAP1 DUP4 ISZERO ISZERO MUL OR SWAP1 SSTORE POP PUSH6 0x5AF3107A4000 PUSH1 0x3 DUP2 SWAP1 SSTORE POP POP PUSH3 0x143 JUMP JUMPDEST PUSH1 0x0 DUP1 REVERT JUMPDEST PUSH1 0x0 PUSH20 0xFFFFFFFFFFFFFFFFFFFFFFFFFFFFFFFFFFFFFFFF DUP3 AND SWAP1 POP SWAP2 SWAP1 POP JUMP JUMPDEST PUSH1 0x0 PUSH3 0xD9 DUP3 PUSH3 0xAC JUMP JUMPDEST SWAP1 POP SWAP2 SWAP1 POP JUMP JUMPDEST PUSH3 0xEB DUP2 PUSH3 0xCC JUMP JUMPDEST DUP2 EQ PUSH3 0xF7 JUMPI PUSH1 0x0 DUP1 REVERT JUMPDEST POP JUMP JUMPDEST PUSH1 0x0 DUP2 MLOAD SWAP1 POP PUSH3 0x10B DUP2 PUSH3 0xE0 JUMP JUMPDEST SWAP3 SWAP2 POP POP JUMP JUMPDEST PUSH1 0x0 PUSH1 0x20 DUP3 DUP5 SUB SLT ISZERO PUSH3 0x12A JUMPI PUSH3 0x129 PUSH3 0xA7 JUMP JUMPDEST JUMPDEST PUSH1 0x0 PUSH3 0x13A DUP5 DUP3 DUP6 ADD PUSH3 0xFA JUMP JUMPDEST SWAP2 POP POP SWAP3 SWAP2 POP POP JUMP JUMPDEST PUSH2 0x13E1 DUP1 PUSH3 0x153 PUSH1 0x0 CODECOPY PUSH1 0x0 RETURN INVALID PUSH1 0x80 PUSH1 0x40 MSTORE PUSH1 0x4 CALLDATASIZE LT PUSH2 0x9C JUMPI PUSH1 0x0 CALLDATALOAD PUSH1 0xE0 SHR DUP1 PUSH4 0x7B15F1B6 GT PUSH2 0x64 JUMPI DUP1 PUSH4 0x7B15F1B6 EQ PUSH2 0x17C JUMPI DUP1 PUSH4 0xC22C4F43 EQ PUSH2 0x1A5 JUMPI DUP1 PUSH4 0xC594E5EC EQ PUSH2 0x1E6 JUMPI DUP1 PUSH4 0xD8EA0262 EQ PUSH2 0x202 JUMPI DUP1 PUSH4 0xDD36FF27 EQ PUSH2 0x22B JUMPI DUP1 PUSH4 0xDF1A68CE EQ PUSH2 0x247 JUMPI PUSH2 0x9C JUMP JUMPDEST DUP1 PUSH4 0x3FF5C99 EQ PUSH2 0xA1 JUMPI DUP1 PUSH4 0x8551A53 EQ PUSH2 0xBD JUMPI DUP1 PUSH4 0x3672404E EQ PUSH2 0xE8 JUMPI DUP1 PUSH4 0x437661DA EQ PUSH2 0x113 JUMPI DUP1 PUSH4 0x4C3912E7 EQ PUSH2 0x13C JUMPI JUMPDEST PUSH1 0x0 DUP1 REVERT JUMPDEST PUSH2 0xBB PUSH1 0x4 DUP1 CALLDATASIZE SUB DUP2 ADD SWAP1 PUSH2 0xB6 SWAP2 SWAP1 PUSH2 0xEC9 JUMP JUMPDEST PUSH2 0x272 JUMP JUMPDEST STOP JUMPDEST CALLVALUE DUP1 ISZERO PUSH2 0xC9 JUMPI PUSH1 0x0 DUP1 REVERT JUMPDEST POP PUSH2 0xD2 PUSH2 0x4E8 JUMP JUMPDEST PUSH1 0x40 MLOAD PUSH2 0xDF SWAP2 SWAP1 PUSH2 0xF37 JUMP JUMPDEST PUSH1 0x40 MLOAD DUP1 SWAP2 SUB SWAP1 RETURN JUMPDEST CALLVALUE DUP1 ISZERO PUSH2 0xF4 JUMPI PUSH1 0x0 DUP1 REVERT JUMPDEST POP PUSH2 0xFD PUSH2 0x50E JUMP JUMPDEST PUSH1 0x40 MLOAD PUSH2 0x10A SWAP2 SWAP1 PUSH2 0xF61 JUMP JUMPDEST PUSH1 0x40 MLOAD DUP1 SWAP2 SUB SWAP1 RETURN JUMPDEST CALLVALUE DUP1 ISZERO PUSH2 0x11F JUMPI PUSH1 0x0 DUP1 REVERT JUMPDEST POP PUSH2 0x13A PUSH1 0x4 DUP1 CALLDATASIZE SUB DUP2 ADD SWAP1 PUSH2 0x135 SWAP2 SWAP1 PUSH2 0xEC9 JUMP JUMPDEST PUSH2 0x51B JUMP JUMPDEST STOP JUMPDEST CALLVALUE DUP1 ISZERO PUSH2 0x148 JUMPI PUSH1 0x0 DUP1 REVERT JUMPDEST POP PUSH2 0x163 PUSH1 0x4 DUP1 CALLDATASIZE SUB DUP2 ADD SWAP1 PUSH2 0x15E SWAP2 SWAP1 PUSH2 0xEC9 JUMP JUMPDEST PUSH2 0x5BE JUMP JUMPDEST PUSH1 0x40 MLOAD PUSH2 0x173 SWAP5 SWAP4 SWAP3 SWAP2 SWAP1 PUSH2 0x1030 JUMP JUMPDEST PUSH1 0x40 MLOAD DUP1 SWAP2 SUB SWAP1 RETURN JUMPDEST CALLVALUE DUP1 ISZERO PUSH2 0x188 JUMPI PUSH1 0x0 DUP1 REVERT JUMPDEST POP PUSH2 0x1A3 PUSH1 0x4 DUP1 CALLDATASIZE SUB DUP2 ADD SWAP1 PUSH2 0x19E SWAP2 SWAP1 PUSH2 0x11B8 JUMP JUMPDEST PUSH2 0x71B JUMP JUMPDEST STOP JUMPDEST CALLVALUE DUP1 ISZERO PUSH2 0x1B1 JUMPI PUSH1 0x0 DUP1 REVERT JUMPDEST POP PUSH2 0x1CC PUSH1 0x4 DUP1 CALLDATASIZE SUB DUP2 ADD SWAP1 PUSH2 0x1C7 SWAP2 SWAP1 PUSH2 0xEC9 JUMP JUMPDEST PUSH2 0x7F6 JUMP JUMPDEST PUSH1 0x40 MLOAD PUSH2 0x1DD SWAP6 SWAP5 SWAP4 SWAP3 SWAP2 SWAP1 PUSH2 0x1243 JUMP JUMPDEST PUSH1 0x40 MLOAD DUP1 SWAP2 SUB SWAP1 RETURN JUMPDEST PUSH2 0x200 PUSH1 0x4 DUP1 CALLDATASIZE SUB DUP2 ADD SWAP1 PUSH2 0x1FB SWAP2 SWAP1 PUSH2 0xEC9 JUMP JUMPDEST PUSH2 0x876 JUMP JUMPDEST STOP JUMPDEST CALLVALUE DUP1 ISZERO PUSH2 0x20E JUMPI PUSH1 0x0 DUP1 REVERT JUMPDEST POP PUSH2 0x229 PUSH1 0x4 DUP1 CALLDATASIZE SUB DUP2 ADD SWAP1 PUSH2 0x224 SWAP2 SWAP1 PUSH2 0xEC9 JUMP JUMPDEST PUSH2 0x9E8 JUMP JUMPDEST STOP JUMPDEST PUSH2 0x245 PUSH1 0x4 DUP1 CALLDATASIZE SUB DUP2 ADD SWAP1 PUSH2 0x240 SWAP2 SWAP1 PUSH2 0xEC9 JUMP JUMPDEST PUSH2 0xB58 JUMP JUMPDEST STOP JUMPDEST CALLVALUE DUP1 ISZERO PUSH2 0x253 JUMPI PUSH1 0x0 DUP1 REVERT JUMPDEST POP PUSH2 0x25C PUSH2 0xDD0 JUMP JUMPDEST PUSH1 0x40 MLOAD PUSH2 0x269 SWAP2 SWAP1 PUSH2 0xF61 JUMP JUMPDEST PUSH1 0x40 MLOAD DUP1 SWAP2 SUB SWAP1 RETURN JUMPDEST PUSH1 0x4 PUSH1 0x0 SWAP1 SLOAD SWAP1 PUSH2 0x100 EXP SWAP1 DIV PUSH20 0xFFFFFFFFFFFFFFFFFFFFFFFFFFFFFFFFFFFFFFFF AND PUSH20 0xFFFFFFFFFFFFFFFFFFFFFFFFFFFFFFFFFFFFFFFF AND CALLER PUSH20 0xFFFFFFFFFFFFFFFFFFFFFFFFFFFFFFFFFFFFFFFF AND EQ PUSH2 0x2CC JUMPI PUSH1 0x0 DUP1 REVERT JUMPDEST PUSH1 0x0 PUSH1 0x1 DUP3 DUP2 SLOAD DUP2 LT PUSH2 0x2E2 JUMPI PUSH2 0x2E1 PUSH2 0x1296 JUMP JUMPDEST JUMPDEST SWAP1 PUSH1 0x0 MSTORE PUSH1 0x20 PUSH1 0x0 KECCAK256 SWAP1 PUSH1 0x4 MUL ADD SWAP1 POP PUSH1 0x0 DUP1 DUP3 PUSH1 0x0 ADD SLOAD DUP2 SLOAD DUP2 LT PUSH2 0x30B JUMPI PUSH2 0x30A PUSH2 0x1296 JUMP JUMPDEST JUMPDEST SWAP1 PUSH1 0x0 MSTORE PUSH1 0x20 PUSH1 0x0 KECCAK256 SWAP1 PUSH1 0x4 MUL ADD SWAP1 POP PUSH1 0x1 DUP3 PUSH1 0x1 ADD PUSH1 0x0 PUSH2 0x100 EXP DUP2 SLOAD DUP2 PUSH1 0xFF MUL NOT AND SWAP1 DUP4 ISZERO ISZERO MUL OR SWAP1 SSTORE POP PUSH1 0x1 DUP2 PUSH1 0x3 ADD PUSH1 0x0 PUSH2 0x100 EXP DUP2 SLOAD DUP2 PUSH1 0xFF MUL NOT AND SWAP1 DUP4 ISZERO ISZERO MUL OR SWAP1 SSTORE POP PUSH1 0x1 DUP3 PUSH1 0x3 ADD PUSH1 0x14 PUSH2 0x100 EXP DUP2 SLOAD DUP2 PUSH1 0xFF MUL NOT AND SWAP1 DUP4 ISZERO ISZERO MUL OR SWAP1 SSTORE POP PUSH2 0x708 DUP3 PUSH1 0x2 ADD SLOAD PUSH2 0x384 SWAP2 SWAP1 PUSH2 0x12F4 JUMP JUMPDEST TIMESTAMP LT ISZERO PUSH2 0x468 JUMPI DUP2 PUSH1 0x3 ADD PUSH1 0x0 SWAP1 SLOAD SWAP1 PUSH2 0x100 EXP SWAP1 DIV PUSH20 0xFFFFFFFFFFFFFFFFFFFFFFFFFFFFFFFFFFFFFFFF AND PUSH20 0xFFFFFFFFFFFFFFFFFFFFFFFFFFFFFFFFFFFFFFFF AND PUSH2 0x8FC DUP3 PUSH1 0x2 ADD SLOAD SWAP1 DUP2 ISZERO MUL SWAP1 PUSH1 0x40 MLOAD PUSH1 0x0 PUSH1 0x40 MLOAD DUP1 DUP4 SUB DUP2 DUP6 DUP9 DUP9 CALL SWAP4 POP POP POP POP ISZERO DUP1 ISZERO PUSH2 0x3F9 JUMPI RETURNDATASIZE PUSH1 0x0 DUP1 RETURNDATACOPY RETURNDATASIZE PUSH1 0x0 REVERT JUMPDEST POP PUSH1 0x4 PUSH1 0x0 SWAP1 SLOAD SWAP1 PUSH2 0x100 EXP SWAP1 DIV PUSH20 0xFFFFFFFFFFFFFFFFFFFFFFFFFFFFFFFFFFFFFFFF AND PUSH20 0xFFFFFFFFFFFFFFFFFFFFFFFFFFFFFFFFFFFFFFFF AND PUSH2 0x8FC CALLVALUE SWAP1 DUP2 ISZERO MUL SWAP1 PUSH1 0x40 MLOAD PUSH1 0x0 PUSH1 0x40 MLOAD DUP1 DUP4 SUB DUP2 DUP6 DUP9 DUP9 CALL SWAP4 POP POP POP POP ISZERO DUP1 ISZERO PUSH2 0x462 JUMPI RETURNDATASIZE PUSH1 0x0 DUP1 RETURNDATACOPY RETURNDATASIZE PUSH1 0x0 REVERT JUMPDEST POP PUSH2 0x4E3 JUMP JUMPDEST DUP2 PUSH1 0x3 ADD PUSH1 0x0 SWAP1 SLOAD SWAP1 PUSH2 0x100 EXP SWAP1 DIV PUSH20 0xFFFFFFFFFFFFFFFFFFFFFFFFFFFFFFFFFFFFFFFF AND PUSH20 0xFFFFFFFFFFFFFFFFFFFFFFFFFFFFFFFFFFFFFFFF AND PUSH2 0x8FC CALLVALUE DUP4 PUSH1 0x2 ADD SLOAD PUSH2 0x4B6 SWAP2 SWAP1 PUSH2 0x12F4 JUMP JUMPDEST SWAP1 DUP2 ISZERO MUL SWAP1 PUSH1 0x40 MLOAD PUSH1 0x0 PUSH1 0x40 MLOAD DUP1 DUP4 SUB DUP2 DUP6 DUP9 DUP9 CALL SWAP4 POP POP POP POP ISZERO DUP1 ISZERO PUSH2 0x4E1 JUMPI RETURNDATASIZE PUSH1 0x0 DUP1 RETURNDATACOPY RETURNDATASIZE PUSH1 0x0 REVERT JUMPDEST POP JUMPDEST POP POP POP JUMP JUMPDEST PUSH1 0x4 PUSH1 0x0 SWAP1 SLOAD SWAP1 PUSH2 0x100 EXP SWAP1 DIV PUSH20 0xFFFFFFFFFFFFFFFFFFFFFFFFFFFFFFFFFFFFFFFF AND DUP2 JUMP JUMPDEST PUSH1 0x0 PUSH1 0x1 DUP1 SLOAD SWAP1 POP SWAP1 POP SWAP1 JUMP JUMPDEST PUSH1 0x0 PUSH1 0x1 DUP3 DUP2 SLOAD DUP2 LT PUSH2 0x531 JUMPI PUSH2 0x530 PUSH2 0x1296 JUMP JUMPDEST JUMPDEST SWAP1 PUSH1 0x0 MSTORE PUSH1 0x20 PUSH1 0x0 KECCAK256 SWAP1 PUSH1 0x4 MUL ADD SWAP1 POP CALLER PUSH20 0xFFFFFFFFFFFFFFFFFFFFFFFFFFFFFFFFFFFFFFFF AND DUP2 PUSH1 0x3 ADD PUSH1 0x0 SWAP1 SLOAD SWAP1 PUSH2 0x100 EXP SWAP1 DIV PUSH20 0xFFFFFFFFFFFFFFFFFFFFFFFFFFFFFFFFFFFFFFFF AND PUSH20 0xFFFFFFFFFFFFFFFFFFFFFFFFFFFFFFFFFFFFFFFF AND EQ PUSH2 0x59D JUMPI PUSH1 0x0 DUP1 REVERT JUMPDEST PUSH1 0x1 DUP2 PUSH1 0x3 ADD PUSH1 0x14 PUSH2 0x100 EXP DUP2 SLOAD DUP2 PUSH1 0xFF MUL NOT AND SWAP1 DUP4 ISZERO ISZERO MUL OR SWAP1 SSTORE POP POP POP JUMP JUMPDEST PUSH1 0x0 DUP2 DUP2 SLOAD DUP2 LT PUSH2 0x5CE JUMPI PUSH1 0x0 DUP1 REVERT JUMPDEST SWAP1 PUSH1 0x0 MSTORE PUSH1 0x20 PUSH1 0x0 KECCAK256 SWAP1 PUSH1 0x4 MUL ADD PUSH1 0x0 SWAP2 POP SWAP1 POP DUP1 PUSH1 0x0 ADD DUP1 SLOAD PUSH2 0x5F1 SWAP1 PUSH2 0x1379 JUMP JUMPDEST DUP1 PUSH1 0x1F ADD PUSH1 0x20 DUP1 SWAP2 DIV MUL PUSH1 0x20 ADD PUSH1 0x40 MLOAD SWAP1 DUP2 ADD PUSH1 0x40 MSTORE DUP1 SWAP3 SWAP2 SWAP1 DUP2 DUP2 MSTORE PUSH1 0x20 ADD DUP3 DUP1 SLOAD PUSH2 0x61D SWAP1 PUSH2 0x1379 JUMP JUMPDEST DUP1 ISZERO PUSH2 0x66A JUMPI DUP1 PUSH1 0x1F LT PUSH2 0x63F JUMPI PUSH2 0x100 DUP1 DUP4 SLOAD DIV MUL DUP4 MSTORE SWAP2 PUSH1 0x20 ADD SWAP2 PUSH2 0x66A JUMP JUMPDEST DUP3 ADD SWAP2 SWAP1 PUSH1 0x0 MSTORE PUSH1 0x20 PUSH1 0x0 KECCAK256 SWAP1 JUMPDEST DUP2 SLOAD DUP2 MSTORE SWAP1 PUSH1 0x1 ADD SWAP1 PUSH1 0x20 ADD DUP1 DUP4 GT PUSH2 0x64D JUMPI DUP3 SWAP1 SUB PUSH1 0x1F AND DUP3 ADD SWAP2 JUMPDEST POP POP POP POP POP SWAP1 DUP1 PUSH1 0x1 ADD DUP1 SLOAD PUSH2 0x67F SWAP1 PUSH2 0x1379 JUMP JUMPDEST DUP1 PUSH1 0x1F ADD PUSH1 0x20 DUP1 SWAP2 DIV MUL PUSH1 0x20 ADD PUSH1 0x40 MLOAD SWAP1 DUP2 ADD PUSH1 0x40 MSTORE DUP1 SWAP3 SWAP2 SWAP1 DUP2 DUP2 MSTORE PUSH1 0x20 ADD DUP3 DUP1 SLOAD PUSH2 0x6AB SWAP1 PUSH2 0x1379 JUMP JUMPDEST DUP1 ISZERO PUSH2 0x6F8 JUMPI DUP1 PUSH1 0x1F LT PUSH2 0x6CD JUMPI PUSH2 0x100 DUP1 DUP4 SLOAD DIV MUL DUP4 MSTORE SWAP2 PUSH1 0x20 ADD SWAP2 PUSH2 0x6F8 JUMP JUMPDEST DUP3 ADD SWAP2 SWAP1 PUSH1 0x0 MSTORE PUSH1 0x20 PUSH1 0x0 KECCAK256 SWAP1 JUMPDEST DUP2 SLOAD DUP2 MSTORE SWAP1 PUSH1 0x1 ADD SWAP1 PUSH1 0x20 ADD DUP1 DUP4 GT PUSH2 0x6DB JUMPI DUP3 SWAP1 SUB PUSH1 0x1F AND DUP3 ADD SWAP2 JUMPDEST POP POP POP POP POP SWAP1 DUP1 PUSH1 0x2 ADD SLOAD SWAP1 DUP1 PUSH1 0x3 ADD PUSH1 0x0 SWAP1 SLOAD SWAP1 PUSH2 0x100 EXP SWAP1 DIV PUSH1 0xFF AND SWAP1 POP DUP5 JUMP JUMPDEST PUSH1 0x4 PUSH1 0x0 SWAP1 SLOAD SWAP1 PUSH2 0x100 EXP SWAP1 DIV PUSH20 0xFFFFFFFFFFFFFFFFFFFFFFFFFFFFFFFFFFFFFFFF AND PUSH20 0xFFFFFFFFFFFFFFFFFFFFFFFFFFFFFFFFFFFFFFFF AND CALLER PUSH20 0xFFFFFFFFFFFFFFFFFFFFFFFFFFFFFFFFFFFFFFFF AND EQ PUSH2 0x775 JUMPI PUSH1 0x0 DUP1 REVERT JUMPDEST PUSH1 0x0 DUP1 PUSH1 0x1 DUP2 PUSH1 0x1 DUP2 SLOAD ADD DUP1 DUP3 SSTORE DUP1 SWAP2 POP POP SUB SWAP1 PUSH1 0x0 MSTORE PUSH1 0x20 PUSH1 0x0 KECCAK256 SWAP1 PUSH1 0x4 MUL ADD SWAP1 POP DUP4 DUP2 PUSH1 0x0 ADD SWAP1 DUP1 MLOAD SWAP1 PUSH1 0x20 ADD SWAP1 PUSH2 0x7B0 SWAP3 SWAP2 SWAP1 PUSH2 0xDDC JUMP JUMPDEST POP DUP3 DUP2 PUSH1 0x1 ADD SWAP1 DUP1 MLOAD SWAP1 PUSH1 0x20 ADD SWAP1 PUSH2 0x7C9 SWAP3 SWAP2 SWAP1 PUSH2 0xDDC JUMP JUMPDEST POP DUP2 DUP2 PUSH1 0x2 ADD DUP2 SWAP1 SSTORE POP PUSH1 0x1 DUP2 PUSH1 0x3 ADD PUSH1 0x0 PUSH2 0x100 EXP DUP2 SLOAD DUP2 PUSH1 0xFF MUL NOT AND SWAP1 DUP4 ISZERO ISZERO MUL OR SWAP1 SSTORE POP POP POP POP POP JUMP JUMPDEST PUSH1 0x1 DUP2 DUP2 SLOAD DUP2 LT PUSH2 0x806 JUMPI PUSH1 0x0 DUP1 REVERT JUMPDEST SWAP1 PUSH1 0x0 MSTORE PUSH1 0x20 PUSH1 0x0 KECCAK256 SWAP1 PUSH1 0x4 MUL ADD PUSH1 0x0 SWAP2 POP SWAP1 POP DUP1 PUSH1 0x0 ADD SLOAD SWAP1 DUP1 PUSH1 0x1 ADD PUSH1 0x0 SWAP1 SLOAD SWAP1 PUSH2 0x100 EXP SWAP1 DIV PUSH1 0xFF AND SWAP1 DUP1 PUSH1 0x2 ADD SLOAD SWAP1 DUP1 PUSH1 0x3 ADD PUSH1 0x0 SWAP1 SLOAD SWAP1 PUSH2 0x100 EXP SWAP1 DIV PUSH20 0xFFFFFFFFFFFFFFFFFFFFFFFFFFFFFFFFFFFFFFFF AND SWAP1 DUP1 PUSH1 0x3 ADD PUSH1 0x14 SWAP1 SLOAD SWAP1 PUSH2 0x100 EXP SWAP1 DIV PUSH1 0xFF AND SWAP1 POP DUP6 JUMP JUMPDEST PUSH1 0x1 ISZERO ISZERO PUSH1 0x2 PUSH1 0x0 SWAP1 SLOAD SWAP1 PUSH2 0x100 EXP SWAP1 DIV PUSH1 0xFF AND ISZERO ISZERO EQ PUSH2 0x896 JUMPI PUSH1 0x0 DUP1 REVERT JUMPDEST PUSH1 0x0 PUSH1 0x1 DUP1 DUP2 PUSH1 0x1 DUP2 SLOAD ADD DUP1 DUP3 SSTORE DUP1 SWAP2 POP POP SUB SWAP1 PUSH1 0x0 MSTORE PUSH1 0x20 PUSH1 0x0 KECCAK256 SWAP1 PUSH1 0x4 MUL ADD SWAP1 POP PUSH1 0x0 DUP1 DUP4 DUP2 SLOAD DUP2 LT PUSH2 0x8CE JUMPI PUSH2 0x8CD PUSH2 0x1296 JUMP JUMPDEST JUMPDEST SWAP1 PUSH1 0x0 MSTORE PUSH1 0x20 PUSH1 0x0 KECCAK256 SWAP1 PUSH1 0x4 MUL ADD SWAP1 POP DUP1 PUSH1 0x2 ADD SLOAD CALLVALUE EQ PUSH2 0x8EE JUMPI PUSH1 0x0 DUP1 REVERT JUMPDEST TIMESTAMP DUP3 PUSH1 0x2 ADD DUP2 SWAP1 SSTORE POP DUP3 DUP3 PUSH1 0x0 ADD DUP2 SWAP1 SSTORE POP CALLER DUP3 PUSH1 0x3 ADD PUSH1 0x0 PUSH2 0x100 EXP DUP2 SLOAD DUP2 PUSH20 0xFFFFFFFFFFFFFFFFFFFFFFFFFFFFFFFFFFFFFFFF MUL NOT AND SWAP1 DUP4 PUSH20 0xFFFFFFFFFFFFFFFFFFFFFFFFFFFFFFFFFFFFFFFF AND MUL OR SWAP1 SSTORE POP PUSH1 0x0 DUP3 PUSH1 0x1 ADD PUSH1 0x0 PUSH2 0x100 EXP DUP2 SLOAD DUP2 PUSH1 0xFF MUL NOT AND SWAP1 DUP4 ISZERO ISZERO MUL OR SWAP1 SSTORE POP PUSH1 0x0 DUP2 PUSH1 0x3 ADD PUSH1 0x0 PUSH2 0x100 EXP DUP2 SLOAD DUP2 PUSH1 0xFF MUL NOT AND SWAP1 DUP4 ISZERO ISZERO MUL OR SWAP1 SSTORE POP PUSH1 0x1 DUP1 SLOAD SWAP1 POP PUSH1 0x5 PUSH1 0x0 CALLER PUSH20 0xFFFFFFFFFFFFFFFFFFFFFFFFFFFFFFFFFFFFFFFF AND PUSH20 0xFFFFFFFFFFFFFFFFFFFFFFFFFFFFFFFFFFFFFFFF AND DUP2 MSTORE PUSH1 0x20 ADD SWAP1 DUP2 MSTORE PUSH1 0x20 ADD PUSH1 0x0 KECCAK256 DUP2 SWAP1 SSTORE POP PUSH1 0x0 DUP3 PUSH1 0x3 ADD PUSH1 0x14 PUSH2 0x100 EXP DUP2 SLOAD DUP2 PUSH1 0xFF MUL NOT AND SWAP1 DUP4 ISZERO ISZERO MUL OR SWAP1 SSTORE POP POP POP POP JUMP JUMPDEST PUSH1 0x4 PUSH1 0x0 SWAP1 SLOAD SWAP1 PUSH2 0x100 EXP SWAP1 DIV PUSH20 0xFFFFFFFFFFFFFFFFFFFFFFFFFFFFFFFFFFFFFFFF AND PUSH20 0xFFFFFFFFFFFFFFFFFFFFFFFFFFFFFFFFFFFFFFFF AND CALLER PUSH20 0xFFFFFFFFFFFFFFFFFFFFFFFFFFFFFFFFFFFFFFFF AND EQ PUSH2 0xA42 JUMPI PUSH1 0x0 DUP1 REVERT JUMPDEST PUSH1 0x0 PUSH1 0x1 DUP3 DUP2 SLOAD DUP2 LT PUSH2 0xA58 JUMPI PUSH2 0xA57 PUSH2 0x1296 JUMP JUMPDEST JUMPDEST SWAP1 PUSH1 0x0 MSTORE PUSH1 0x20 PUSH1 0x0 KECCAK256 SWAP1 PUSH1 0x4 MUL ADD SWAP1 POP DUP1 PUSH1 0x3 ADD PUSH1 0x14 SWAP1 SLOAD SWAP1 PUSH2 0x100 EXP SWAP1 DIV PUSH1 0xFF AND PUSH2 0xA83 JUMPI PUSH1 0x0 DUP1 REVERT JUMPDEST PUSH1 0x1 DUP2 PUSH1 0x1 ADD PUSH1 0x0 PUSH2 0x100 EXP DUP2 SLOAD DUP2 PUSH1 0xFF MUL NOT AND SWAP1 DUP4 ISZERO ISZERO MUL OR SWAP1 SSTORE POP PUSH1 0x0 DUP1 DUP3 PUSH1 0x0 ADD SLOAD DUP2 SLOAD DUP2 LT PUSH2 0xAB9 JUMPI PUSH2 0xAB8 PUSH2 0x1296 JUMP JUMPDEST JUMPDEST SWAP1 PUSH1 0x0 MSTORE PUSH1 0x20 PUSH1 0x0 KECCAK256 SWAP1 PUSH1 0x4 MUL ADD SWAP1 POP PUSH1 0x4 PUSH1 0x0 SWAP1 SLOAD SWAP1 PUSH2 0x100 EXP SWAP1 DIV PUSH20 0xFFFFFFFFFFFFFFFFFFFFFFFFFFFFFFFFFFFFFFFF AND PUSH20 0xFFFFFFFFFFFFFFFFFFFFFFFFFFFFFFFFFFFFFFFF AND PUSH2 0x8FC DUP3 PUSH1 0x2 ADD SLOAD SWAP1 DUP2 ISZERO MUL SWAP1 PUSH1 0x40 MLOAD PUSH1 0x0 PUSH1 0x40 MLOAD DUP1 DUP4 SUB DUP2 DUP6 DUP9 DUP9 CALL SWAP4 POP POP POP POP ISZERO DUP1 ISZERO PUSH2 0xB35 JUMPI RETURNDATASIZE PUSH1 0x0 DUP1 RETURNDATACOPY RETURNDATASIZE PUSH1 0x0 REVERT JUMPDEST POP PUSH1 0x1 DUP2 PUSH1 0x3 ADD PUSH1 0x0 PUSH2 0x100 EXP DUP2 SLOAD DUP2 PUSH1 0xFF MUL NOT AND SWAP1 DUP4 ISZERO ISZERO MUL OR SWAP1 SSTORE POP POP POP POP JUMP JUMPDEST PUSH1 0x0 PUSH1 0x1 DUP3 DUP2 SLOAD DUP2 LT PUSH2 0xB6E JUMPI PUSH2 0xB6D PUSH2 0x1296 JUMP JUMPDEST JUMPDEST SWAP1 PUSH1 0x0 MSTORE PUSH1 0x20 PUSH1 0x0 KECCAK256 SWAP1 PUSH1 0x4 MUL ADD SWAP1 POP PUSH1 0x0 DUP1 DUP3 PUSH1 0x0 ADD SLOAD DUP2 SLOAD DUP2 LT PUSH2 0xB97 JUMPI PUSH2 0xB96 PUSH2 0x1296 JUMP JUMPDEST JUMPDEST SWAP1 PUSH1 0x0 MSTORE PUSH1 0x20 PUSH1 0x0 KECCAK256 SWAP1 PUSH1 0x4 MUL ADD SWAP1 POP DUP2 PUSH1 0x3 ADD PUSH1 0x0 SWAP1 SLOAD SWAP1 PUSH2 0x100 EXP SWAP1 DIV PUSH20 0xFFFFFFFFFFFFFFFFFFFFFFFFFFFFFFFFFFFFFFFF AND PUSH20 0xFFFFFFFFFFFFFFFFFFFFFFFFFFFFFFFFFFFFFFFF AND CALLER PUSH20 0xFFFFFFFFFFFFFFFFFFFFFFFFFFFFFFFFFFFFFFFF AND EQ PUSH2 0xC03 JUMPI PUSH1 0x0 DUP1 REVERT JUMPDEST PUSH1 0x1 DUP3 PUSH1 0x1 ADD PUSH1 0x0 PUSH2 0x100 EXP DUP2 SLOAD DUP2 PUSH1 0xFF MUL NOT AND SWAP1 DUP4 ISZERO ISZERO MUL OR SWAP1 SSTORE POP PUSH1 0x1 DUP2 PUSH1 0x3 ADD PUSH1 0x0 PUSH2 0x100 EXP DUP2 SLOAD DUP2 PUSH1 0xFF MUL NOT AND SWAP1 DUP4 ISZERO ISZERO MUL OR SWAP1 SSTORE POP PUSH1 0x1 DUP3 PUSH1 0x3 ADD PUSH1 0x14 PUSH2 0x100 EXP DUP2 SLOAD DUP2 PUSH1 0xFF MUL NOT AND SWAP1 DUP4 ISZERO ISZERO MUL OR SWAP1 SSTORE POP PUSH2 0x708 DUP3 PUSH1 0x2 ADD SLOAD PUSH2 0xC6C SWAP2 SWAP1 PUSH2 0x12F4 JUMP JUMPDEST TIMESTAMP LT ISZERO PUSH2 0xCF2 JUMPI DUP2 PUSH1 0x3 ADD PUSH1 0x0 SWAP1 SLOAD SWAP1 PUSH2 0x100 EXP SWAP1 DIV PUSH20 0xFFFFFFFFFFFFFFFFFFFFFFFFFFFFFFFFFFFFFFFF AND PUSH20 0xFFFFFFFFFFFFFFFFFFFFFFFFFFFFFFFFFFFFFFFF AND PUSH2 0x8FC CALLVALUE DUP4 PUSH1 0x2 ADD SLOAD PUSH2 0xCC1 SWAP2 SWAP1 PUSH2 0x12F4 JUMP JUMPDEST SWAP1 DUP2 ISZERO MUL SWAP1 PUSH1 0x40 MLOAD PUSH1 0x0 PUSH1 0x40 MLOAD DUP1 DUP4 SUB DUP2 DUP6 DUP9 DUP9 CALL SWAP4 POP POP POP POP ISZERO DUP1 ISZERO PUSH2 0xCEC JUMPI RETURNDATASIZE PUSH1 0x0 DUP1 RETURNDATACOPY RETURNDATASIZE PUSH1 0x0 REVERT JUMPDEST POP PUSH2 0xDCB JUMP JUMPDEST PUSH1 0x4 PUSH1 0x0 SWAP1 SLOAD SWAP1 PUSH2 0x100 EXP SWAP1 DIV PUSH20 0xFFFFFFFFFFFFFFFFFFFFFFFFFFFFFFFFFFFFFFFF AND PUSH20 0xFFFFFFFFFFFFFFFFFFFFFFFFFFFFFFFFFFFFFFFF AND PUSH2 0x8FC CALLVALUE SWAP1 DUP2 ISZERO MUL SWAP1 PUSH1 0x40 MLOAD PUSH1 0x0 PUSH1 0x40 MLOAD DUP1 DUP4 SUB DUP2 DUP6 DUP9 DUP9 CALL SWAP4 POP POP POP POP ISZERO DUP1 ISZERO PUSH2 0xD5A JUMPI RETURNDATASIZE PUSH1 0x0 DUP1 RETURNDATACOPY RETURNDATASIZE PUSH1 0x0 REVERT JUMPDEST POP DUP2 PUSH1 0x3 ADD PUSH1 0x0 SWAP1 SLOAD SWAP1 PUSH2 0x100 EXP SWAP1 DIV PUSH20 0xFFFFFFFFFFFFFFFFFFFFFFFFFFFFFFFFFFFFFFFF AND PUSH20 0xFFFFFFFFFFFFFFFFFFFFFFFFFFFFFFFFFFFFFFFF AND PUSH2 0x8FC DUP3 PUSH1 0x2 ADD SLOAD SWAP1 DUP2 ISZERO MUL SWAP1 PUSH1 0x40 MLOAD PUSH1 0x0 PUSH1 0x40 MLOAD DUP1 DUP4 SUB DUP2 DUP6 DUP9 DUP9 CALL SWAP4 POP POP POP POP ISZERO DUP1 ISZERO PUSH2 0xDC9 JUMPI RETURNDATASIZE PUSH1 0x0 DUP1 RETURNDATACOPY RETURNDATASIZE PUSH1 0x0 REVERT JUMPDEST POP JUMPDEST POP POP POP JUMP JUMPDEST PUSH1 0x0 DUP1 DUP1 SLOAD SWAP1 POP SWAP1 POP SWAP1 JUMP JUMPDEST DUP3 DUP1 SLOAD PUSH2 0xDE8 SWAP1 PUSH2 0x1379 JUMP JUMPDEST SWAP1 PUSH1 0x0 MSTORE PUSH1 0x20 PUSH1 0x0 KECCAK256 SWAP1 PUSH1 0x1F ADD PUSH1 0x20 SWAP1 DIV DUP2 ADD SWAP3 DUP3 PUSH2 0xE0A JUMPI PUSH1 0x0 DUP6 SSTORE PUSH2 0xE51 JUMP JUMPDEST DUP3 PUSH1 0x1F LT PUSH2 0xE23 JUMPI DUP1 MLOAD PUSH1 0xFF NOT AND DUP4 DUP1 ADD OR DUP6 SSTORE PUSH2 0xE51 JUMP JUMPDEST DUP3 DUP1 ADD PUSH1 0x1 ADD DUP6 SSTORE DUP3 ISZERO PUSH2 0xE51 JUMPI SWAP2 DUP3 ADD JUMPDEST DUP3 DUP2 GT ISZERO PUSH2 0xE50 JUMPI DUP3 MLOAD DUP3 SSTORE SWAP2 PUSH1 0x20 ADD SWAP2 SWAP1 PUSH1 0x1 ADD SWAP1 PUSH2 0xE35 JUMP JUMPDEST JUMPDEST POP SWAP1 POP PUSH2 0xE5E SWAP2 SWAP1 PUSH2 0xE62 JUMP JUMPDEST POP SWAP1 JUMP JUMPDEST JUMPDEST DUP1 DUP3 GT ISZERO PUSH2 0xE7B JUMPI PUSH1 0x0 DUP2 PUSH1 0x0 SWAP1 SSTORE POP PUSH1 0x1 ADD PUSH2 0xE63 JUMP JUMPDEST POP SWAP1 JUMP JUMPDEST PUSH1 0x0 PUSH1 0x40 MLOAD SWAP1 POP SWAP1 JUMP JUMPDEST PUSH1 0x0 DUP1 REVERT JUMPDEST PUSH1 0x0 DUP1 REVERT JUMPDEST PUSH1 0x0 DUP2 SWAP1 POP SWAP2 SWAP1 POP JUMP JUMPDEST PUSH2 0xEA6 DUP2 PUSH2 0xE93 JUMP JUMPDEST DUP2 EQ PUSH2 0xEB1 JUMPI PUSH1 0x0 DUP1 REVERT JUMPDEST POP JUMP JUMPDEST PUSH1 0x0 DUP2 CALLDATALOAD SWAP1 POP PUSH2 0xEC3 DUP2 PUSH2 0xE9D JUMP JUMPDEST SWAP3 SWAP2 POP POP JUMP JUMPDEST PUSH1 0x0 PUSH1 0x20 DUP3 DUP5 SUB SLT ISZERO PUSH2 0xEDF JUMPI PUSH2 0xEDE PUSH2 0xE89 JUMP JUMPDEST JUMPDEST PUSH1 0x0 PUSH2 0xEED DUP5 DUP3 DUP6 ADD PUSH2 0xEB4 JUMP JUMPDEST SWAP2 POP POP SWAP3 SWAP2 POP POP JUMP JUMPDEST PUSH1 0x0 PUSH20 0xFFFFFFFFFFFFFFFFFFFFFFFFFFFFFFFFFFFFFFFF DUP3 AND SWAP1 POP SWAP2 SWAP1 POP JUMP JUMPDEST PUSH1 0x0 PUSH2 0xF21 DUP3 PUSH2 0xEF6 JUMP JUMPDEST SWAP1 POP SWAP2 SWAP1 POP JUMP JUMPDEST PUSH2 0xF31 DUP2 PUSH2 0xF16 JUMP JUMPDEST DUP3 MSTORE POP POP JUMP JUMPDEST PUSH1 0x0 PUSH1 0x20 DUP3 ADD SWAP1 POP PUSH2 0xF4C PUSH1 0x0 DUP4 ADD DUP5 PUSH2 0xF28 JUMP JUMPDEST SWAP3 SWAP2 POP POP JUMP JUMPDEST PUSH2 0xF5B DUP2 PUSH2 0xE93 JUMP JUMPDEST DUP3 MSTORE POP POP JUMP JUMPDEST PUSH1 0x0 PUSH1 0x20 DUP3 ADD SWAP1 POP PUSH2 0xF76 PUSH1 0x0 DUP4 ADD DUP5 PUSH2 0xF52 JUMP JUMPDEST SWAP3 SWAP2 POP POP JUMP JUMPDEST PUSH1 0x0 DUP2 MLOAD SWAP1 POP SWAP2 SWAP1 POP JUMP JUMPDEST PUSH1 0x0 DUP3 DUP3 MSTORE PUSH1 0x20 DUP3 ADD SWAP1 POP SWAP3 SWAP2 POP POP JUMP JUMPDEST PUSH1 0x0 JUMPDEST DUP4 DUP2 LT ISZERO PUSH2 0xFB6 JUMPI DUP1 DUP3 ADD MLOAD DUP2 DUP5 ADD MSTORE PUSH1 0x20 DUP2 ADD SWAP1 POP PUSH2 0xF9B JUMP JUMPDEST DUP4 DUP2 GT ISZERO PUSH2 0xFC5 JUMPI PUSH1 0x0 DUP5 DUP5 ADD MSTORE JUMPDEST POP POP POP POP JUMP JUMPDEST PUSH1 0x0 PUSH1 0x1F NOT PUSH1 0x1F DUP4 ADD AND SWAP1 POP SWAP2 SWAP1 POP JUMP JUMPDEST PUSH1 0x0 PUSH2 0xFE7 DUP3 PUSH2 0xF7C JUMP JUMPDEST PUSH2 0xFF1 DUP2 DUP6 PUSH2 0xF87 JUMP JUMPDEST SWAP4 POP PUSH2 0x1001 DUP2 DUP6 PUSH1 0x20 DUP7 ADD PUSH2 0xF98 JUMP JUMPDEST PUSH2 0x100A DUP2 PUSH2 0xFCB JUMP JUMPDEST DUP5 ADD SWAP2 POP POP SWAP3 SWAP2 POP POP JUMP JUMPDEST PUSH1 0x0 DUP2 ISZERO ISZERO SWAP1 POP SWAP2 SWAP1 POP JUMP JUMPDEST PUSH2 0x102A DUP2 PUSH2 0x1015 JUMP JUMPDEST DUP3 MSTORE POP POP JUMP JUMPDEST PUSH1 0x0 PUSH1 0x80 DUP3 ADD SWAP1 POP DUP2 DUP2 SUB PUSH1 0x0 DUP4 ADD MSTORE PUSH2 0x104A DUP2 DUP8 PUSH2 0xFDC JUMP JUMPDEST SWAP1 POP DUP2 DUP2 SUB PUSH1 0x20 DUP4 ADD MSTORE PUSH2 0x105E DUP2 DUP7 PUSH2 0xFDC JUMP JUMPDEST SWAP1 POP PUSH2 0x106D PUSH1 0x40 DUP4 ADD DUP6 PUSH2 0xF52 JUMP JUMPDEST PUSH2 0x107A PUSH1 0x60 DUP4 ADD DUP5 PUSH2 0x1021 JUMP JUMPDEST SWAP6 SWAP5 POP POP POP POP POP JUMP JUMPDEST PUSH1 0x0 DUP1 REVERT JUMPDEST PUSH1 0x0 DUP1 REVERT JUMPDEST PUSH32 0x4E487B7100000000000000000000000000000000000000000000000000000000 PUSH1 0x0 MSTORE PUSH1 0x41 PUSH1 0x4 MSTORE PUSH1 0x24 PUSH1 0x0 REVERT JUMPDEST PUSH2 0x10C5 DUP3 PUSH2 0xFCB JUMP JUMPDEST DUP2 ADD DUP2 DUP2 LT PUSH8 0xFFFFFFFFFFFFFFFF DUP3 GT OR ISZERO PUSH2 0x10E4 JUMPI PUSH2 0x10E3 PUSH2 0x108D JUMP JUMPDEST JUMPDEST DUP1 PUSH1 0x40 MSTORE POP POP POP JUMP JUMPDEST PUSH1 0x0 PUSH2 0x10F7 PUSH2 0xE7F JUMP JUMPDEST SWAP1 POP PUSH2 0x1103 DUP3 DUP3 PUSH2 0x10BC JUMP JUMPDEST SWAP2 SWAP1 POP JUMP JUMPDEST PUSH1 0x0 PUSH8 0xFFFFFFFFFFFFFFFF DUP3 GT ISZERO PUSH2 0x1123 JUMPI PUSH2 0x1122 PUSH2 0x108D JUMP JUMPDEST JUMPDEST PUSH2 0x112C DUP3 PUSH2 0xFCB JUMP JUMPDEST SWAP1 POP PUSH1 0x20 DUP2 ADD SWAP1 POP SWAP2 SWAP1 POP JUMP JUMPDEST DUP3 DUP2 DUP4 CALLDATACOPY PUSH1 0x0 DUP4 DUP4 ADD MSTORE POP POP POP JUMP JUMPDEST PUSH1 0x0 PUSH2 0x115B PUSH2 0x1156 DUP5 PUSH2 0x1108 JUMP JUMPDEST PUSH2 0x10ED JUMP JUMPDEST SWAP1 POP DUP3 DUP2 MSTORE PUSH1 0x20 DUP2 ADD DUP5 DUP5 DUP5 ADD GT ISZERO PUSH2 0x1177 JUMPI PUSH2 0x1176 PUSH2 0x1088 JUMP JUMPDEST JUMPDEST PUSH2 0x1182 DUP5 DUP3 DUP6 PUSH2 0x1139 JUMP JUMPDEST POP SWAP4 SWAP3 POP POP POP JUMP JUMPDEST PUSH1 0x0 DUP3 PUSH1 0x1F DUP4 ADD SLT PUSH2 0x119F JUMPI PUSH2 0x119E PUSH2 0x1083 JUMP JUMPDEST JUMPDEST DUP2 CALLDATALOAD PUSH2 0x11AF DUP5 DUP3 PUSH1 0x20 DUP7 ADD PUSH2 0x1148 JUMP JUMPDEST SWAP2 POP POP SWAP3 SWAP2 POP POP JUMP JUMPDEST PUSH1 0x0 DUP1 PUSH1 0x0 PUSH1 0x60 DUP5 DUP7 SUB SLT ISZERO PUSH2 0x11D1 JUMPI PUSH2 0x11D0 PUSH2 0xE89 JUMP JUMPDEST JUMPDEST PUSH1 0x0 DUP5 ADD CALLDATALOAD PUSH8 0xFFFFFFFFFFFFFFFF DUP2 GT ISZERO PUSH2 0x11EF JUMPI PUSH2 0x11EE PUSH2 0xE8E JUMP JUMPDEST JUMPDEST PUSH2 0x11FB DUP7 DUP3 DUP8 ADD PUSH2 0x118A JUMP JUMPDEST SWAP4 POP POP PUSH1 0x20 DUP5 ADD CALLDATALOAD PUSH8 0xFFFFFFFFFFFFFFFF DUP2 GT ISZERO PUSH2 0x121C JUMPI PUSH2 0x121B PUSH2 0xE8E JUMP JUMPDEST JUMPDEST PUSH2 0x1228 DUP7 DUP3 DUP8 ADD PUSH2 0x118A JUMP JUMPDEST SWAP3 POP POP PUSH1 0x40 PUSH2 0x1239 DUP7 DUP3 DUP8 ADD PUSH2 0xEB4 JUMP JUMPDEST SWAP2 POP POP SWAP3 POP SWAP3 POP SWAP3 JUMP JUMPDEST PUSH1 0x0 PUSH1 0xA0 DUP3 ADD SWAP1 POP PUSH2 0x1258 PUSH1 0x0 DUP4 ADD DUP9 PUSH2 0xF52 JUMP JUMPDEST PUSH2 0x1265 PUSH1 0x20 DUP4 ADD DUP8 PUSH2 0x1021 JUMP JUMPDEST PUSH2 0x1272 PUSH1 0x40 DUP4 ADD DUP7 PUSH2 0xF52 JUMP JUMPDEST PUSH2 0x127F PUSH1 0x60 DUP4 ADD DUP6 PUSH2 0xF28 JUMP JUMPDEST PUSH2 0x128C PUSH1 0x80 DUP4 ADD DUP5 PUSH2 0x1021 JUMP JUMPDEST SWAP7 SWAP6 POP POP POP POP POP POP JUMP JUMPDEST PUSH32 0x4E487B7100000000000000000000000000000000000000000000000000000000 PUSH1 0x0 MSTORE PUSH1 0x32 PUSH1 0x4 MSTORE PUSH1 0x24 PUSH1 0x0 REVERT JUMPDEST PUSH32 0x4E487B7100000000000000000000000000000000000000000000000000000000 PUSH1 0x0 MSTORE PUSH1 0x11 PUSH1 0x4 MSTORE PUSH1 0x24 PUSH1 0x0 REVERT JUMPDEST PUSH1 0x0 PUSH2 0x12FF DUP3 PUSH2 0xE93 JUMP JUMPDEST SWAP2 POP PUSH2 0x130A DUP4 PUSH2 0xE93 JUMP JUMPDEST SWAP3 POP DUP3 PUSH32 0xFFFFFFFFFFFFFFFFFFFFFFFFFFFFFFFFFFFFFFFFFFFFFFFFFFFFFFFFFFFFFFFF SUB DUP3 GT ISZERO PUSH2 0x133F JUMPI PUSH2 0x133E PUSH2 0x12C5 JUMP JUMPDEST JUMPDEST DUP3 DUP3 ADD SWAP1 POP SWAP3 SWAP2 POP POP JUMP JUMPDEST PUSH32 0x4E487B7100000000000000000000000000000000000000000000000000000000 PUSH1 0x0 MSTORE PUSH1 0x22 PUSH1 0x4 MSTORE PUSH1 0x24 PUSH1 0x0 REVERT JUMPDEST PUSH1 0x0 PUSH1 0x2 DUP3 DIV SWAP1 POP PUSH1 0x1 DUP3 AND DUP1 PUSH2 0x1391 JUMPI PUSH1 0x7F DUP3 AND SWAP2 POP JUMPDEST PUSH1 0x20 DUP3 LT DUP2 EQ ISZERO PUSH2 0x13A5 JUMPI PUSH2 0x13A4 PUSH2 0x134A JUMP JUMPDEST JUMPDEST POP SWAP2 SWAP1 POP JUMP INVALID LOG2 PUSH5 0x6970667358 0x22 SLT KECCAK256 0xE2 0xB8 LT SWAP8 PUSH21 0xD93E58B27B1368341057D55FD18E77F80AE92E3BD 0xE4 0x29 0xAB OR 0xD 0xB6 PUSH5 0x736F6C6343 STOP ADDMOD MULMOD STOP CALLER "},"gasEstimates":{"creation":{"codeDepositCost":"1017800","executionCost":"infinite","totalCost":"infinite"},"external":{"buyService(uint256)":"196932","buyerApproval(uint256)":"29176","cancelRequestSeller(uint256)":"infinite","cancelServiceBuyer(uint256)":"infinite","createService(string,string,uint256)":"infinite","getServiceCount()":"2490","getServiceTypesCount()":"2555","seller()":"2537","sellerApproval(uint256)":"infinite","serviceTypes(uint256)":"infinite","services(uint256)":"infinite"}},"methodIdentifiers":{"buyService(uint256)":"c594e5ec","buyerApproval(uint256)":"437661da","cancelRequestSeller(uint256)":"03ff5c99","cancelServiceBuyer(uint256)":"dd36ff27","createService(string,string,uint256)":"7b15f1b6","getServiceCount()":"3672404e","getServiceTypesCount()":"df1a68ce","seller()":"08551a53","sellerApproval(uint256)":"d8ea0262","serviceTypes(uint256)":"4c3912e7","services(uint256)":"c22c4f43"}},"storageLayout":{"storage":[{"astId":160,"contract":"MarketPlace.sol:LabourMarket","label":"serviceTypes","offset":0,"slot":"0","type":"t_array(t_struct(Service)145_storage)dyn_storage"},{"astId":164,"contract":"MarketPlace.sol:LabourMarket","label":"services","offset":0,"slot":"1","type":"t_array(t_struct(ServiceRequest)156_storage)dyn_storage"},{"astId":166,"contract":"MarketPlace.sol:LabourMarket","label":"available","offset":0,"slot":"2","type":"t_bool"},{"astId":168,"contract":"MarketPlace.sol:LabourMarket","label":"penalty","offset":0,"slot":"3","type":"t_uint256"},{"astId":170,"contract":"MarketPlace.sol:LabourMarket","label":"seller","offset":0,"slot":"4","type":"t_address"},{"astId":174,"contract":"MarketPlace.sol:LabourMarket","label":"serviceBought","offset":0,"slot":"5","type":"t_mapping(t_address,t_uint256)"}],"types":{"t_address":{"encoding":"inplace","label":"address","numberOfBytes":"20"},"t_array(t_struct(Service)145_storage)dyn_storage":{"base":"t_struct(Service)145_storage","encoding":"dynamic_array","label":"struct LabourMarket.Service[]","numberOfBytes":"32"},"t_array(t_struct(ServiceRequest)156_storage)dyn_storage":{"base":"t_struct(ServiceRequest)156_storage","encoding":"dynamic_array","label":"struct LabourMarket.ServiceRequest[]","numberOfBytes":"32"},"t_bool":{"encoding":"inplace","label":"bool","numberOfBytes":"1"},"t_mapping(t_address,t_uint256)":{"encoding":"mapping","key":"t_address","label":"mapping(address => uint256)","numberOfBytes":"32","value":"t_uint256"},"t_string_storage":{"encoding":"bytes","label":"string","numberOfBytes":"32"},"t_struct(Service)145_storage":{"encoding":"inplace","label":"struct LabourMarket.Service","members":[{"astId":138,"contract":"MarketPlace.sol:LabourMarket","label":"header","offset":0,"slot":"0","type":"t_string_storage"},{"astId":140,"contract":"MarketPlace.sol:LabourMarket","label":"description","offset":0,"slot":"1","type":"t_string_storage"},{"astId":142,"contract":"MarketPlace.sol:LabourMarket","label":"value","offset":0,"slot":"2","type":"t_uint256"},{"astId":144,"contract":"MarketPlace.sol:LabourMarket","label":"availability","offset":0,"slot":"3","type":"t_bool"}],"numberOfBytes":"128"},"t_struct(ServiceRequest)156_storage":{"encoding":"inplace","label":"struct LabourMarket.ServiceRequest","members":[{"astId":147,"contract":"MarketPlace.sol:LabourMarket","label":"serviceType","offset":0,"slot":"0","type":"t_uint256"},{"astId":149,"contract":"MarketPlace.sol:LabourMarket","label":"complete","offset":0,"slot":"1","type":"t_bool"},{"astId":151,"contract":"MarketPlace.sol:LabourMarket","label":"requestTime","offset":0,"slot":"2","type":"t_uint256"},{"astId":153,"contract":"MarketPlace.sol:LabourMarket","label":"buyer","offset":0,"slot":"3","type":"t_address"},{"astId":155,"contract":"MarketPlace.sol:LabourMarket","label":"buyerApprove","offset":20,"slot":"3","type":"t_bool"}],"numberOfBytes":"128"},"t_uint256":{"encoding":"inplace","label":"uint256","numberOfBytes":"32"}}},"userdoc":{"kind":"user","methods":{},"version":1}}