{"abi":[{"inputs":[{"internalType":"address","name":"creator","type":"address"}],"stateMutability":"nonpayable","type":"constructor"},{"inputs":[{"internalType":"uint256","name":"serviceIndex","type":"uint256"}],"name":"buyService","outputs":[],"stateMutability":"payable","type":"function"},{"inputs":[{"internalType":"uint256","name":"index","type":"uint256"}],"name":"cancelRequestSeller","outputs":[],"stateMutability":"payable","type":"function"},{"inputs":[{"internalType":"uint256","name":"index","type":"uint256"}],"name":"cancelServiceBuyer","outputs":[],"stateMutability":"payable","type":"function"},{"inputs":[{"internalType":"string","name":"description","type":"string"},{"internalType":"uint256","name":"value","type":"uint256"}],"name":"createService","outputs":[],"stateMutability":"nonpayable","type":"function"},{"inputs":[],"name":"seller","outputs":[{"internalType":"address","name":"","type":"address"}],"stateMutability":"view","type":"function"},{"inputs":[{"internalType":"uint256","name":"index","type":"uint256"},{"internalType":"uint256","name":"sellOTP","type":"uint256"},{"internalType":"uint256","name":"buyOTP","type":"uint256"}],"name":"sellerApproval","outputs":[],"stateMutability":"nonpayable","type":"function"},{"inputs":[{"internalType":"uint256","name":"","type":"uint256"}],"name":"serviceTypes","outputs":[{"internalType":"string","name":"description","type":"string"},{"internalType":"uint256","name":"value","type":"uint256"},{"internalType":"bool","name":"availability","type":"bool"}],"stateMutability":"view","type":"function"},{"inputs":[{"internalType":"uint256","name":"","type":"uint256"}],"name":"services","outputs":[{"internalType":"uint256","name":"serviceType","type":"uint256"},{"internalType":"bool","name":"complete","type":"bool"},{"internalType":"uint256","name":"requestTime","type":"uint256"},{"internalType":"address","name":"buyer","type":"address"}],"stateMutability":"view","type":"function"}],"devdoc":{"kind":"dev","methods":{},"version":1},"evm":{"assembly":"    /* \"MarketPlace.sol\":824:4268  contract LabourMarket {... */\n  mstore(0x40, 0x80)\n    /* \"MarketPlace.sol\":1518:1670  constructor (address creator) public {... */\n  callvalue\n  dup1\n  iszero\n  tag_1\n  jumpi\n  0x00\n  dup1\n  revert\ntag_1:\n  pop\n  mload(0x40)\n  sub(codesize, bytecodeSize)\n  dup1\n  bytecodeSize\n  dup4\n  codecopy\n  dup2\n  dup2\n  add\n  0x40\n  mstore\n  dup2\n  add\n  swap1\n  tag_2\n  swap2\n  swap1\n  tag_3\n  jump\t// in\ntag_2:\n    /* \"MarketPlace.sol\":1574:1581  creator */\n  dup1\n    /* \"MarketPlace.sol\":1565:1571  seller */\n  0x04\n  0x00\n    /* \"MarketPlace.sol\":1565:1581  seller = creator */\n  0x0100\n  exp\n  dup2\n  sload\n  dup2\n  0xffffffffffffffffffffffffffffffffffffffff\n  mul\n  not\n  and\n  swap1\n  dup4\n  0xffffffffffffffffffffffffffffffffffffffff\n  and\n  mul\n  or\n  swap1\n  sstore\n  pop\n    /* \"MarketPlace.sol\":1603:1607  true */\n  0x01\n    /* \"MarketPlace.sol\":1591:1600  available */\n  0x02\n  0x00\n    /* \"MarketPlace.sol\":1591:1607  available = true */\n  0x0100\n  exp\n  dup2\n  sload\n  dup2\n  0xff\n  mul\n  not\n  and\n  swap1\n  dup4\n  iszero\n  iszero\n  mul\n  or\n  swap1\n  sstore\n  pop\n    /* \"MarketPlace.sol\":1627:1642  100000000000000 */\n  0x5af3107a4000\n    /* \"MarketPlace.sol\":1617:1624  penalty */\n  0x03\n    /* \"MarketPlace.sol\":1617:1642  penalty = 100000000000000 */\n  dup2\n  swap1\n  sstore\n  pop\n    /* \"MarketPlace.sol\":1518:1670  constructor (address creator) public {... */\n  pop\n    /* \"MarketPlace.sol\":824:4268  contract LabourMarket {... */\n  jump(tag_6)\n    /* \"#utility.yul\":88:205   */\ntag_8:\n    /* \"#utility.yul\":197:198   */\n  0x00\n    /* \"#utility.yul\":194:195   */\n  dup1\n    /* \"#utility.yul\":187:199   */\n  revert\n    /* \"#utility.yul\":334:460   */\ntag_10:\n    /* \"#utility.yul\":371:378   */\n  0x00\n    /* \"#utility.yul\":411:453   */\n  0xffffffffffffffffffffffffffffffffffffffff\n    /* \"#utility.yul\":404:409   */\n  dup3\n    /* \"#utility.yul\":400:454   */\n  and\n    /* \"#utility.yul\":389:454   */\n  swap1\n  pop\n    /* \"#utility.yul\":334:460   */\n  swap2\n  swap1\n  pop\n  jump\t// out\n    /* \"#utility.yul\":466:562   */\ntag_11:\n    /* \"#utility.yul\":503:510   */\n  0x00\n    /* \"#utility.yul\":532:556   */\n  tag_20\n    /* \"#utility.yul\":550:555   */\n  dup3\n    /* \"#utility.yul\":532:556   */\n  tag_10\n  jump\t// in\ntag_20:\n    /* \"#utility.yul\":521:556   */\n  swap1\n  pop\n    /* \"#utility.yul\":466:562   */\n  swap2\n  swap1\n  pop\n  jump\t// out\n    /* \"#utility.yul\":568:690   */\ntag_12:\n    /* \"#utility.yul\":641:665   */\n  tag_22\n    /* \"#utility.yul\":659:664   */\n  dup2\n    /* \"#utility.yul\":641:665   */\n  tag_11\n  jump\t// in\ntag_22:\n    /* \"#utility.yul\":634:639   */\n  dup2\n    /* \"#utility.yul\":631:666   */\n  eq\n    /* \"#utility.yul\":621:684   */\n  tag_23\n  jumpi\n    /* \"#utility.yul\":680:681   */\n  0x00\n    /* \"#utility.yul\":677:678   */\n  dup1\n    /* \"#utility.yul\":670:682   */\n  revert\n    /* \"#utility.yul\":621:684   */\ntag_23:\n    /* \"#utility.yul\":568:690   */\n  pop\n  jump\t// out\n    /* \"#utility.yul\":696:839   */\ntag_13:\n    /* \"#utility.yul\":753:758   */\n  0x00\n    /* \"#utility.yul\":784:790   */\n  dup2\n    /* \"#utility.yul\":778:791   */\n  mload\n    /* \"#utility.yul\":769:791   */\n  swap1\n  pop\n    /* \"#utility.yul\":800:833   */\n  tag_25\n    /* \"#utility.yul\":827:832   */\n  dup2\n    /* \"#utility.yul\":800:833   */\n  tag_12\n  jump\t// in\ntag_25:\n    /* \"#utility.yul\":696:839   */\n  swap3\n  swap2\n  pop\n  pop\n  jump\t// out\n    /* \"#utility.yul\":845:1196   */\ntag_3:\n    /* \"#utility.yul\":915:921   */\n  0x00\n    /* \"#utility.yul\":964:966   */\n  0x20\n    /* \"#utility.yul\":952:961   */\n  dup3\n    /* \"#utility.yul\":943:950   */\n  dup5\n    /* \"#utility.yul\":939:962   */\n  sub\n    /* \"#utility.yul\":935:967   */\n  slt\n    /* \"#utility.yul\":932:1051   */\n  iszero\n  tag_27\n  jumpi\n    /* \"#utility.yul\":970:1049   */\n  tag_28\n  tag_8\n  jump\t// in\ntag_28:\n    /* \"#utility.yul\":932:1051   */\ntag_27:\n    /* \"#utility.yul\":1090:1091   */\n  0x00\n    /* \"#utility.yul\":1115:1179   */\n  tag_29\n    /* \"#utility.yul\":1171:1178   */\n  dup5\n    /* \"#utility.yul\":1162:1168   */\n  dup3\n    /* \"#utility.yul\":1151:1160   */\n  dup6\n    /* \"#utility.yul\":1147:1169   */\n  add\n    /* \"#utility.yul\":1115:1179   */\n  tag_13\n  jump\t// in\ntag_29:\n    /* \"#utility.yul\":1105:1179   */\n  swap2\n  pop\n    /* \"#utility.yul\":1061:1189   */\n  pop\n    /* \"#utility.yul\":845:1196   */\n  swap3\n  swap2\n  pop\n  pop\n  jump\t// out\n    /* \"MarketPlace.sol\":824:4268  contract LabourMarket {... */\ntag_6:\n  dataSize(sub_0)\n  dup1\n  dataOffset(sub_0)\n  0x00\n  codecopy\n  0x00\n  return\nstop\n\nsub_0: assembly {\n        /* \"MarketPlace.sol\":824:4268  contract LabourMarket {... */\n      mstore(0x40, 0x80)\n      jumpi(tag_1, lt(calldatasize, 0x04))\n      shr(0xe0, calldataload(0x00))\n      dup1\n      0x57514943\n      gt\n      tag_10\n      jumpi\n      dup1\n      0x57514943\n      eq\n      tag_6\n      jumpi\n      dup1\n      0xc22c4f43\n      eq\n      tag_7\n      jumpi\n      dup1\n      0xc594e5ec\n      eq\n      tag_8\n      jumpi\n      dup1\n      0xdd36ff27\n      eq\n      tag_9\n      jumpi\n      jump(tag_1)\n    tag_10:\n      dup1\n      0x03ff5c99\n      eq\n      tag_2\n      jumpi\n      dup1\n      0x08551a53\n      eq\n      tag_3\n      jumpi\n      dup1\n      0x1cf82bd2\n      eq\n      tag_4\n      jumpi\n      dup1\n      0x4c3912e7\n      eq\n      tag_5\n      jumpi\n    tag_1:\n      0x00\n      dup1\n      revert\n        /* \"MarketPlace.sol\":2625:3196  function cancelRequestSeller(uint index) public payable restricted {... */\n    tag_2:\n      tag_11\n      0x04\n      dup1\n      calldatasize\n      sub\n      dup2\n      add\n      swap1\n      tag_12\n      swap2\n      swap1\n      tag_13\n      jump\t// in\n    tag_12:\n      tag_14\n      jump\t// in\n    tag_11:\n      stop\n        /* \"MarketPlace.sol\":1201:1222  address public seller */\n    tag_3:\n      callvalue\n      dup1\n      iszero\n      tag_15\n      jumpi\n      0x00\n      dup1\n      revert\n    tag_15:\n      pop\n      tag_16\n      tag_17\n      jump\t// in\n    tag_16:\n      mload(0x40)\n      tag_18\n      swap2\n      swap1\n      tag_19\n      jump\t// in\n    tag_18:\n      mload(0x40)\n      dup1\n      swap2\n      sub\n      swap1\n      return\n        /* \"MarketPlace.sol\":1676:1941  function createService(string memory description, uint value) public restricted{... */\n    tag_4:\n      callvalue\n      dup1\n      iszero\n      tag_20\n      jumpi\n      0x00\n      dup1\n      revert\n    tag_20:\n      pop\n      tag_21\n      0x04\n      dup1\n      calldatasize\n      sub\n      dup2\n      add\n      swap1\n      tag_22\n      swap2\n      swap1\n      tag_23\n      jump\t// in\n    tag_22:\n      tag_24\n      jump\t// in\n    tag_21:\n      stop\n        /* \"MarketPlace.sol\":1088:1117  Service[] public serviceTypes */\n    tag_5:\n      callvalue\n      dup1\n      iszero\n      tag_25\n      jumpi\n      0x00\n      dup1\n      revert\n    tag_25:\n      pop\n      tag_26\n      0x04\n      dup1\n      calldatasize\n      sub\n      dup2\n      add\n      swap1\n      tag_27\n      swap2\n      swap1\n      tag_13\n      jump\t// in\n    tag_27:\n      tag_28\n      jump\t// in\n    tag_26:\n      mload(0x40)\n      tag_29\n      swap4\n      swap3\n      swap2\n      swap1\n      tag_30\n      jump\t// in\n    tag_29:\n      mload(0x40)\n      dup1\n      swap2\n      sub\n      swap1\n      return\n        /* \"MarketPlace.sol\":3811:4264  function sellerApproval(uint index,uint sellOTP,uint buyOTP) public restricted{... */\n    tag_6:\n      callvalue\n      dup1\n      iszero\n      tag_31\n      jumpi\n      0x00\n      dup1\n      revert\n    tag_31:\n      pop\n      tag_32\n      0x04\n      dup1\n      calldatasize\n      sub\n      dup2\n      add\n      swap1\n      tag_33\n      swap2\n      swap1\n      tag_34\n      jump\t// in\n    tag_33:\n      tag_35\n      jump\t// in\n    tag_32:\n      stop\n        /* \"MarketPlace.sol\":1123:1155  ServiceRequest[] public services */\n    tag_7:\n      callvalue\n      dup1\n      iszero\n      tag_36\n      jumpi\n      0x00\n      dup1\n      revert\n    tag_36:\n      pop\n      tag_37\n      0x04\n      dup1\n      calldatasize\n      sub\n      dup2\n      add\n      swap1\n      tag_38\n      swap2\n      swap1\n      tag_13\n      jump\t// in\n    tag_38:\n      tag_39\n      jump\t// in\n    tag_37:\n      mload(0x40)\n      tag_40\n      swap5\n      swap4\n      swap3\n      swap2\n      swap1\n      tag_41\n      jump\t// in\n    tag_40:\n      mload(0x40)\n      dup1\n      swap2\n      sub\n      swap1\n      return\n        /* \"MarketPlace.sol\":1947:2619  function buyService(uint serviceIndex) public payable availability{... */\n    tag_8:\n      tag_42\n      0x04\n      dup1\n      calldatasize\n      sub\n      dup2\n      add\n      swap1\n      tag_43\n      swap2\n      swap1\n      tag_13\n      jump\t// in\n    tag_43:\n      tag_44\n      jump\t// in\n    tag_42:\n      stop\n        /* \"MarketPlace.sol\":3202:3805  function cancelServiceBuyer(uint index) public payable{... */\n    tag_9:\n      tag_45\n      0x04\n      dup1\n      calldatasize\n      sub\n      dup2\n      add\n      swap1\n      tag_46\n      swap2\n      swap1\n      tag_13\n      jump\t// in\n    tag_46:\n      tag_47\n      jump\t// in\n    tag_45:\n      stop\n        /* \"MarketPlace.sol\":2625:3196  function cancelRequestSeller(uint index) public payable restricted {... */\n    tag_14:\n        /* \"MarketPlace.sol\":1485:1491  seller */\n      0x04\n      0x00\n      swap1\n      sload\n      swap1\n      0x0100\n      exp\n      swap1\n      div\n      0xffffffffffffffffffffffffffffffffffffffff\n      and\n        /* \"MarketPlace.sol\":1471:1491  msg.sender == seller */\n      0xffffffffffffffffffffffffffffffffffffffff\n      and\n        /* \"MarketPlace.sol\":1471:1481  msg.sender */\n      caller\n        /* \"MarketPlace.sol\":1471:1491  msg.sender == seller */\n      0xffffffffffffffffffffffffffffffffffffffff\n      and\n      eq\n        /* \"MarketPlace.sol\":1463:1492  require(msg.sender == seller) */\n      tag_49\n      jumpi\n      0x00\n      dup1\n      revert\n    tag_49:\n        /* \"MarketPlace.sol\":2702:2732  ServiceRequest storage service */\n      0x00\n        /* \"MarketPlace.sol\":2735:2743  services */\n      0x01\n        /* \"MarketPlace.sol\":2744:2749  index */\n      dup3\n        /* \"MarketPlace.sol\":2735:2750  services[index] */\n      dup2\n      sload\n      dup2\n      lt\n      tag_51\n      jumpi\n      tag_52\n      tag_53\n      jump\t// in\n    tag_52:\n    tag_51:\n      swap1\n      0x00\n      mstore\n      keccak256(0x00, 0x20)\n      swap1\n      0x04\n      mul\n      add\n        /* \"MarketPlace.sol\":2702:2750  ServiceRequest storage service = services[index] */\n      swap1\n      pop\n        /* \"MarketPlace.sol\":2760:2787  Service storage serviceType */\n      0x00\n        /* \"MarketPlace.sol\":2790:2802  serviceTypes */\n      dup1\n        /* \"MarketPlace.sol\":2803:2810  service */\n      dup3\n        /* \"MarketPlace.sol\":2803:2822  service.serviceType */\n      0x00\n      add\n      sload\n        /* \"MarketPlace.sol\":2790:2823  serviceTypes[service.serviceType] */\n      dup2\n      sload\n      dup2\n      lt\n      tag_55\n      jumpi\n      tag_56\n      tag_53\n      jump\t// in\n    tag_56:\n    tag_55:\n      swap1\n      0x00\n      mstore\n      keccak256(0x00, 0x20)\n      swap1\n      0x03\n      mul\n      add\n        /* \"MarketPlace.sol\":2760:2823  Service storage serviceType = serviceTypes[service.serviceType] */\n      swap1\n      pop\n        /* \"MarketPlace.sol\":2853:2857  true */\n      0x01\n        /* \"MarketPlace.sol\":2834:2841  service */\n      dup3\n        /* \"MarketPlace.sol\":2834:2850  service.complete */\n      0x01\n      add\n      0x00\n        /* \"MarketPlace.sol\":2834:2857  service.complete = true */\n      0x0100\n      exp\n      dup2\n      sload\n      dup2\n      0xff\n      mul\n      not\n      and\n      swap1\n      dup4\n      iszero\n      iszero\n      mul\n      or\n      swap1\n      sstore\n      pop\n        /* \"MarketPlace.sol\":2894:2898  true */\n      0x01\n        /* \"MarketPlace.sol\":2867:2878  serviceType */\n      dup2\n        /* \"MarketPlace.sol\":2867:2891  serviceType.availability */\n      0x02\n      add\n      0x00\n        /* \"MarketPlace.sol\":2867:2898  serviceType.availability = true */\n      0x0100\n      exp\n      dup2\n      sload\n      dup2\n      0xff\n      mul\n      not\n      and\n      swap1\n      dup4\n      iszero\n      iszero\n      mul\n      or\n      swap1\n      sstore\n      pop\n        /* \"MarketPlace.sol\":2952:2962  30 minutes */\n      0x0708\n        /* \"MarketPlace.sol\":2930:2937  service */\n      dup3\n        /* \"MarketPlace.sol\":2930:2949  service.requestTime */\n      0x02\n      add\n      sload\n        /* \"MarketPlace.sol\":2930:2962  service.requestTime + 30 minutes */\n      tag_58\n      swap2\n      swap1\n      tag_59\n      jump\t// in\n    tag_58:\n        /* \"MarketPlace.sol\":2912:2927  block.timestamp */\n      timestamp\n        /* \"MarketPlace.sol\":2912:2962  block.timestamp < service.requestTime + 30 minutes */\n      lt\n        /* \"MarketPlace.sol\":2909:3189  if(block.timestamp < service.requestTime + 30 minutes){... */\n      iszero\n      tag_60\n      jumpi\n        /* \"MarketPlace.sol\":2986:2993  service */\n      dup2\n        /* \"MarketPlace.sol\":2986:2999  service.buyer */\n      0x03\n      add\n      0x00\n      swap1\n      sload\n      swap1\n      0x0100\n      exp\n      swap1\n      div\n      0xffffffffffffffffffffffffffffffffffffffff\n      and\n        /* \"MarketPlace.sol\":2978:3009  payable(service.buyer).transfer */\n      0xffffffffffffffffffffffffffffffffffffffff\n      and\n        /* \"MarketPlace.sol\":2978:3028  payable(service.buyer).transfer(serviceType.value) */\n      0x08fc\n        /* \"MarketPlace.sol\":3010:3021  serviceType */\n      dup3\n        /* \"MarketPlace.sol\":3010:3027  serviceType.value */\n      0x01\n      add\n      sload\n        /* \"MarketPlace.sol\":2978:3028  payable(service.buyer).transfer(serviceType.value) */\n      swap1\n      dup2\n      iszero\n      mul\n      swap1\n      mload(0x40)\n      0x00\n      mload(0x40)\n      dup1\n      dup4\n      sub\n      dup2\n      dup6\n      dup9\n      dup9\n      call\n      swap4\n      pop\n      pop\n      pop\n      pop\n      iszero\n      dup1\n      iszero\n      tag_62\n      jumpi\n      returndatasize\n      0x00\n      dup1\n      returndatacopy\n      revert(0x00, returndatasize)\n    tag_62:\n      pop\n        /* \"MarketPlace.sol\":3050:3056  seller */\n      0x04\n      0x00\n      swap1\n      sload\n      swap1\n      0x0100\n      exp\n      swap1\n      div\n      0xffffffffffffffffffffffffffffffffffffffff\n      and\n        /* \"MarketPlace.sol\":3042:3066  payable(seller).transfer */\n      0xffffffffffffffffffffffffffffffffffffffff\n      and\n        /* \"MarketPlace.sol\":3042:3077  payable(seller).transfer(msg.value) */\n      0x08fc\n        /* \"MarketPlace.sol\":3067:3076  msg.value */\n      callvalue\n        /* \"MarketPlace.sol\":3042:3077  payable(seller).transfer(msg.value) */\n      swap1\n      dup2\n      iszero\n      mul\n      swap1\n      mload(0x40)\n      0x00\n      mload(0x40)\n      dup1\n      dup4\n      sub\n      dup2\n      dup6\n      dup9\n      dup9\n      call\n      swap4\n      pop\n      pop\n      pop\n      pop\n      iszero\n      dup1\n      iszero\n      tag_64\n      jumpi\n      returndatasize\n      0x00\n      dup1\n      returndatacopy\n      revert(0x00, returndatasize)\n    tag_64:\n      pop\n        /* \"MarketPlace.sol\":2909:3189  if(block.timestamp < service.requestTime + 30 minutes){... */\n      jump(tag_65)\n    tag_60:\n        /* \"MarketPlace.sol\":3124:3131  service */\n      dup2\n        /* \"MarketPlace.sol\":3124:3137  service.buyer */\n      0x03\n      add\n      0x00\n      swap1\n      sload\n      swap1\n      0x0100\n      exp\n      swap1\n      div\n      0xffffffffffffffffffffffffffffffffffffffff\n      and\n        /* \"MarketPlace.sol\":3116:3147  payable(service.buyer).transfer */\n      0xffffffffffffffffffffffffffffffffffffffff\n      and\n        /* \"MarketPlace.sol\":3116:3178  payable(service.buyer).transfer(serviceType.value + msg.value) */\n      0x08fc\n        /* \"MarketPlace.sol\":3168:3177  msg.value */\n      callvalue\n        /* \"MarketPlace.sol\":3148:3159  serviceType */\n      dup4\n        /* \"MarketPlace.sol\":3148:3165  serviceType.value */\n      0x01\n      add\n      sload\n        /* \"MarketPlace.sol\":3148:3177  serviceType.value + msg.value */\n      tag_66\n      swap2\n      swap1\n      tag_59\n      jump\t// in\n    tag_66:\n        /* \"MarketPlace.sol\":3116:3178  payable(service.buyer).transfer(serviceType.value + msg.value) */\n      swap1\n      dup2\n      iszero\n      mul\n      swap1\n      mload(0x40)\n      0x00\n      mload(0x40)\n      dup1\n      dup4\n      sub\n      dup2\n      dup6\n      dup9\n      dup9\n      call\n      swap4\n      pop\n      pop\n      pop\n      pop\n      iszero\n      dup1\n      iszero\n      tag_68\n      jumpi\n      returndatasize\n      0x00\n      dup1\n      returndatacopy\n      revert(0x00, returndatasize)\n    tag_68:\n      pop\n        /* \"MarketPlace.sol\":2909:3189  if(block.timestamp < service.requestTime + 30 minutes){... */\n    tag_65:\n        /* \"MarketPlace.sol\":2692:3196  {... */\n      pop\n      pop\n        /* \"MarketPlace.sol\":2625:3196  function cancelRequestSeller(uint index) public payable restricted {... */\n      pop\n      jump\t// out\n        /* \"MarketPlace.sol\":1201:1222  address public seller */\n    tag_17:\n      0x04\n      0x00\n      swap1\n      sload\n      swap1\n      0x0100\n      exp\n      swap1\n      div\n      0xffffffffffffffffffffffffffffffffffffffff\n      and\n      dup2\n      jump\t// out\n        /* \"MarketPlace.sol\":1676:1941  function createService(string memory description, uint value) public restricted{... */\n    tag_24:\n        /* \"MarketPlace.sol\":1485:1491  seller */\n      0x04\n      0x00\n      swap1\n      sload\n      swap1\n      0x0100\n      exp\n      swap1\n      div\n      0xffffffffffffffffffffffffffffffffffffffff\n      and\n        /* \"MarketPlace.sol\":1471:1491  msg.sender == seller */\n      0xffffffffffffffffffffffffffffffffffffffff\n      and\n        /* \"MarketPlace.sol\":1471:1481  msg.sender */\n      caller\n        /* \"MarketPlace.sol\":1471:1491  msg.sender == seller */\n      0xffffffffffffffffffffffffffffffffffffffff\n      and\n      eq\n        /* \"MarketPlace.sol\":1463:1492  require(msg.sender == seller) */\n      tag_70\n      jumpi\n      0x00\n      dup1\n      revert\n    tag_70:\n        /* \"MarketPlace.sol\":1765:1791  Service storage newService */\n      0x00\n        /* \"MarketPlace.sol\":1794:1806  serviceTypes */\n      dup1\n        /* \"MarketPlace.sol\":1794:1813  serviceTypes.push() */\n      0x01\n      dup2\n      0x01\n      dup2\n      sload\n      add\n      dup1\n      dup3\n      sstore\n      dup1\n      swap2\n      pop\n      pop\n      sub\n      swap1\n      0x00\n      mstore\n      keccak256(0x00, 0x20)\n      swap1\n      0x03\n      mul\n      add\n        /* \"MarketPlace.sol\":1765:1813  Service storage newService = serviceTypes.push() */\n      swap1\n      pop\n        /* \"MarketPlace.sol\":1849:1860  description */\n      dup3\n        /* \"MarketPlace.sol\":1824:1834  newService */\n      dup2\n        /* \"MarketPlace.sol\":1824:1846  newService.description */\n      0x00\n      add\n        /* \"MarketPlace.sol\":1824:1860  newService.description = description */\n      swap1\n      dup1\n      mload\n      swap1\n      0x20\n      add\n      swap1\n      tag_73\n      swap3\n      swap2\n      swap1\n      tag_74\n      jump\t// in\n    tag_73:\n      pop\n        /* \"MarketPlace.sol\":1889:1894  value */\n      dup2\n        /* \"MarketPlace.sol\":1870:1880  newService */\n      dup2\n        /* \"MarketPlace.sol\":1870:1886  newService.value */\n      0x01\n      add\n        /* \"MarketPlace.sol\":1870:1894  newService.value = value */\n      dup2\n      swap1\n      sstore\n      pop\n        /* \"MarketPlace.sol\":1930:1934  true */\n      0x01\n        /* \"MarketPlace.sol\":1904:1914  newService */\n      dup2\n        /* \"MarketPlace.sol\":1904:1927  newService.availability */\n      0x02\n      add\n      0x00\n        /* \"MarketPlace.sol\":1904:1934  newService.availability = true */\n      0x0100\n      exp\n      dup2\n      sload\n      dup2\n      0xff\n      mul\n      not\n      and\n      swap1\n      dup4\n      iszero\n      iszero\n      mul\n      or\n      swap1\n      sstore\n      pop\n        /* \"MarketPlace.sol\":1755:1941  {... */\n      pop\n        /* \"MarketPlace.sol\":1676:1941  function createService(string memory description, uint value) public restricted{... */\n      pop\n      pop\n      jump\t// out\n        /* \"MarketPlace.sol\":1088:1117  Service[] public serviceTypes */\n    tag_28:\n      0x00\n      dup2\n      dup2\n      sload\n      dup2\n      lt\n      tag_75\n      jumpi\n      0x00\n      dup1\n      revert\n    tag_75:\n      swap1\n      0x00\n      mstore\n      keccak256(0x00, 0x20)\n      swap1\n      0x03\n      mul\n      add\n      0x00\n      swap2\n      pop\n      swap1\n      pop\n      dup1\n      0x00\n      add\n      dup1\n      sload\n      tag_77\n      swap1\n      tag_78\n      jump\t// in\n    tag_77:\n      dup1\n      0x1f\n      add\n      0x20\n      dup1\n      swap2\n      div\n      mul\n      0x20\n      add\n      mload(0x40)\n      swap1\n      dup2\n      add\n      0x40\n      mstore\n      dup1\n      swap3\n      swap2\n      swap1\n      dup2\n      dup2\n      mstore\n      0x20\n      add\n      dup3\n      dup1\n      sload\n      tag_79\n      swap1\n      tag_78\n      jump\t// in\n    tag_79:\n      dup1\n      iszero\n      tag_80\n      jumpi\n      dup1\n      0x1f\n      lt\n      tag_81\n      jumpi\n      0x0100\n      dup1\n      dup4\n      sload\n      div\n      mul\n      dup4\n      mstore\n      swap2\n      0x20\n      add\n      swap2\n      jump(tag_80)\n    tag_81:\n      dup3\n      add\n      swap2\n      swap1\n      0x00\n      mstore\n      keccak256(0x00, 0x20)\n      swap1\n    tag_82:\n      dup2\n      sload\n      dup2\n      mstore\n      swap1\n      0x01\n      add\n      swap1\n      0x20\n      add\n      dup1\n      dup4\n      gt\n      tag_82\n      jumpi\n      dup3\n      swap1\n      sub\n      0x1f\n      and\n      dup3\n      add\n      swap2\n    tag_80:\n      pop\n      pop\n      pop\n      pop\n      pop\n      swap1\n      dup1\n      0x01\n      add\n      sload\n      swap1\n      dup1\n      0x02\n      add\n      0x00\n      swap1\n      sload\n      swap1\n      0x0100\n      exp\n      swap1\n      div\n      0xff\n      and\n      swap1\n      pop\n      dup4\n      jump\t// out\n        /* \"MarketPlace.sol\":3811:4264  function sellerApproval(uint index,uint sellOTP,uint buyOTP) public restricted{... */\n    tag_35:\n        /* \"MarketPlace.sol\":1485:1491  seller */\n      0x04\n      0x00\n      swap1\n      sload\n      swap1\n      0x0100\n      exp\n      swap1\n      div\n      0xffffffffffffffffffffffffffffffffffffffff\n      and\n        /* \"MarketPlace.sol\":1471:1491  msg.sender == seller */\n      0xffffffffffffffffffffffffffffffffffffffff\n      and\n        /* \"MarketPlace.sol\":1471:1481  msg.sender */\n      caller\n        /* \"MarketPlace.sol\":1471:1491  msg.sender == seller */\n      0xffffffffffffffffffffffffffffffffffffffff\n      and\n      eq\n        /* \"MarketPlace.sol\":1463:1492  require(msg.sender == seller) */\n      tag_84\n      jumpi\n      0x00\n      dup1\n      revert\n    tag_84:\n        /* \"MarketPlace.sol\":3899:3929  ServiceRequest storage service */\n      0x00\n        /* \"MarketPlace.sol\":3932:3940  services */\n      0x01\n        /* \"MarketPlace.sol\":3941:3946  index */\n      dup5\n        /* \"MarketPlace.sol\":3932:3947  services[index] */\n      dup2\n      sload\n      dup2\n      lt\n      tag_86\n      jumpi\n      tag_87\n      tag_53\n      jump\t// in\n    tag_87:\n    tag_86:\n      swap1\n      0x00\n      mstore\n      keccak256(0x00, 0x20)\n      swap1\n      0x04\n      mul\n      add\n        /* \"MarketPlace.sol\":3899:3947  ServiceRequest storage service = services[index] */\n      swap1\n      pop\n        /* \"MarketPlace.sol\":4000:4007  sellOTP */\n      dup3\n        /* \"MarketPlace.sol\":3966:3975  sellerOTP */\n      0x06\n        /* \"MarketPlace.sol\":3966:3996  sellerOTP[service.requestTime] */\n      0x00\n        /* \"MarketPlace.sol\":3976:3983  service */\n      dup4\n        /* \"MarketPlace.sol\":3976:3995  service.requestTime */\n      0x02\n      add\n      sload\n        /* \"MarketPlace.sol\":3966:3996  sellerOTP[service.requestTime] */\n      dup2\n      mstore\n      0x20\n      add\n      swap1\n      dup2\n      mstore\n      0x20\n      add\n      0x00\n      keccak256\n      sload\n        /* \"MarketPlace.sol\":3966:4007  sellerOTP[service.requestTime] == sellOTP */\n      eq\n        /* \"MarketPlace.sol\":3966:4050  sellerOTP[service.requestTime] == sellOTP && buyerOTP[service.requestTime] == buyOTP */\n      dup1\n      iszero\n      tag_89\n      jumpi\n      pop\n        /* \"MarketPlace.sol\":4044:4050  buyOTP */\n      dup2\n        /* \"MarketPlace.sol\":4011:4019  buyerOTP */\n      0x07\n        /* \"MarketPlace.sol\":4011:4040  buyerOTP[service.requestTime] */\n      0x00\n        /* \"MarketPlace.sol\":4020:4027  service */\n      dup4\n        /* \"MarketPlace.sol\":4020:4039  service.requestTime */\n      0x02\n      add\n      sload\n        /* \"MarketPlace.sol\":4011:4040  buyerOTP[service.requestTime] */\n      dup2\n      mstore\n      0x20\n      add\n      swap1\n      dup2\n      mstore\n      0x20\n      add\n      0x00\n      keccak256\n      sload\n        /* \"MarketPlace.sol\":4011:4050  buyerOTP[service.requestTime] == buyOTP */\n      eq\n        /* \"MarketPlace.sol\":3966:4050  sellerOTP[service.requestTime] == sellOTP && buyerOTP[service.requestTime] == buyOTP */\n    tag_89:\n        /* \"MarketPlace.sol\":3958:4051  require(sellerOTP[service.requestTime] == sellOTP && buyerOTP[service.requestTime] == buyOTP) */\n      tag_90\n      jumpi\n      0x00\n      dup1\n      revert\n    tag_90:\n        /* \"MarketPlace.sol\":4081:4085  true */\n      0x01\n        /* \"MarketPlace.sol\":4062:4069  service */\n      dup2\n        /* \"MarketPlace.sol\":4062:4078  service.complete */\n      0x01\n      add\n      0x00\n        /* \"MarketPlace.sol\":4062:4085  service.complete = true */\n      0x0100\n      exp\n      dup2\n      sload\n      dup2\n      0xff\n      mul\n      not\n      and\n      swap1\n      dup4\n      iszero\n      iszero\n      mul\n      or\n      swap1\n      sstore\n      pop\n        /* \"MarketPlace.sol\":4096:4123  Service storage serviceType */\n      0x00\n        /* \"MarketPlace.sol\":4126:4138  serviceTypes */\n      dup1\n        /* \"MarketPlace.sol\":4139:4146  service */\n      dup3\n        /* \"MarketPlace.sol\":4139:4158  service.serviceType */\n      0x00\n      add\n      sload\n        /* \"MarketPlace.sol\":4126:4159  serviceTypes[service.serviceType] */\n      dup2\n      sload\n      dup2\n      lt\n      tag_91\n      jumpi\n      tag_92\n      tag_53\n      jump\t// in\n    tag_92:\n    tag_91:\n      swap1\n      0x00\n      mstore\n      keccak256(0x00, 0x20)\n      swap1\n      0x03\n      mul\n      add\n        /* \"MarketPlace.sol\":4096:4159  Service storage serviceType = serviceTypes[service.serviceType] */\n      swap1\n      pop\n        /* \"MarketPlace.sol\":4178:4184  seller */\n      0x04\n      0x00\n      swap1\n      sload\n      swap1\n      0x0100\n      exp\n      swap1\n      div\n      0xffffffffffffffffffffffffffffffffffffffff\n      and\n        /* \"MarketPlace.sol\":4170:4194  payable(seller).transfer */\n      0xffffffffffffffffffffffffffffffffffffffff\n      and\n        /* \"MarketPlace.sol\":4170:4213  payable(seller).transfer(serviceType.value) */\n      0x08fc\n        /* \"MarketPlace.sol\":4195:4206  serviceType */\n      dup3\n        /* \"MarketPlace.sol\":4195:4212  serviceType.value */\n      0x01\n      add\n      sload\n        /* \"MarketPlace.sol\":4170:4213  payable(seller).transfer(serviceType.value) */\n      swap1\n      dup2\n      iszero\n      mul\n      swap1\n      mload(0x40)\n      0x00\n      mload(0x40)\n      dup1\n      dup4\n      sub\n      dup2\n      dup6\n      dup9\n      dup9\n      call\n      swap4\n      pop\n      pop\n      pop\n      pop\n      iszero\n      dup1\n      iszero\n      tag_95\n      jumpi\n      returndatasize\n      0x00\n      dup1\n      returndatacopy\n      revert(0x00, returndatasize)\n    tag_95:\n      pop\n        /* \"MarketPlace.sol\":4250:4254  true */\n      0x01\n        /* \"MarketPlace.sol\":4223:4234  serviceType */\n      dup2\n        /* \"MarketPlace.sol\":4223:4247  serviceType.availability */\n      0x02\n      add\n      0x00\n        /* \"MarketPlace.sol\":4223:4254  serviceType.availability = true */\n      0x0100\n      exp\n      dup2\n      sload\n      dup2\n      0xff\n      mul\n      not\n      and\n      swap1\n      dup4\n      iszero\n      iszero\n      mul\n      or\n      swap1\n      sstore\n      pop\n        /* \"MarketPlace.sol\":3889:4264  {... */\n      pop\n      pop\n        /* \"MarketPlace.sol\":3811:4264  function sellerApproval(uint index,uint sellOTP,uint buyOTP) public restricted{... */\n      pop\n      pop\n      pop\n      jump\t// out\n        /* \"MarketPlace.sol\":1123:1155  ServiceRequest[] public services */\n    tag_39:\n      0x01\n      dup2\n      dup2\n      sload\n      dup2\n      lt\n      tag_96\n      jumpi\n      0x00\n      dup1\n      revert\n    tag_96:\n      swap1\n      0x00\n      mstore\n      keccak256(0x00, 0x20)\n      swap1\n      0x04\n      mul\n      add\n      0x00\n      swap2\n      pop\n      swap1\n      pop\n      dup1\n      0x00\n      add\n      sload\n      swap1\n      dup1\n      0x01\n      add\n      0x00\n      swap1\n      sload\n      swap1\n      0x0100\n      exp\n      swap1\n      div\n      0xff\n      and\n      swap1\n      dup1\n      0x02\n      add\n      sload\n      swap1\n      dup1\n      0x03\n      add\n      0x00\n      swap1\n      sload\n      swap1\n      0x0100\n      exp\n      swap1\n      div\n      0xffffffffffffffffffffffffffffffffffffffff\n      and\n      swap1\n      pop\n      dup5\n      jump\t// out\n        /* \"MarketPlace.sol\":1947:2619  function buyService(uint serviceIndex) public payable availability{... */\n    tag_44:\n        /* \"MarketPlace.sol\":1402:1406  true */\n      0x01\n        /* \"MarketPlace.sol\":1389:1406  available == true */\n      iszero\n      iszero\n        /* \"MarketPlace.sol\":1389:1398  available */\n      0x02\n      0x00\n      swap1\n      sload\n      swap1\n      0x0100\n      exp\n      swap1\n      div\n      0xff\n      and\n        /* \"MarketPlace.sol\":1389:1406  available == true */\n      iszero\n      iszero\n      eq\n        /* \"MarketPlace.sol\":1381:1407  require(available == true) */\n      tag_99\n      jumpi\n      0x00\n      dup1\n      revert\n    tag_99:\n        /* \"MarketPlace.sol\":2024:2054  ServiceRequest storage service */\n      0x00\n        /* \"MarketPlace.sol\":2057:2065  services */\n      0x01\n        /* \"MarketPlace.sol\":2057:2072  services.push() */\n      dup1\n      dup2\n      0x01\n      dup2\n      sload\n      add\n      dup1\n      dup3\n      sstore\n      dup1\n      swap2\n      pop\n      pop\n      sub\n      swap1\n      0x00\n      mstore\n      keccak256(0x00, 0x20)\n      swap1\n      0x04\n      mul\n      add\n        /* \"MarketPlace.sol\":2024:2072  ServiceRequest storage service = services.push() */\n      swap1\n      pop\n        /* \"MarketPlace.sol\":2082:2109  Service storage serviceType */\n      0x00\n        /* \"MarketPlace.sol\":2112:2124  serviceTypes */\n      dup1\n        /* \"MarketPlace.sol\":2125:2137  serviceIndex */\n      dup4\n        /* \"MarketPlace.sol\":2112:2138  serviceTypes[serviceIndex] */\n      dup2\n      sload\n      dup2\n      lt\n      tag_102\n      jumpi\n      tag_103\n      tag_53\n      jump\t// in\n    tag_103:\n    tag_102:\n      swap1\n      0x00\n      mstore\n      keccak256(0x00, 0x20)\n      swap1\n      0x03\n      mul\n      add\n        /* \"MarketPlace.sol\":2082:2138  Service storage serviceType = serviceTypes[serviceIndex] */\n      swap1\n      pop\n        /* \"MarketPlace.sol\":2170:2181  serviceType */\n      dup1\n        /* \"MarketPlace.sol\":2170:2187  serviceType.value */\n      0x01\n      add\n      sload\n        /* \"MarketPlace.sol\":2157:2166  msg.value */\n      callvalue\n        /* \"MarketPlace.sol\":2157:2187  msg.value == serviceType.value */\n      eq\n        /* \"MarketPlace.sol\":2149:2188  require(msg.value == serviceType.value) */\n      tag_105\n      jumpi\n      0x00\n      dup1\n      revert\n    tag_105:\n        /* \"MarketPlace.sol\":2221:2236  block.timestamp */\n      timestamp\n        /* \"MarketPlace.sol\":2199:2206  service */\n      dup3\n        /* \"MarketPlace.sol\":2199:2218  service.requestTime */\n      0x02\n      add\n        /* \"MarketPlace.sol\":2199:2236  service.requestTime = block.timestamp */\n      dup2\n      swap1\n      sstore\n      pop\n        /* \"MarketPlace.sol\":2268:2280  serviceIndex */\n      dup3\n        /* \"MarketPlace.sol\":2246:2253  service */\n      dup3\n        /* \"MarketPlace.sol\":2246:2265  service.serviceType */\n      0x00\n      add\n        /* \"MarketPlace.sol\":2246:2280  service.serviceType = serviceIndex */\n      dup2\n      swap1\n      sstore\n      pop\n        /* \"MarketPlace.sol\":2306:2316  msg.sender */\n      caller\n        /* \"MarketPlace.sol\":2290:2297  service */\n      dup3\n        /* \"MarketPlace.sol\":2290:2303  service.buyer */\n      0x03\n      add\n      0x00\n        /* \"MarketPlace.sol\":2290:2316  service.buyer = msg.sender */\n      0x0100\n      exp\n      dup2\n      sload\n      dup2\n      0xffffffffffffffffffffffffffffffffffffffff\n      mul\n      not\n      and\n      swap1\n      dup4\n      0xffffffffffffffffffffffffffffffffffffffff\n      and\n      mul\n      or\n      swap1\n      sstore\n      pop\n        /* \"MarketPlace.sol\":2345:2350  false */\n      0x00\n        /* \"MarketPlace.sol\":2326:2333  service */\n      dup3\n        /* \"MarketPlace.sol\":2326:2342  service.complete */\n      0x01\n      add\n      0x00\n        /* \"MarketPlace.sol\":2326:2350  service.complete = false */\n      0x0100\n      exp\n      dup2\n      sload\n      dup2\n      0xff\n      mul\n      not\n      and\n      swap1\n      dup4\n      iszero\n      iszero\n      mul\n      or\n      swap1\n      sstore\n      pop\n        /* \"MarketPlace.sol\":2477:2481  1000 */\n      0x03e8\n        /* \"MarketPlace.sol\":2426:2441  block.timestamp */\n      timestamp\n        /* \"MarketPlace.sol\":2442:2458  block.difficulty */\n      difficulty\n        /* \"MarketPlace.sol\":2461:2471  msg.sender */\n      caller\n        /* \"MarketPlace.sol\":2409:2472  abi.encodePacked(block.timestamp,block.difficulty,... */\n      add(0x20, mload(0x40))\n      tag_106\n      swap4\n      swap3\n      swap2\n      swap1\n      tag_107\n      jump\t// in\n    tag_106:\n      mload(0x40)\n      0x20\n      dup2\n      dup4\n      sub\n      sub\n      dup2\n      mstore\n      swap1\n      0x40\n      mstore\n        /* \"MarketPlace.sol\":2399:2473  keccak256(abi.encodePacked(block.timestamp,block.difficulty,... */\n      dup1\n      mload\n      swap1\n      0x20\n      add\n      keccak256\n        /* \"MarketPlace.sol\":2394:2474  uint(keccak256(abi.encodePacked(block.timestamp,block.difficulty,... */\n      0x00\n      shr\n        /* \"MarketPlace.sol\":2394:2481  uint(keccak256(abi.encodePacked(block.timestamp,block.difficulty,... */\n      tag_108\n      swap2\n      swap1\n      tag_109\n      jump\t// in\n    tag_108:\n        /* \"MarketPlace.sol\":2361:2370  sellerOTP */\n      0x06\n        /* \"MarketPlace.sol\":2361:2391  sellerOTP[service.requestTime] */\n      0x00\n        /* \"MarketPlace.sol\":2371:2378  service */\n      dup5\n        /* \"MarketPlace.sol\":2371:2390  service.requestTime */\n      0x02\n      add\n      sload\n        /* \"MarketPlace.sol\":2361:2391  sellerOTP[service.requestTime] */\n      dup2\n      mstore\n      0x20\n      add\n      swap1\n      dup2\n      mstore\n      0x20\n      add\n      0x00\n      keccak256\n        /* \"MarketPlace.sol\":2361:2481  sellerOTP[service.requestTime] = uint(keccak256(abi.encodePacked(block.timestamp,block.difficulty,... */\n      dup2\n      swap1\n      sstore\n      pop\n        /* \"MarketPlace.sol\":2607:2611  1000 */\n      0x03e8\n        /* \"MarketPlace.sol\":2556:2571  block.timestamp */\n      timestamp\n        /* \"MarketPlace.sol\":2572:2588  block.difficulty */\n      difficulty\n        /* \"MarketPlace.sol\":2591:2601  msg.sender */\n      caller\n        /* \"MarketPlace.sol\":2539:2602  abi.encodePacked(block.timestamp,block.difficulty,... */\n      add(0x20, mload(0x40))\n      tag_110\n      swap4\n      swap3\n      swap2\n      swap1\n      tag_107\n      jump\t// in\n    tag_110:\n      mload(0x40)\n      0x20\n      dup2\n      dup4\n      sub\n      sub\n      dup2\n      mstore\n      swap1\n      0x40\n      mstore\n        /* \"MarketPlace.sol\":2529:2603  keccak256(abi.encodePacked(block.timestamp,block.difficulty,... */\n      dup1\n      mload\n      swap1\n      0x20\n      add\n      keccak256\n        /* \"MarketPlace.sol\":2524:2604  uint(keccak256(abi.encodePacked(block.timestamp,block.difficulty,... */\n      0x00\n      shr\n        /* \"MarketPlace.sol\":2524:2611  uint(keccak256(abi.encodePacked(block.timestamp,block.difficulty,... */\n      tag_111\n      swap2\n      swap1\n      tag_109\n      jump\t// in\n    tag_111:\n        /* \"MarketPlace.sol\":2492:2500  buyerOTP */\n      0x07\n        /* \"MarketPlace.sol\":2492:2521  buyerOTP[service.requestTime] */\n      0x00\n        /* \"MarketPlace.sol\":2501:2508  service */\n      dup5\n        /* \"MarketPlace.sol\":2501:2520  service.requestTime */\n      0x02\n      add\n      sload\n        /* \"MarketPlace.sol\":2492:2521  buyerOTP[service.requestTime] */\n      dup2\n      mstore\n      0x20\n      add\n      swap1\n      dup2\n      mstore\n      0x20\n      add\n      0x00\n      keccak256\n        /* \"MarketPlace.sol\":2492:2611  buyerOTP[service.requestTime] = uint(keccak256(abi.encodePacked(block.timestamp,block.difficulty,... */\n      dup2\n      swap1\n      sstore\n      pop\n        /* \"MarketPlace.sol\":2013:2619  {... */\n      pop\n      pop\n        /* \"MarketPlace.sol\":1947:2619  function buyService(uint serviceIndex) public payable availability{... */\n      pop\n      jump\t// out\n        /* \"MarketPlace.sol\":3202:3805  function cancelServiceBuyer(uint index) public payable{... */\n    tag_47:\n        /* \"MarketPlace.sol\":3266:3296  ServiceRequest storage service */\n      0x00\n        /* \"MarketPlace.sol\":3299:3307  services */\n      0x01\n        /* \"MarketPlace.sol\":3308:3313  index */\n      dup3\n        /* \"MarketPlace.sol\":3299:3314  services[index] */\n      dup2\n      sload\n      dup2\n      lt\n      tag_113\n      jumpi\n      tag_114\n      tag_53\n      jump\t// in\n    tag_114:\n    tag_113:\n      swap1\n      0x00\n      mstore\n      keccak256(0x00, 0x20)\n      swap1\n      0x04\n      mul\n      add\n        /* \"MarketPlace.sol\":3266:3314  ServiceRequest storage service = services[index] */\n      swap1\n      pop\n        /* \"MarketPlace.sol\":3324:3351  Service storage serviceType */\n      0x00\n        /* \"MarketPlace.sol\":3354:3366  serviceTypes */\n      dup1\n        /* \"MarketPlace.sol\":3367:3374  service */\n      dup3\n        /* \"MarketPlace.sol\":3367:3386  service.serviceType */\n      0x00\n      add\n      sload\n        /* \"MarketPlace.sol\":3354:3387  serviceTypes[service.serviceType] */\n      dup2\n      sload\n      dup2\n      lt\n      tag_116\n      jumpi\n      tag_117\n      tag_53\n      jump\t// in\n    tag_117:\n    tag_116:\n      swap1\n      0x00\n      mstore\n      keccak256(0x00, 0x20)\n      swap1\n      0x03\n      mul\n      add\n        /* \"MarketPlace.sol\":3324:3387  Service storage serviceType = serviceTypes[service.serviceType] */\n      swap1\n      pop\n        /* \"MarketPlace.sol\":3420:3427  service */\n      dup2\n        /* \"MarketPlace.sol\":3420:3433  service.buyer */\n      0x03\n      add\n      0x00\n      swap1\n      sload\n      swap1\n      0x0100\n      exp\n      swap1\n      div\n      0xffffffffffffffffffffffffffffffffffffffff\n      and\n        /* \"MarketPlace.sol\":3406:3433  msg.sender == service.buyer */\n      0xffffffffffffffffffffffffffffffffffffffff\n      and\n        /* \"MarketPlace.sol\":3406:3416  msg.sender */\n      caller\n        /* \"MarketPlace.sol\":3406:3433  msg.sender == service.buyer */\n      0xffffffffffffffffffffffffffffffffffffffff\n      and\n      eq\n        /* \"MarketPlace.sol\":3398:3434  require(msg.sender == service.buyer) */\n      tag_119\n      jumpi\n      0x00\n      dup1\n      revert\n    tag_119:\n        /* \"MarketPlace.sol\":3464:3468  true */\n      0x01\n        /* \"MarketPlace.sol\":3445:3452  service */\n      dup3\n        /* \"MarketPlace.sol\":3445:3461  service.complete */\n      0x01\n      add\n      0x00\n        /* \"MarketPlace.sol\":3445:3468  service.complete = true */\n      0x0100\n      exp\n      dup2\n      sload\n      dup2\n      0xff\n      mul\n      not\n      and\n      swap1\n      dup4\n      iszero\n      iszero\n      mul\n      or\n      swap1\n      sstore\n      pop\n        /* \"MarketPlace.sol\":3505:3509  true */\n      0x01\n        /* \"MarketPlace.sol\":3478:3489  serviceType */\n      dup2\n        /* \"MarketPlace.sol\":3478:3502  serviceType.availability */\n      0x02\n      add\n      0x00\n        /* \"MarketPlace.sol\":3478:3509  serviceType.availability = true */\n      0x0100\n      exp\n      dup2\n      sload\n      dup2\n      0xff\n      mul\n      not\n      and\n      swap1\n      dup4\n      iszero\n      iszero\n      mul\n      or\n      swap1\n      sstore\n      pop\n        /* \"MarketPlace.sol\":3563:3573  30 minutes */\n      0x0708\n        /* \"MarketPlace.sol\":3541:3548  service */\n      dup3\n        /* \"MarketPlace.sol\":3541:3560  service.requestTime */\n      0x02\n      add\n      sload\n        /* \"MarketPlace.sol\":3541:3573  service.requestTime + 30 minutes */\n      tag_120\n      swap2\n      swap1\n      tag_59\n      jump\t// in\n    tag_120:\n        /* \"MarketPlace.sol\":3523:3538  block.timestamp */\n      timestamp\n        /* \"MarketPlace.sol\":3523:3573  block.timestamp < service.requestTime + 30 minutes */\n      lt\n        /* \"MarketPlace.sol\":3520:3799  if(block.timestamp < service.requestTime + 30 minutes){... */\n      iszero\n      tag_121\n      jumpi\n        /* \"MarketPlace.sol\":3596:3603  service */\n      dup2\n        /* \"MarketPlace.sol\":3596:3609  service.buyer */\n      0x03\n      add\n      0x00\n      swap1\n      sload\n      swap1\n      0x0100\n      exp\n      swap1\n      div\n      0xffffffffffffffffffffffffffffffffffffffff\n      and\n        /* \"MarketPlace.sol\":3588:3619  payable(service.buyer).transfer */\n      0xffffffffffffffffffffffffffffffffffffffff\n      and\n        /* \"MarketPlace.sol\":3588:3650  payable(service.buyer).transfer(serviceType.value + msg.value) */\n      0x08fc\n        /* \"MarketPlace.sol\":3640:3649  msg.value */\n      callvalue\n        /* \"MarketPlace.sol\":3620:3631  serviceType */\n      dup4\n        /* \"MarketPlace.sol\":3620:3637  serviceType.value */\n      0x01\n      add\n      sload\n        /* \"MarketPlace.sol\":3620:3649  serviceType.value + msg.value */\n      tag_122\n      swap2\n      swap1\n      tag_59\n      jump\t// in\n    tag_122:\n        /* \"MarketPlace.sol\":3588:3650  payable(service.buyer).transfer(serviceType.value + msg.value) */\n      swap1\n      dup2\n      iszero\n      mul\n      swap1\n      mload(0x40)\n      0x00\n      mload(0x40)\n      dup1\n      dup4\n      sub\n      dup2\n      dup6\n      dup9\n      dup9\n      call\n      swap4\n      pop\n      pop\n      pop\n      pop\n      iszero\n      dup1\n      iszero\n      tag_124\n      jumpi\n      returndatasize\n      0x00\n      dup1\n      returndatacopy\n      revert(0x00, returndatasize)\n    tag_124:\n      pop\n        /* \"MarketPlace.sol\":3520:3799  if(block.timestamp < service.requestTime + 30 minutes){... */\n      jump(tag_125)\n    tag_121:\n        /* \"MarketPlace.sol\":3697:3703  seller */\n      0x04\n      0x00\n      swap1\n      sload\n      swap1\n      0x0100\n      exp\n      swap1\n      div\n      0xffffffffffffffffffffffffffffffffffffffff\n      and\n        /* \"MarketPlace.sol\":3689:3713  payable(seller).transfer */\n      0xffffffffffffffffffffffffffffffffffffffff\n      and\n        /* \"MarketPlace.sol\":3689:3724  payable(seller).transfer(msg.value) */\n      0x08fc\n        /* \"MarketPlace.sol\":3714:3723  msg.value */\n      callvalue\n        /* \"MarketPlace.sol\":3689:3724  payable(seller).transfer(msg.value) */\n      swap1\n      dup2\n      iszero\n      mul\n      swap1\n      mload(0x40)\n      0x00\n      mload(0x40)\n      dup1\n      dup4\n      sub\n      dup2\n      dup6\n      dup9\n      dup9\n      call\n      swap4\n      pop\n      pop\n      pop\n      pop\n      iszero\n      dup1\n      iszero\n      tag_127\n      jumpi\n      returndatasize\n      0x00\n      dup1\n      returndatacopy\n      revert(0x00, returndatasize)\n    tag_127:\n      pop\n        /* \"MarketPlace.sol\":3746:3753  service */\n      dup2\n        /* \"MarketPlace.sol\":3746:3759  service.buyer */\n      0x03\n      add\n      0x00\n      swap1\n      sload\n      swap1\n      0x0100\n      exp\n      swap1\n      div\n      0xffffffffffffffffffffffffffffffffffffffff\n      and\n        /* \"MarketPlace.sol\":3738:3769  payable(service.buyer).transfer */\n      0xffffffffffffffffffffffffffffffffffffffff\n      and\n        /* \"MarketPlace.sol\":3738:3788  payable(service.buyer).transfer(serviceType.value) */\n      0x08fc\n        /* \"MarketPlace.sol\":3770:3781  serviceType */\n      dup3\n        /* \"MarketPlace.sol\":3770:3787  serviceType.value */\n      0x01\n      add\n      sload\n        /* \"MarketPlace.sol\":3738:3788  payable(service.buyer).transfer(serviceType.value) */\n      swap1\n      dup2\n      iszero\n      mul\n      swap1\n      mload(0x40)\n      0x00\n      mload(0x40)\n      dup1\n      dup4\n      sub\n      dup2\n      dup6\n      dup9\n      dup9\n      call\n      swap4\n      pop\n      pop\n      pop\n      pop\n      iszero\n      dup1\n      iszero\n      tag_129\n      jumpi\n      returndatasize\n      0x00\n      dup1\n      returndatacopy\n      revert(0x00, returndatasize)\n    tag_129:\n      pop\n        /* \"MarketPlace.sol\":3520:3799  if(block.timestamp < service.requestTime + 30 minutes){... */\n    tag_125:\n        /* \"MarketPlace.sol\":3256:3805  {... */\n      pop\n      pop\n        /* \"MarketPlace.sol\":3202:3805  function cancelServiceBuyer(uint index) public payable{... */\n      pop\n      jump\t// out\n    tag_74:\n      dup3\n      dup1\n      sload\n      tag_130\n      swap1\n      tag_78\n      jump\t// in\n    tag_130:\n      swap1\n      0x00\n      mstore\n      keccak256(0x00, 0x20)\n      swap1\n      0x1f\n      add\n      0x20\n      swap1\n      div\n      dup2\n      add\n      swap3\n      dup3\n      tag_132\n      jumpi\n      0x00\n      dup6\n      sstore\n      jump(tag_131)\n    tag_132:\n      dup3\n      0x1f\n      lt\n      tag_133\n      jumpi\n      dup1\n      mload\n      not(0xff)\n      and\n      dup4\n      dup1\n      add\n      or\n      dup6\n      sstore\n      jump(tag_131)\n    tag_133:\n      dup3\n      dup1\n      add\n      0x01\n      add\n      dup6\n      sstore\n      dup3\n      iszero\n      tag_131\n      jumpi\n      swap2\n      dup3\n      add\n    tag_134:\n      dup3\n      dup2\n      gt\n      iszero\n      tag_135\n      jumpi\n      dup3\n      mload\n      dup3\n      sstore\n      swap2\n      0x20\n      add\n      swap2\n      swap1\n      0x01\n      add\n      swap1\n      jump(tag_134)\n    tag_135:\n    tag_131:\n      pop\n      swap1\n      pop\n      tag_136\n      swap2\n      swap1\n      tag_137\n      jump\t// in\n    tag_136:\n      pop\n      swap1\n      jump\t// out\n    tag_137:\n    tag_138:\n      dup1\n      dup3\n      gt\n      iszero\n      tag_139\n      jumpi\n      0x00\n      dup2\n      0x00\n      swap1\n      sstore\n      pop\n      0x01\n      add\n      jump(tag_138)\n    tag_139:\n      pop\n      swap1\n      jump\t// out\n        /* \"#utility.yul\":7:82   */\n    tag_140:\n        /* \"#utility.yul\":40:46   */\n      0x00\n        /* \"#utility.yul\":73:75   */\n      0x40\n        /* \"#utility.yul\":67:76   */\n      mload\n        /* \"#utility.yul\":57:76   */\n      swap1\n      pop\n        /* \"#utility.yul\":7:82   */\n      swap1\n      jump\t// out\n        /* \"#utility.yul\":88:205   */\n    tag_141:\n        /* \"#utility.yul\":197:198   */\n      0x00\n        /* \"#utility.yul\":194:195   */\n      dup1\n        /* \"#utility.yul\":187:199   */\n      revert\n        /* \"#utility.yul\":211:328   */\n    tag_142:\n        /* \"#utility.yul\":320:321   */\n      0x00\n        /* \"#utility.yul\":317:318   */\n      dup1\n        /* \"#utility.yul\":310:322   */\n      revert\n        /* \"#utility.yul\":334:411   */\n    tag_143:\n        /* \"#utility.yul\":371:378   */\n      0x00\n        /* \"#utility.yul\":400:405   */\n      dup2\n        /* \"#utility.yul\":389:405   */\n      swap1\n      pop\n        /* \"#utility.yul\":334:411   */\n      swap2\n      swap1\n      pop\n      jump\t// out\n        /* \"#utility.yul\":417:539   */\n    tag_144:\n        /* \"#utility.yul\":490:514   */\n      tag_181\n        /* \"#utility.yul\":508:513   */\n      dup2\n        /* \"#utility.yul\":490:514   */\n      tag_143\n      jump\t// in\n    tag_181:\n        /* \"#utility.yul\":483:488   */\n      dup2\n        /* \"#utility.yul\":480:515   */\n      eq\n        /* \"#utility.yul\":470:533   */\n      tag_182\n      jumpi\n        /* \"#utility.yul\":529:530   */\n      0x00\n        /* \"#utility.yul\":526:527   */\n      dup1\n        /* \"#utility.yul\":519:531   */\n      revert\n        /* \"#utility.yul\":470:533   */\n    tag_182:\n        /* \"#utility.yul\":417:539   */\n      pop\n      jump\t// out\n        /* \"#utility.yul\":545:684   */\n    tag_145:\n        /* \"#utility.yul\":591:596   */\n      0x00\n        /* \"#utility.yul\":629:635   */\n      dup2\n        /* \"#utility.yul\":616:636   */\n      calldataload\n        /* \"#utility.yul\":607:636   */\n      swap1\n      pop\n        /* \"#utility.yul\":645:678   */\n      tag_184\n        /* \"#utility.yul\":672:677   */\n      dup2\n        /* \"#utility.yul\":645:678   */\n      tag_144\n      jump\t// in\n    tag_184:\n        /* \"#utility.yul\":545:684   */\n      swap3\n      swap2\n      pop\n      pop\n      jump\t// out\n        /* \"#utility.yul\":690:1019   */\n    tag_13:\n        /* \"#utility.yul\":749:755   */\n      0x00\n        /* \"#utility.yul\":798:800   */\n      0x20\n        /* \"#utility.yul\":786:795   */\n      dup3\n        /* \"#utility.yul\":777:784   */\n      dup5\n        /* \"#utility.yul\":773:796   */\n      sub\n        /* \"#utility.yul\":769:801   */\n      slt\n        /* \"#utility.yul\":766:885   */\n      iszero\n      tag_186\n      jumpi\n        /* \"#utility.yul\":804:883   */\n      tag_187\n      tag_141\n      jump\t// in\n    tag_187:\n        /* \"#utility.yul\":766:885   */\n    tag_186:\n        /* \"#utility.yul\":924:925   */\n      0x00\n        /* \"#utility.yul\":949:1002   */\n      tag_188\n        /* \"#utility.yul\":994:1001   */\n      dup5\n        /* \"#utility.yul\":985:991   */\n      dup3\n        /* \"#utility.yul\":974:983   */\n      dup6\n        /* \"#utility.yul\":970:992   */\n      add\n        /* \"#utility.yul\":949:1002   */\n      tag_145\n      jump\t// in\n    tag_188:\n        /* \"#utility.yul\":939:1002   */\n      swap2\n      pop\n        /* \"#utility.yul\":895:1012   */\n      pop\n        /* \"#utility.yul\":690:1019   */\n      swap3\n      swap2\n      pop\n      pop\n      jump\t// out\n        /* \"#utility.yul\":1025:1151   */\n    tag_146:\n        /* \"#utility.yul\":1062:1069   */\n      0x00\n        /* \"#utility.yul\":1102:1144   */\n      0xffffffffffffffffffffffffffffffffffffffff\n        /* \"#utility.yul\":1095:1100   */\n      dup3\n        /* \"#utility.yul\":1091:1145   */\n      and\n        /* \"#utility.yul\":1080:1145   */\n      swap1\n      pop\n        /* \"#utility.yul\":1025:1151   */\n      swap2\n      swap1\n      pop\n      jump\t// out\n        /* \"#utility.yul\":1157:1253   */\n    tag_147:\n        /* \"#utility.yul\":1194:1201   */\n      0x00\n        /* \"#utility.yul\":1223:1247   */\n      tag_191\n        /* \"#utility.yul\":1241:1246   */\n      dup3\n        /* \"#utility.yul\":1223:1247   */\n      tag_146\n      jump\t// in\n    tag_191:\n        /* \"#utility.yul\":1212:1247   */\n      swap1\n      pop\n        /* \"#utility.yul\":1157:1253   */\n      swap2\n      swap1\n      pop\n      jump\t// out\n        /* \"#utility.yul\":1259:1377   */\n    tag_148:\n        /* \"#utility.yul\":1346:1370   */\n      tag_193\n        /* \"#utility.yul\":1364:1369   */\n      dup2\n        /* \"#utility.yul\":1346:1370   */\n      tag_147\n      jump\t// in\n    tag_193:\n        /* \"#utility.yul\":1341:1344   */\n      dup3\n        /* \"#utility.yul\":1334:1371   */\n      mstore\n        /* \"#utility.yul\":1259:1377   */\n      pop\n      pop\n      jump\t// out\n        /* \"#utility.yul\":1383:1605   */\n    tag_19:\n        /* \"#utility.yul\":1476:1480   */\n      0x00\n        /* \"#utility.yul\":1514:1516   */\n      0x20\n        /* \"#utility.yul\":1503:1512   */\n      dup3\n        /* \"#utility.yul\":1499:1517   */\n      add\n        /* \"#utility.yul\":1491:1517   */\n      swap1\n      pop\n        /* \"#utility.yul\":1527:1598   */\n      tag_195\n        /* \"#utility.yul\":1595:1596   */\n      0x00\n        /* \"#utility.yul\":1584:1593   */\n      dup4\n        /* \"#utility.yul\":1580:1597   */\n      add\n        /* \"#utility.yul\":1571:1577   */\n      dup5\n        /* \"#utility.yul\":1527:1598   */\n      tag_148\n      jump\t// in\n    tag_195:\n        /* \"#utility.yul\":1383:1605   */\n      swap3\n      swap2\n      pop\n      pop\n      jump\t// out\n        /* \"#utility.yul\":1611:1728   */\n    tag_149:\n        /* \"#utility.yul\":1720:1721   */\n      0x00\n        /* \"#utility.yul\":1717:1718   */\n      dup1\n        /* \"#utility.yul\":1710:1722   */\n      revert\n        /* \"#utility.yul\":1734:1851   */\n    tag_150:\n        /* \"#utility.yul\":1843:1844   */\n      0x00\n        /* \"#utility.yul\":1840:1841   */\n      dup1\n        /* \"#utility.yul\":1833:1845   */\n      revert\n        /* \"#utility.yul\":1857:1959   */\n    tag_151:\n        /* \"#utility.yul\":1898:1904   */\n      0x00\n        /* \"#utility.yul\":1949:1951   */\n      0x1f\n        /* \"#utility.yul\":1945:1952   */\n      not\n        /* \"#utility.yul\":1940:1942   */\n      0x1f\n        /* \"#utility.yul\":1933:1938   */\n      dup4\n        /* \"#utility.yul\":1929:1943   */\n      add\n        /* \"#utility.yul\":1925:1953   */\n      and\n        /* \"#utility.yul\":1915:1953   */\n      swap1\n      pop\n        /* \"#utility.yul\":1857:1959   */\n      swap2\n      swap1\n      pop\n      jump\t// out\n        /* \"#utility.yul\":1965:2145   */\n    tag_152:\n        /* \"#utility.yul\":2013:2090   */\n      0x4e487b7100000000000000000000000000000000000000000000000000000000\n        /* \"#utility.yul\":2010:2011   */\n      0x00\n        /* \"#utility.yul\":2003:2091   */\n      mstore\n        /* \"#utility.yul\":2110:2114   */\n      0x41\n        /* \"#utility.yul\":2107:2108   */\n      0x04\n        /* \"#utility.yul\":2100:2115   */\n      mstore\n        /* \"#utility.yul\":2134:2138   */\n      0x24\n        /* \"#utility.yul\":2131:2132   */\n      0x00\n        /* \"#utility.yul\":2124:2139   */\n      revert\n        /* \"#utility.yul\":2151:2432   */\n    tag_153:\n        /* \"#utility.yul\":2234:2261   */\n      tag_201\n        /* \"#utility.yul\":2256:2260   */\n      dup3\n        /* \"#utility.yul\":2234:2261   */\n      tag_151\n      jump\t// in\n    tag_201:\n        /* \"#utility.yul\":2226:2232   */\n      dup2\n        /* \"#utility.yul\":2222:2262   */\n      add\n        /* \"#utility.yul\":2364:2370   */\n      dup2\n        /* \"#utility.yul\":2352:2362   */\n      dup2\n        /* \"#utility.yul\":2349:2371   */\n      lt\n        /* \"#utility.yul\":2328:2346   */\n      0xffffffffffffffff\n        /* \"#utility.yul\":2316:2326   */\n      dup3\n        /* \"#utility.yul\":2313:2347   */\n      gt\n        /* \"#utility.yul\":2310:2372   */\n      or\n        /* \"#utility.yul\":2307:2395   */\n      iszero\n      tag_202\n      jumpi\n        /* \"#utility.yul\":2375:2393   */\n      tag_203\n      tag_152\n      jump\t// in\n    tag_203:\n        /* \"#utility.yul\":2307:2395   */\n    tag_202:\n        /* \"#utility.yul\":2415:2425   */\n      dup1\n        /* \"#utility.yul\":2411:2413   */\n      0x40\n        /* \"#utility.yul\":2404:2426   */\n      mstore\n        /* \"#utility.yul\":2194:2432   */\n      pop\n        /* \"#utility.yul\":2151:2432   */\n      pop\n      pop\n      jump\t// out\n        /* \"#utility.yul\":2438:2567   */\n    tag_154:\n        /* \"#utility.yul\":2472:2478   */\n      0x00\n        /* \"#utility.yul\":2499:2519   */\n      tag_205\n      tag_140\n      jump\t// in\n    tag_205:\n        /* \"#utility.yul\":2489:2519   */\n      swap1\n      pop\n        /* \"#utility.yul\":2528:2561   */\n      tag_206\n        /* \"#utility.yul\":2556:2560   */\n      dup3\n        /* \"#utility.yul\":2548:2554   */\n      dup3\n        /* \"#utility.yul\":2528:2561   */\n      tag_153\n      jump\t// in\n    tag_206:\n        /* \"#utility.yul\":2438:2567   */\n      swap2\n      swap1\n      pop\n      jump\t// out\n        /* \"#utility.yul\":2573:2881   */\n    tag_155:\n        /* \"#utility.yul\":2635:2639   */\n      0x00\n        /* \"#utility.yul\":2725:2743   */\n      0xffffffffffffffff\n        /* \"#utility.yul\":2717:2723   */\n      dup3\n        /* \"#utility.yul\":2714:2744   */\n      gt\n        /* \"#utility.yul\":2711:2767   */\n      iszero\n      tag_208\n      jumpi\n        /* \"#utility.yul\":2747:2765   */\n      tag_209\n      tag_152\n      jump\t// in\n    tag_209:\n        /* \"#utility.yul\":2711:2767   */\n    tag_208:\n        /* \"#utility.yul\":2785:2814   */\n      tag_210\n        /* \"#utility.yul\":2807:2813   */\n      dup3\n        /* \"#utility.yul\":2785:2814   */\n      tag_151\n      jump\t// in\n    tag_210:\n        /* \"#utility.yul\":2777:2814   */\n      swap1\n      pop\n        /* \"#utility.yul\":2869:2873   */\n      0x20\n        /* \"#utility.yul\":2863:2867   */\n      dup2\n        /* \"#utility.yul\":2859:2874   */\n      add\n        /* \"#utility.yul\":2851:2874   */\n      swap1\n      pop\n        /* \"#utility.yul\":2573:2881   */\n      swap2\n      swap1\n      pop\n      jump\t// out\n        /* \"#utility.yul\":2887:3041   */\n    tag_156:\n        /* \"#utility.yul\":2971:2977   */\n      dup3\n        /* \"#utility.yul\":2966:2969   */\n      dup2\n        /* \"#utility.yul\":2961:2964   */\n      dup4\n        /* \"#utility.yul\":2948:2978   */\n      calldatacopy\n        /* \"#utility.yul\":3033:3034   */\n      0x00\n        /* \"#utility.yul\":3024:3030   */\n      dup4\n        /* \"#utility.yul\":3019:3022   */\n      dup4\n        /* \"#utility.yul\":3015:3031   */\n      add\n        /* \"#utility.yul\":3008:3035   */\n      mstore\n        /* \"#utility.yul\":2887:3041   */\n      pop\n      pop\n      pop\n      jump\t// out\n        /* \"#utility.yul\":3047:3459   */\n    tag_157:\n        /* \"#utility.yul\":3125:3130   */\n      0x00\n        /* \"#utility.yul\":3150:3216   */\n      tag_213\n        /* \"#utility.yul\":3166:3215   */\n      tag_214\n        /* \"#utility.yul\":3208:3214   */\n      dup5\n        /* \"#utility.yul\":3166:3215   */\n      tag_155\n      jump\t// in\n    tag_214:\n        /* \"#utility.yul\":3150:3216   */\n      tag_154\n      jump\t// in\n    tag_213:\n        /* \"#utility.yul\":3141:3216   */\n      swap1\n      pop\n        /* \"#utility.yul\":3239:3245   */\n      dup3\n        /* \"#utility.yul\":3232:3237   */\n      dup2\n        /* \"#utility.yul\":3225:3246   */\n      mstore\n        /* \"#utility.yul\":3277:3281   */\n      0x20\n        /* \"#utility.yul\":3270:3275   */\n      dup2\n        /* \"#utility.yul\":3266:3282   */\n      add\n        /* \"#utility.yul\":3315:3318   */\n      dup5\n        /* \"#utility.yul\":3306:3312   */\n      dup5\n        /* \"#utility.yul\":3301:3304   */\n      dup5\n        /* \"#utility.yul\":3297:3313   */\n      add\n        /* \"#utility.yul\":3294:3319   */\n      gt\n        /* \"#utility.yul\":3291:3403   */\n      iszero\n      tag_215\n      jumpi\n        /* \"#utility.yul\":3322:3401   */\n      tag_216\n      tag_150\n      jump\t// in\n    tag_216:\n        /* \"#utility.yul\":3291:3403   */\n    tag_215:\n        /* \"#utility.yul\":3412:3453   */\n      tag_217\n        /* \"#utility.yul\":3446:3452   */\n      dup5\n        /* \"#utility.yul\":3441:3444   */\n      dup3\n        /* \"#utility.yul\":3436:3439   */\n      dup6\n        /* \"#utility.yul\":3412:3453   */\n      tag_156\n      jump\t// in\n    tag_217:\n        /* \"#utility.yul\":3131:3459   */\n      pop\n        /* \"#utility.yul\":3047:3459   */\n      swap4\n      swap3\n      pop\n      pop\n      pop\n      jump\t// out\n        /* \"#utility.yul\":3479:3819   */\n    tag_158:\n        /* \"#utility.yul\":3535:3540   */\n      0x00\n        /* \"#utility.yul\":3584:3587   */\n      dup3\n        /* \"#utility.yul\":3577:3581   */\n      0x1f\n        /* \"#utility.yul\":3569:3575   */\n      dup4\n        /* \"#utility.yul\":3565:3582   */\n      add\n        /* \"#utility.yul\":3561:3588   */\n      slt\n        /* \"#utility.yul\":3551:3673   */\n      tag_219\n      jumpi\n        /* \"#utility.yul\":3592:3671   */\n      tag_220\n      tag_149\n      jump\t// in\n    tag_220:\n        /* \"#utility.yul\":3551:3673   */\n    tag_219:\n        /* \"#utility.yul\":3709:3715   */\n      dup2\n        /* \"#utility.yul\":3696:3716   */\n      calldataload\n        /* \"#utility.yul\":3734:3813   */\n      tag_221\n        /* \"#utility.yul\":3809:3812   */\n      dup5\n        /* \"#utility.yul\":3801:3807   */\n      dup3\n        /* \"#utility.yul\":3794:3798   */\n      0x20\n        /* \"#utility.yul\":3786:3792   */\n      dup7\n        /* \"#utility.yul\":3782:3799   */\n      add\n        /* \"#utility.yul\":3734:3813   */\n      tag_157\n      jump\t// in\n    tag_221:\n        /* \"#utility.yul\":3725:3813   */\n      swap2\n      pop\n        /* \"#utility.yul\":3541:3819   */\n      pop\n        /* \"#utility.yul\":3479:3819   */\n      swap3\n      swap2\n      pop\n      pop\n      jump\t// out\n        /* \"#utility.yul\":3825:4479   */\n    tag_23:\n        /* \"#utility.yul\":3903:3909   */\n      0x00\n        /* \"#utility.yul\":3911:3917   */\n      dup1\n        /* \"#utility.yul\":3960:3962   */\n      0x40\n        /* \"#utility.yul\":3948:3957   */\n      dup4\n        /* \"#utility.yul\":3939:3946   */\n      dup6\n        /* \"#utility.yul\":3935:3958   */\n      sub\n        /* \"#utility.yul\":3931:3963   */\n      slt\n        /* \"#utility.yul\":3928:4047   */\n      iszero\n      tag_223\n      jumpi\n        /* \"#utility.yul\":3966:4045   */\n      tag_224\n      tag_141\n      jump\t// in\n    tag_224:\n        /* \"#utility.yul\":3928:4047   */\n    tag_223:\n        /* \"#utility.yul\":4114:4115   */\n      0x00\n        /* \"#utility.yul\":4103:4112   */\n      dup4\n        /* \"#utility.yul\":4099:4116   */\n      add\n        /* \"#utility.yul\":4086:4117   */\n      calldataload\n        /* \"#utility.yul\":4144:4162   */\n      0xffffffffffffffff\n        /* \"#utility.yul\":4136:4142   */\n      dup2\n        /* \"#utility.yul\":4133:4163   */\n      gt\n        /* \"#utility.yul\":4130:4247   */\n      iszero\n      tag_225\n      jumpi\n        /* \"#utility.yul\":4166:4245   */\n      tag_226\n      tag_142\n      jump\t// in\n    tag_226:\n        /* \"#utility.yul\":4130:4247   */\n    tag_225:\n        /* \"#utility.yul\":4271:4334   */\n      tag_227\n        /* \"#utility.yul\":4326:4333   */\n      dup6\n        /* \"#utility.yul\":4317:4323   */\n      dup3\n        /* \"#utility.yul\":4306:4315   */\n      dup7\n        /* \"#utility.yul\":4302:4324   */\n      add\n        /* \"#utility.yul\":4271:4334   */\n      tag_158\n      jump\t// in\n    tag_227:\n        /* \"#utility.yul\":4261:4334   */\n      swap3\n      pop\n        /* \"#utility.yul\":4057:4344   */\n      pop\n        /* \"#utility.yul\":4383:4385   */\n      0x20\n        /* \"#utility.yul\":4409:4462   */\n      tag_228\n        /* \"#utility.yul\":4454:4461   */\n      dup6\n        /* \"#utility.yul\":4445:4451   */\n      dup3\n        /* \"#utility.yul\":4434:4443   */\n      dup7\n        /* \"#utility.yul\":4430:4452   */\n      add\n        /* \"#utility.yul\":4409:4462   */\n      tag_145\n      jump\t// in\n    tag_228:\n        /* \"#utility.yul\":4399:4462   */\n      swap2\n      pop\n        /* \"#utility.yul\":4354:4472   */\n      pop\n        /* \"#utility.yul\":3825:4479   */\n      swap3\n      pop\n      swap3\n      swap1\n      pop\n      jump\t// out\n        /* \"#utility.yul\":4485:4584   */\n    tag_159:\n        /* \"#utility.yul\":4537:4543   */\n      0x00\n        /* \"#utility.yul\":4571:4576   */\n      dup2\n        /* \"#utility.yul\":4565:4577   */\n      mload\n        /* \"#utility.yul\":4555:4577   */\n      swap1\n      pop\n        /* \"#utility.yul\":4485:4584   */\n      swap2\n      swap1\n      pop\n      jump\t// out\n        /* \"#utility.yul\":4590:4759   */\n    tag_160:\n        /* \"#utility.yul\":4674:4685   */\n      0x00\n        /* \"#utility.yul\":4708:4714   */\n      dup3\n        /* \"#utility.yul\":4703:4706   */\n      dup3\n        /* \"#utility.yul\":4696:4715   */\n      mstore\n        /* \"#utility.yul\":4748:4752   */\n      0x20\n        /* \"#utility.yul\":4743:4746   */\n      dup3\n        /* \"#utility.yul\":4739:4753   */\n      add\n        /* \"#utility.yul\":4724:4753   */\n      swap1\n      pop\n        /* \"#utility.yul\":4590:4759   */\n      swap3\n      swap2\n      pop\n      pop\n      jump\t// out\n        /* \"#utility.yul\":4765:5072   */\n    tag_161:\n        /* \"#utility.yul\":4833:4834   */\n      0x00\n        /* \"#utility.yul\":4843:4956   */\n    tag_232:\n        /* \"#utility.yul\":4857:4863   */\n      dup4\n        /* \"#utility.yul\":4854:4855   */\n      dup2\n        /* \"#utility.yul\":4851:4864   */\n      lt\n        /* \"#utility.yul\":4843:4956   */\n      iszero\n      tag_234\n      jumpi\n        /* \"#utility.yul\":4942:4943   */\n      dup1\n        /* \"#utility.yul\":4937:4940   */\n      dup3\n        /* \"#utility.yul\":4933:4944   */\n      add\n        /* \"#utility.yul\":4927:4945   */\n      mload\n        /* \"#utility.yul\":4923:4924   */\n      dup2\n        /* \"#utility.yul\":4918:4921   */\n      dup5\n        /* \"#utility.yul\":4914:4925   */\n      add\n        /* \"#utility.yul\":4907:4946   */\n      mstore\n        /* \"#utility.yul\":4879:4881   */\n      0x20\n        /* \"#utility.yul\":4876:4877   */\n      dup2\n        /* \"#utility.yul\":4872:4882   */\n      add\n        /* \"#utility.yul\":4867:4882   */\n      swap1\n      pop\n        /* \"#utility.yul\":4843:4956   */\n      jump(tag_232)\n    tag_234:\n        /* \"#utility.yul\":4974:4980   */\n      dup4\n        /* \"#utility.yul\":4971:4972   */\n      dup2\n        /* \"#utility.yul\":4968:4981   */\n      gt\n        /* \"#utility.yul\":4965:5066   */\n      iszero\n      tag_235\n      jumpi\n        /* \"#utility.yul\":5054:5055   */\n      0x00\n        /* \"#utility.yul\":5045:5051   */\n      dup5\n        /* \"#utility.yul\":5040:5043   */\n      dup5\n        /* \"#utility.yul\":5036:5052   */\n      add\n        /* \"#utility.yul\":5029:5056   */\n      mstore\n        /* \"#utility.yul\":4965:5066   */\n    tag_235:\n        /* \"#utility.yul\":4814:5072   */\n      pop\n        /* \"#utility.yul\":4765:5072   */\n      pop\n      pop\n      pop\n      jump\t// out\n        /* \"#utility.yul\":5078:5442   */\n    tag_162:\n        /* \"#utility.yul\":5166:5169   */\n      0x00\n        /* \"#utility.yul\":5194:5233   */\n      tag_237\n        /* \"#utility.yul\":5227:5232   */\n      dup3\n        /* \"#utility.yul\":5194:5233   */\n      tag_159\n      jump\t// in\n    tag_237:\n        /* \"#utility.yul\":5249:5320   */\n      tag_238\n        /* \"#utility.yul\":5313:5319   */\n      dup2\n        /* \"#utility.yul\":5308:5311   */\n      dup6\n        /* \"#utility.yul\":5249:5320   */\n      tag_160\n      jump\t// in\n    tag_238:\n        /* \"#utility.yul\":5242:5320   */\n      swap4\n      pop\n        /* \"#utility.yul\":5329:5381   */\n      tag_239\n        /* \"#utility.yul\":5374:5380   */\n      dup2\n        /* \"#utility.yul\":5369:5372   */\n      dup6\n        /* \"#utility.yul\":5362:5366   */\n      0x20\n        /* \"#utility.yul\":5355:5360   */\n      dup7\n        /* \"#utility.yul\":5351:5367   */\n      add\n        /* \"#utility.yul\":5329:5381   */\n      tag_161\n      jump\t// in\n    tag_239:\n        /* \"#utility.yul\":5406:5435   */\n      tag_240\n        /* \"#utility.yul\":5428:5434   */\n      dup2\n        /* \"#utility.yul\":5406:5435   */\n      tag_151\n      jump\t// in\n    tag_240:\n        /* \"#utility.yul\":5401:5404   */\n      dup5\n        /* \"#utility.yul\":5397:5436   */\n      add\n        /* \"#utility.yul\":5390:5436   */\n      swap2\n      pop\n        /* \"#utility.yul\":5170:5442   */\n      pop\n        /* \"#utility.yul\":5078:5442   */\n      swap3\n      swap2\n      pop\n      pop\n      jump\t// out\n        /* \"#utility.yul\":5448:5566   */\n    tag_163:\n        /* \"#utility.yul\":5535:5559   */\n      tag_242\n        /* \"#utility.yul\":5553:5558   */\n      dup2\n        /* \"#utility.yul\":5535:5559   */\n      tag_143\n      jump\t// in\n    tag_242:\n        /* \"#utility.yul\":5530:5533   */\n      dup3\n        /* \"#utility.yul\":5523:5560   */\n      mstore\n        /* \"#utility.yul\":5448:5566   */\n      pop\n      pop\n      jump\t// out\n        /* \"#utility.yul\":5572:5662   */\n    tag_164:\n        /* \"#utility.yul\":5606:5613   */\n      0x00\n        /* \"#utility.yul\":5649:5654   */\n      dup2\n        /* \"#utility.yul\":5642:5655   */\n      iszero\n        /* \"#utility.yul\":5635:5656   */\n      iszero\n        /* \"#utility.yul\":5624:5656   */\n      swap1\n      pop\n        /* \"#utility.yul\":5572:5662   */\n      swap2\n      swap1\n      pop\n      jump\t// out\n        /* \"#utility.yul\":5668:5777   */\n    tag_165:\n        /* \"#utility.yul\":5749:5770   */\n      tag_245\n        /* \"#utility.yul\":5764:5769   */\n      dup2\n        /* \"#utility.yul\":5749:5770   */\n      tag_164\n      jump\t// in\n    tag_245:\n        /* \"#utility.yul\":5744:5747   */\n      dup3\n        /* \"#utility.yul\":5737:5771   */\n      mstore\n        /* \"#utility.yul\":5668:5777   */\n      pop\n      pop\n      jump\t// out\n        /* \"#utility.yul\":5783:6304   */\n    tag_30:\n        /* \"#utility.yul\":5946:5950   */\n      0x00\n        /* \"#utility.yul\":5984:5986   */\n      0x60\n        /* \"#utility.yul\":5973:5982   */\n      dup3\n        /* \"#utility.yul\":5969:5987   */\n      add\n        /* \"#utility.yul\":5961:5987   */\n      swap1\n      pop\n        /* \"#utility.yul\":6033:6042   */\n      dup2\n        /* \"#utility.yul\":6027:6031   */\n      dup2\n        /* \"#utility.yul\":6023:6043   */\n      sub\n        /* \"#utility.yul\":6019:6020   */\n      0x00\n        /* \"#utility.yul\":6008:6017   */\n      dup4\n        /* \"#utility.yul\":6004:6021   */\n      add\n        /* \"#utility.yul\":5997:6044   */\n      mstore\n        /* \"#utility.yul\":6061:6139   */\n      tag_247\n        /* \"#utility.yul\":6134:6138   */\n      dup2\n        /* \"#utility.yul\":6125:6131   */\n      dup7\n        /* \"#utility.yul\":6061:6139   */\n      tag_162\n      jump\t// in\n    tag_247:\n        /* \"#utility.yul\":6053:6139   */\n      swap1\n      pop\n        /* \"#utility.yul\":6149:6221   */\n      tag_248\n        /* \"#utility.yul\":6217:6219   */\n      0x20\n        /* \"#utility.yul\":6206:6215   */\n      dup4\n        /* \"#utility.yul\":6202:6220   */\n      add\n        /* \"#utility.yul\":6193:6199   */\n      dup6\n        /* \"#utility.yul\":6149:6221   */\n      tag_163\n      jump\t// in\n    tag_248:\n        /* \"#utility.yul\":6231:6297   */\n      tag_249\n        /* \"#utility.yul\":6293:6295   */\n      0x40\n        /* \"#utility.yul\":6282:6291   */\n      dup4\n        /* \"#utility.yul\":6278:6296   */\n      add\n        /* \"#utility.yul\":6269:6275   */\n      dup5\n        /* \"#utility.yul\":6231:6297   */\n      tag_165\n      jump\t// in\n    tag_249:\n        /* \"#utility.yul\":5783:6304   */\n      swap5\n      swap4\n      pop\n      pop\n      pop\n      pop\n      jump\t// out\n        /* \"#utility.yul\":6310:6929   */\n    tag_34:\n        /* \"#utility.yul\":6387:6393   */\n      0x00\n        /* \"#utility.yul\":6395:6401   */\n      dup1\n        /* \"#utility.yul\":6403:6409   */\n      0x00\n        /* \"#utility.yul\":6452:6454   */\n      0x60\n        /* \"#utility.yul\":6440:6449   */\n      dup5\n        /* \"#utility.yul\":6431:6438   */\n      dup7\n        /* \"#utility.yul\":6427:6450   */\n      sub\n        /* \"#utility.yul\":6423:6455   */\n      slt\n        /* \"#utility.yul\":6420:6539   */\n      iszero\n      tag_251\n      jumpi\n        /* \"#utility.yul\":6458:6537   */\n      tag_252\n      tag_141\n      jump\t// in\n    tag_252:\n        /* \"#utility.yul\":6420:6539   */\n    tag_251:\n        /* \"#utility.yul\":6578:6579   */\n      0x00\n        /* \"#utility.yul\":6603:6656   */\n      tag_253\n        /* \"#utility.yul\":6648:6655   */\n      dup7\n        /* \"#utility.yul\":6639:6645   */\n      dup3\n        /* \"#utility.yul\":6628:6637   */\n      dup8\n        /* \"#utility.yul\":6624:6646   */\n      add\n        /* \"#utility.yul\":6603:6656   */\n      tag_145\n      jump\t// in\n    tag_253:\n        /* \"#utility.yul\":6593:6656   */\n      swap4\n      pop\n        /* \"#utility.yul\":6549:6666   */\n      pop\n        /* \"#utility.yul\":6705:6707   */\n      0x20\n        /* \"#utility.yul\":6731:6784   */\n      tag_254\n        /* \"#utility.yul\":6776:6783   */\n      dup7\n        /* \"#utility.yul\":6767:6773   */\n      dup3\n        /* \"#utility.yul\":6756:6765   */\n      dup8\n        /* \"#utility.yul\":6752:6774   */\n      add\n        /* \"#utility.yul\":6731:6784   */\n      tag_145\n      jump\t// in\n    tag_254:\n        /* \"#utility.yul\":6721:6784   */\n      swap3\n      pop\n        /* \"#utility.yul\":6676:6794   */\n      pop\n        /* \"#utility.yul\":6833:6835   */\n      0x40\n        /* \"#utility.yul\":6859:6912   */\n      tag_255\n        /* \"#utility.yul\":6904:6911   */\n      dup7\n        /* \"#utility.yul\":6895:6901   */\n      dup3\n        /* \"#utility.yul\":6884:6893   */\n      dup8\n        /* \"#utility.yul\":6880:6902   */\n      add\n        /* \"#utility.yul\":6859:6912   */\n      tag_145\n      jump\t// in\n    tag_255:\n        /* \"#utility.yul\":6849:6912   */\n      swap2\n      pop\n        /* \"#utility.yul\":6804:6922   */\n      pop\n        /* \"#utility.yul\":6310:6929   */\n      swap3\n      pop\n      swap3\n      pop\n      swap3\n      jump\t// out\n        /* \"#utility.yul\":6935:7476   */\n    tag_41:\n        /* \"#utility.yul\":7106:7110   */\n      0x00\n        /* \"#utility.yul\":7144:7147   */\n      0x80\n        /* \"#utility.yul\":7133:7142   */\n      dup3\n        /* \"#utility.yul\":7129:7148   */\n      add\n        /* \"#utility.yul\":7121:7148   */\n      swap1\n      pop\n        /* \"#utility.yul\":7158:7229   */\n      tag_257\n        /* \"#utility.yul\":7226:7227   */\n      0x00\n        /* \"#utility.yul\":7215:7224   */\n      dup4\n        /* \"#utility.yul\":7211:7228   */\n      add\n        /* \"#utility.yul\":7202:7208   */\n      dup8\n        /* \"#utility.yul\":7158:7229   */\n      tag_163\n      jump\t// in\n    tag_257:\n        /* \"#utility.yul\":7239:7305   */\n      tag_258\n        /* \"#utility.yul\":7301:7303   */\n      0x20\n        /* \"#utility.yul\":7290:7299   */\n      dup4\n        /* \"#utility.yul\":7286:7304   */\n      add\n        /* \"#utility.yul\":7277:7283   */\n      dup7\n        /* \"#utility.yul\":7239:7305   */\n      tag_165\n      jump\t// in\n    tag_258:\n        /* \"#utility.yul\":7315:7387   */\n      tag_259\n        /* \"#utility.yul\":7383:7385   */\n      0x40\n        /* \"#utility.yul\":7372:7381   */\n      dup4\n        /* \"#utility.yul\":7368:7386   */\n      add\n        /* \"#utility.yul\":7359:7365   */\n      dup6\n        /* \"#utility.yul\":7315:7387   */\n      tag_163\n      jump\t// in\n    tag_259:\n        /* \"#utility.yul\":7397:7469   */\n      tag_260\n        /* \"#utility.yul\":7465:7467   */\n      0x60\n        /* \"#utility.yul\":7454:7463   */\n      dup4\n        /* \"#utility.yul\":7450:7468   */\n      add\n        /* \"#utility.yul\":7441:7447   */\n      dup5\n        /* \"#utility.yul\":7397:7469   */\n      tag_148\n      jump\t// in\n    tag_260:\n        /* \"#utility.yul\":6935:7476   */\n      swap6\n      swap5\n      pop\n      pop\n      pop\n      pop\n      pop\n      jump\t// out\n        /* \"#utility.yul\":7482:7662   */\n    tag_53:\n        /* \"#utility.yul\":7530:7607   */\n      0x4e487b7100000000000000000000000000000000000000000000000000000000\n        /* \"#utility.yul\":7527:7528   */\n      0x00\n        /* \"#utility.yul\":7520:7608   */\n      mstore\n        /* \"#utility.yul\":7627:7631   */\n      0x32\n        /* \"#utility.yul\":7624:7625   */\n      0x04\n        /* \"#utility.yul\":7617:7632   */\n      mstore\n        /* \"#utility.yul\":7651:7655   */\n      0x24\n        /* \"#utility.yul\":7648:7649   */\n      0x00\n        /* \"#utility.yul\":7641:7656   */\n      revert\n        /* \"#utility.yul\":7668:7848   */\n    tag_166:\n        /* \"#utility.yul\":7716:7793   */\n      0x4e487b7100000000000000000000000000000000000000000000000000000000\n        /* \"#utility.yul\":7713:7714   */\n      0x00\n        /* \"#utility.yul\":7706:7794   */\n      mstore\n        /* \"#utility.yul\":7813:7817   */\n      0x11\n        /* \"#utility.yul\":7810:7811   */\n      0x04\n        /* \"#utility.yul\":7803:7818   */\n      mstore\n        /* \"#utility.yul\":7837:7841   */\n      0x24\n        /* \"#utility.yul\":7834:7835   */\n      0x00\n        /* \"#utility.yul\":7827:7842   */\n      revert\n        /* \"#utility.yul\":7854:8159   */\n    tag_59:\n        /* \"#utility.yul\":7894:7897   */\n      0x00\n        /* \"#utility.yul\":7913:7933   */\n      tag_264\n        /* \"#utility.yul\":7931:7932   */\n      dup3\n        /* \"#utility.yul\":7913:7933   */\n      tag_143\n      jump\t// in\n    tag_264:\n        /* \"#utility.yul\":7908:7933   */\n      swap2\n      pop\n        /* \"#utility.yul\":7947:7967   */\n      tag_265\n        /* \"#utility.yul\":7965:7966   */\n      dup4\n        /* \"#utility.yul\":7947:7967   */\n      tag_143\n      jump\t// in\n    tag_265:\n        /* \"#utility.yul\":7942:7967   */\n      swap3\n      pop\n        /* \"#utility.yul\":8101:8102   */\n      dup3\n        /* \"#utility.yul\":8033:8099   */\n      0xffffffffffffffffffffffffffffffffffffffffffffffffffffffffffffffff\n        /* \"#utility.yul\":8029:8103   */\n      sub\n        /* \"#utility.yul\":8026:8027   */\n      dup3\n        /* \"#utility.yul\":8023:8104   */\n      gt\n        /* \"#utility.yul\":8020:8127   */\n      iszero\n      tag_266\n      jumpi\n        /* \"#utility.yul\":8107:8125   */\n      tag_267\n      tag_166\n      jump\t// in\n    tag_267:\n        /* \"#utility.yul\":8020:8127   */\n    tag_266:\n        /* \"#utility.yul\":8151:8152   */\n      dup3\n        /* \"#utility.yul\":8148:8149   */\n      dup3\n        /* \"#utility.yul\":8144:8153   */\n      add\n        /* \"#utility.yul\":8137:8153   */\n      swap1\n      pop\n        /* \"#utility.yul\":7854:8159   */\n      swap3\n      swap2\n      pop\n      pop\n      jump\t// out\n        /* \"#utility.yul\":8165:8345   */\n    tag_167:\n        /* \"#utility.yul\":8213:8290   */\n      0x4e487b7100000000000000000000000000000000000000000000000000000000\n        /* \"#utility.yul\":8210:8211   */\n      0x00\n        /* \"#utility.yul\":8203:8291   */\n      mstore\n        /* \"#utility.yul\":8310:8314   */\n      0x22\n        /* \"#utility.yul\":8307:8308   */\n      0x04\n        /* \"#utility.yul\":8300:8315   */\n      mstore\n        /* \"#utility.yul\":8334:8338   */\n      0x24\n        /* \"#utility.yul\":8331:8332   */\n      0x00\n        /* \"#utility.yul\":8324:8339   */\n      revert\n        /* \"#utility.yul\":8351:8671   */\n    tag_78:\n        /* \"#utility.yul\":8395:8401   */\n      0x00\n        /* \"#utility.yul\":8432:8433   */\n      0x02\n        /* \"#utility.yul\":8426:8430   */\n      dup3\n        /* \"#utility.yul\":8422:8434   */\n      div\n        /* \"#utility.yul\":8412:8434   */\n      swap1\n      pop\n        /* \"#utility.yul\":8479:8480   */\n      0x01\n        /* \"#utility.yul\":8473:8477   */\n      dup3\n        /* \"#utility.yul\":8469:8481   */\n      and\n        /* \"#utility.yul\":8500:8518   */\n      dup1\n        /* \"#utility.yul\":8490:8571   */\n      tag_270\n      jumpi\n        /* \"#utility.yul\":8556:8560   */\n      0x7f\n        /* \"#utility.yul\":8548:8554   */\n      dup3\n        /* \"#utility.yul\":8544:8561   */\n      and\n        /* \"#utility.yul\":8534:8561   */\n      swap2\n      pop\n        /* \"#utility.yul\":8490:8571   */\n    tag_270:\n        /* \"#utility.yul\":8618:8620   */\n      0x20\n        /* \"#utility.yul\":8610:8616   */\n      dup3\n        /* \"#utility.yul\":8607:8621   */\n      lt\n        /* \"#utility.yul\":8587:8605   */\n      dup2\n        /* \"#utility.yul\":8584:8622   */\n      eq\n        /* \"#utility.yul\":8581:8665   */\n      iszero\n      tag_271\n      jumpi\n        /* \"#utility.yul\":8637:8655   */\n      tag_272\n      tag_167\n      jump\t// in\n    tag_272:\n        /* \"#utility.yul\":8581:8665   */\n    tag_271:\n        /* \"#utility.yul\":8402:8671   */\n      pop\n        /* \"#utility.yul\":8351:8671   */\n      swap2\n      swap1\n      pop\n      jump\t// out\n        /* \"#utility.yul\":8677:8756   */\n    tag_168:\n        /* \"#utility.yul\":8716:8723   */\n      0x00\n        /* \"#utility.yul\":8745:8750   */\n      dup2\n        /* \"#utility.yul\":8734:8750   */\n      swap1\n      pop\n        /* \"#utility.yul\":8677:8756   */\n      swap2\n      swap1\n      pop\n      jump\t// out\n        /* \"#utility.yul\":8762:8919   */\n    tag_169:\n        /* \"#utility.yul\":8867:8912   */\n      tag_275\n        /* \"#utility.yul\":8887:8911   */\n      tag_276\n        /* \"#utility.yul\":8905:8910   */\n      dup3\n        /* \"#utility.yul\":8887:8911   */\n      tag_143\n      jump\t// in\n    tag_276:\n        /* \"#utility.yul\":8867:8912   */\n      tag_168\n      jump\t// in\n    tag_275:\n        /* \"#utility.yul\":8862:8865   */\n      dup3\n        /* \"#utility.yul\":8855:8913   */\n      mstore\n        /* \"#utility.yul\":8762:8919   */\n      pop\n      pop\n      jump\t// out\n        /* \"#utility.yul\":8925:9019   */\n    tag_170:\n        /* \"#utility.yul\":8958:8966   */\n      0x00\n        /* \"#utility.yul\":9006:9011   */\n      dup2\n        /* \"#utility.yul\":9002:9004   */\n      0x60\n        /* \"#utility.yul\":8998:9012   */\n      shl\n        /* \"#utility.yul\":8977:9012   */\n      swap1\n      pop\n        /* \"#utility.yul\":8925:9019   */\n      swap2\n      swap1\n      pop\n      jump\t// out\n        /* \"#utility.yul\":9025:9119   */\n    tag_171:\n        /* \"#utility.yul\":9064:9071   */\n      0x00\n        /* \"#utility.yul\":9093:9113   */\n      tag_279\n        /* \"#utility.yul\":9107:9112   */\n      dup3\n        /* \"#utility.yul\":9093:9113   */\n      tag_170\n      jump\t// in\n    tag_279:\n        /* \"#utility.yul\":9082:9113   */\n      swap1\n      pop\n        /* \"#utility.yul\":9025:9119   */\n      swap2\n      swap1\n      pop\n      jump\t// out\n        /* \"#utility.yul\":9125:9225   */\n    tag_172:\n        /* \"#utility.yul\":9164:9171   */\n      0x00\n        /* \"#utility.yul\":9193:9219   */\n      tag_281\n        /* \"#utility.yul\":9213:9218   */\n      dup3\n        /* \"#utility.yul\":9193:9219   */\n      tag_171\n      jump\t// in\n    tag_281:\n        /* \"#utility.yul\":9182:9219   */\n      swap1\n      pop\n        /* \"#utility.yul\":9125:9225   */\n      swap2\n      swap1\n      pop\n      jump\t// out\n        /* \"#utility.yul\":9231:9388   */\n    tag_173:\n        /* \"#utility.yul\":9336:9381   */\n      tag_283\n        /* \"#utility.yul\":9356:9380   */\n      tag_284\n        /* \"#utility.yul\":9374:9379   */\n      dup3\n        /* \"#utility.yul\":9356:9380   */\n      tag_147\n      jump\t// in\n    tag_284:\n        /* \"#utility.yul\":9336:9381   */\n      tag_172\n      jump\t// in\n    tag_283:\n        /* \"#utility.yul\":9331:9334   */\n      dup3\n        /* \"#utility.yul\":9324:9382   */\n      mstore\n        /* \"#utility.yul\":9231:9388   */\n      pop\n      pop\n      jump\t// out\n        /* \"#utility.yul\":9394:9932   */\n    tag_107:\n        /* \"#utility.yul\":9562:9565   */\n      0x00\n        /* \"#utility.yul\":9577:9652   */\n      tag_286\n        /* \"#utility.yul\":9648:9651   */\n      dup3\n        /* \"#utility.yul\":9639:9645   */\n      dup7\n        /* \"#utility.yul\":9577:9652   */\n      tag_169\n      jump\t// in\n    tag_286:\n        /* \"#utility.yul\":9677:9679   */\n      0x20\n        /* \"#utility.yul\":9672:9675   */\n      dup3\n        /* \"#utility.yul\":9668:9680   */\n      add\n        /* \"#utility.yul\":9661:9680   */\n      swap2\n      pop\n        /* \"#utility.yul\":9690:9765   */\n      tag_287\n        /* \"#utility.yul\":9761:9764   */\n      dup3\n        /* \"#utility.yul\":9752:9758   */\n      dup6\n        /* \"#utility.yul\":9690:9765   */\n      tag_169\n      jump\t// in\n    tag_287:\n        /* \"#utility.yul\":9790:9792   */\n      0x20\n        /* \"#utility.yul\":9785:9788   */\n      dup3\n        /* \"#utility.yul\":9781:9793   */\n      add\n        /* \"#utility.yul\":9774:9793   */\n      swap2\n      pop\n        /* \"#utility.yul\":9803:9878   */\n      tag_288\n        /* \"#utility.yul\":9874:9877   */\n      dup3\n        /* \"#utility.yul\":9865:9871   */\n      dup5\n        /* \"#utility.yul\":9803:9878   */\n      tag_173\n      jump\t// in\n    tag_288:\n        /* \"#utility.yul\":9903:9905   */\n      0x14\n        /* \"#utility.yul\":9898:9901   */\n      dup3\n        /* \"#utility.yul\":9894:9906   */\n      add\n        /* \"#utility.yul\":9887:9906   */\n      swap2\n      pop\n        /* \"#utility.yul\":9923:9926   */\n      dup2\n        /* \"#utility.yul\":9916:9926   */\n      swap1\n      pop\n        /* \"#utility.yul\":9394:9932   */\n      swap5\n      swap4\n      pop\n      pop\n      pop\n      pop\n      jump\t// out\n        /* \"#utility.yul\":9938:10118   */\n    tag_174:\n        /* \"#utility.yul\":9986:10063   */\n      0x4e487b7100000000000000000000000000000000000000000000000000000000\n        /* \"#utility.yul\":9983:9984   */\n      0x00\n        /* \"#utility.yul\":9976:10064   */\n      mstore\n        /* \"#utility.yul\":10083:10087   */\n      0x12\n        /* \"#utility.yul\":10080:10081   */\n      0x04\n        /* \"#utility.yul\":10073:10088   */\n      mstore\n        /* \"#utility.yul\":10107:10111   */\n      0x24\n        /* \"#utility.yul\":10104:10105   */\n      0x00\n        /* \"#utility.yul\":10097:10112   */\n      revert\n        /* \"#utility.yul\":10124:10300   */\n    tag_109:\n        /* \"#utility.yul\":10156:10157   */\n      0x00\n        /* \"#utility.yul\":10173:10193   */\n      tag_291\n        /* \"#utility.yul\":10191:10192   */\n      dup3\n        /* \"#utility.yul\":10173:10193   */\n      tag_143\n      jump\t// in\n    tag_291:\n        /* \"#utility.yul\":10168:10193   */\n      swap2\n      pop\n        /* \"#utility.yul\":10207:10227   */\n      tag_292\n        /* \"#utility.yul\":10225:10226   */\n      dup4\n        /* \"#utility.yul\":10207:10227   */\n      tag_143\n      jump\t// in\n    tag_292:\n        /* \"#utility.yul\":10202:10227   */\n      swap3\n      pop\n        /* \"#utility.yul\":10246:10247   */\n      dup3\n        /* \"#utility.yul\":10236:10271   */\n      tag_293\n      jumpi\n        /* \"#utility.yul\":10251:10269   */\n      tag_294\n      tag_174\n      jump\t// in\n    tag_294:\n        /* \"#utility.yul\":10236:10271   */\n    tag_293:\n        /* \"#utility.yul\":10292:10293   */\n      dup3\n        /* \"#utility.yul\":10289:10290   */\n      dup3\n        /* \"#utility.yul\":10285:10294   */\n      mod\n        /* \"#utility.yul\":10280:10294   */\n      swap1\n      pop\n        /* \"#utility.yul\":10124:10300   */\n      swap3\n      swap2\n      pop\n      pop\n      jump\t// out\n\n    auxdata: 0xa2646970667358221220f9ab472082f14f65cd28708843db5cdaaaa9c595cadc026604abc05681aa895964736f6c63430008090033\n}\n","bytecode":{"linkReferences":{},"object":"60806040523480156200001157600080fd5b506040516200142238038062001422833981810160405281019062000037919062000111565b80600460006101000a81548173ffffffffffffffffffffffffffffffffffffffff021916908373ffffffffffffffffffffffffffffffffffffffff1602179055506001600260006101000a81548160ff021916908315150217905550655af3107a40006003819055505062000143565b600080fd5b600073ffffffffffffffffffffffffffffffffffffffff82169050919050565b6000620000d982620000ac565b9050919050565b620000eb81620000cc565b8114620000f757600080fd5b50565b6000815190506200010b81620000e0565b92915050565b6000602082840312156200012a5762000129620000a7565b5b60006200013a84828501620000fa565b91505092915050565b6112cf80620001536000396000f3fe60806040526004361061007b5760003560e01c8063575149431161004e578063575149431461012f578063c22c4f4314610158578063c594e5ec14610198578063dd36ff27146101b45761007b565b806303ff5c991461008057806308551a531461009c5780631cf82bd2146100c75780634c3912e7146100f0575b600080fd5b61009a60048036038101906100959190610ccb565b6101d0565b005b3480156100a857600080fd5b506100b1610429565b6040516100be9190610d39565b60405180910390f35b3480156100d357600080fd5b506100ee60048036038101906100e99190610e9a565b61044f565b005b3480156100fc57600080fd5b5061011760048036038101906101129190610ccb565b610510565b60405161012693929190610fa8565b60405180910390f35b34801561013b57600080fd5b5061015660048036038101906101519190610fe6565b6105df565b005b34801561016457600080fd5b5061017f600480360381019061017a9190610ccb565b61077b565b60405161018f9493929190611039565b60405180910390f35b6101b260048036038101906101ad9190610ccb565b6107e8565b005b6101ce60048036038101906101c99190610ccb565b610983565b005b600460009054906101000a900473ffffffffffffffffffffffffffffffffffffffff1673ffffffffffffffffffffffffffffffffffffffff163373ffffffffffffffffffffffffffffffffffffffff161461022a57600080fd5b6000600182815481106102405761023f61107e565b5b906000526020600020906004020190506000808260000154815481106102695761026861107e565b5b9060005260206000209060030201905060018260010160006101000a81548160ff02191690831515021790555060018160020160006101000a81548160ff02191690831515021790555061070882600201546102c591906110dc565b4210156103a9578160030160009054906101000a900473ffffffffffffffffffffffffffffffffffffffff1673ffffffffffffffffffffffffffffffffffffffff166108fc82600101549081150290604051600060405180830381858888f1935050505015801561033a573d6000803e3d6000fd5b50600460009054906101000a900473ffffffffffffffffffffffffffffffffffffffff1673ffffffffffffffffffffffffffffffffffffffff166108fc349081150290604051600060405180830381858888f193505050501580156103a3573d6000803e3d6000fd5b50610424565b8160030160009054906101000a900473ffffffffffffffffffffffffffffffffffffffff1673ffffffffffffffffffffffffffffffffffffffff166108fc3483600101546103f791906110dc565b9081150290604051600060405180830381858888f19350505050158015610422573d6000803e3d6000fd5b505b505050565b600460009054906101000a900473ffffffffffffffffffffffffffffffffffffffff1681565b600460009054906101000a900473ffffffffffffffffffffffffffffffffffffffff1673ffffffffffffffffffffffffffffffffffffffff163373ffffffffffffffffffffffffffffffffffffffff16146104a957600080fd5b6000806001816001815401808255809150500390600052602060002090600302019050828160000190805190602001906104e4929190610bde565b5081816001018190555060018160020160006101000a81548160ff021916908315150217905550505050565b6000818154811061052057600080fd5b906000526020600020906003020160009150905080600001805461054390611161565b80601f016020809104026020016040519081016040528092919081815260200182805461056f90611161565b80156105bc5780601f10610591576101008083540402835291602001916105bc565b820191906000526020600020905b81548152906001019060200180831161059f57829003601f168201915b5050505050908060010154908060020160009054906101000a900460ff16905083565b600460009054906101000a900473ffffffffffffffffffffffffffffffffffffffff1673ffffffffffffffffffffffffffffffffffffffff163373ffffffffffffffffffffffffffffffffffffffff161461063957600080fd5b60006001848154811061064f5761064e61107e565b5b906000526020600020906004020190508260066000836002015481526020019081526020016000205414801561069b575081600760008360020154815260200190815260200160002054145b6106a457600080fd5b60018160010160006101000a81548160ff0219169083151502179055506000808260000154815481106106da576106d961107e565b5b90600052602060002090600302019050600460009054906101000a900473ffffffffffffffffffffffffffffffffffffffff1673ffffffffffffffffffffffffffffffffffffffff166108fc82600101549081150290604051600060405180830381858888f19350505050158015610756573d6000803e3d6000fd5b5060018160020160006101000a81548160ff0219169083151502179055505050505050565b6001818154811061078b57600080fd5b90600052602060002090600402016000915090508060000154908060010160009054906101000a900460ff16908060020154908060030160009054906101000a900473ffffffffffffffffffffffffffffffffffffffff16905084565b60011515600260009054906101000a900460ff1615151461080857600080fd5b600060018081600181540180825580915050039060005260206000209060040201905060008083815481106108405761083f61107e565b5b906000526020600020906003020190508060010154341461086057600080fd5b428260020181905550828260000181905550338260030160006101000a81548173ffffffffffffffffffffffffffffffffffffffff021916908373ffffffffffffffffffffffffffffffffffffffff16021790555060008260010160006101000a81548160ff0219169083151502179055506103e84244336040516020016108ea939291906111fc565b6040516020818303038152906040528051906020012060001c61090d9190611268565b6006600084600201548152602001908152602001600020819055506103e8424433604051602001610940939291906111fc565b6040516020818303038152906040528051906020012060001c6109639190611268565b600760008460020154815260200190815260200160002081905550505050565b6000600182815481106109995761099861107e565b5b906000526020600020906004020190506000808260000154815481106109c2576109c161107e565b5b906000526020600020906003020190508160030160009054906101000a900473ffffffffffffffffffffffffffffffffffffffff1673ffffffffffffffffffffffffffffffffffffffff163373ffffffffffffffffffffffffffffffffffffffff1614610a2e57600080fd5b60018260010160006101000a81548160ff02191690831515021790555060018160020160006101000a81548160ff0219169083151502179055506107088260020154610a7a91906110dc565b421015610b00578160030160009054906101000a900473ffffffffffffffffffffffffffffffffffffffff1673ffffffffffffffffffffffffffffffffffffffff166108fc348360010154610acf91906110dc565b9081150290604051600060405180830381858888f19350505050158015610afa573d6000803e3d6000fd5b50610bd9565b600460009054906101000a900473ffffffffffffffffffffffffffffffffffffffff1673ffffffffffffffffffffffffffffffffffffffff166108fc349081150290604051600060405180830381858888f19350505050158015610b68573d6000803e3d6000fd5b508160030160009054906101000a900473ffffffffffffffffffffffffffffffffffffffff1673ffffffffffffffffffffffffffffffffffffffff166108fc82600101549081150290604051600060405180830381858888f19350505050158015610bd7573d6000803e3d6000fd5b505b505050565b828054610bea90611161565b90600052602060002090601f016020900481019282610c0c5760008555610c53565b82601f10610c2557805160ff1916838001178555610c53565b82800160010185558215610c53579182015b82811115610c52578251825591602001919060010190610c37565b5b509050610c609190610c64565b5090565b5b80821115610c7d576000816000905550600101610c65565b5090565b6000604051905090565b600080fd5b600080fd5b6000819050919050565b610ca881610c95565b8114610cb357600080fd5b50565b600081359050610cc581610c9f565b92915050565b600060208284031215610ce157610ce0610c8b565b5b6000610cef84828501610cb6565b91505092915050565b600073ffffffffffffffffffffffffffffffffffffffff82169050919050565b6000610d2382610cf8565b9050919050565b610d3381610d18565b82525050565b6000602082019050610d4e6000830184610d2a565b92915050565b600080fd5b600080fd5b6000601f19601f8301169050919050565b7f4e487b7100000000000000000000000000000000000000000000000000000000600052604160045260246000fd5b610da782610d5e565b810181811067ffffffffffffffff82111715610dc657610dc5610d6f565b5b80604052505050565b6000610dd9610c81565b9050610de58282610d9e565b919050565b600067ffffffffffffffff821115610e0557610e04610d6f565b5b610e0e82610d5e565b9050602081019050919050565b82818337600083830152505050565b6000610e3d610e3884610dea565b610dcf565b905082815260208101848484011115610e5957610e58610d59565b5b610e64848285610e1b565b509392505050565b600082601f830112610e8157610e80610d54565b5b8135610e91848260208601610e2a565b91505092915050565b60008060408385031215610eb157610eb0610c8b565b5b600083013567ffffffffffffffff811115610ecf57610ece610c90565b5b610edb85828601610e6c565b9250506020610eec85828601610cb6565b9150509250929050565b600081519050919050565b600082825260208201905092915050565b60005b83811015610f30578082015181840152602081019050610f15565b83811115610f3f576000848401525b50505050565b6000610f5082610ef6565b610f5a8185610f01565b9350610f6a818560208601610f12565b610f7381610d5e565b840191505092915050565b610f8781610c95565b82525050565b60008115159050919050565b610fa281610f8d565b82525050565b60006060820190508181036000830152610fc28186610f45565b9050610fd16020830185610f7e565b610fde6040830184610f99565b949350505050565b600080600060608486031215610fff57610ffe610c8b565b5b600061100d86828701610cb6565b935050602061101e86828701610cb6565b925050604061102f86828701610cb6565b9150509250925092565b600060808201905061104e6000830187610f7e565b61105b6020830186610f99565b6110686040830185610f7e565b6110756060830184610d2a565b95945050505050565b7f4e487b7100000000000000000000000000000000000000000000000000000000600052603260045260246000fd5b7f4e487b7100000000000000000000000000000000000000000000000000000000600052601160045260246000fd5b60006110e782610c95565b91506110f283610c95565b9250827fffffffffffffffffffffffffffffffffffffffffffffffffffffffffffffffff03821115611127576111266110ad565b5b828201905092915050565b7f4e487b7100000000000000000000000000000000000000000000000000000000600052602260045260246000fd5b6000600282049050600182168061117957607f821691505b6020821081141561118d5761118c611132565b5b50919050565b6000819050919050565b6111ae6111a982610c95565b611193565b82525050565b60008160601b9050919050565b60006111cc826111b4565b9050919050565b60006111de826111c1565b9050919050565b6111f66111f182610d18565b6111d3565b82525050565b6000611208828661119d565b602082019150611218828561119d565b60208201915061122882846111e5565b601482019150819050949350505050565b7f4e487b7100000000000000000000000000000000000000000000000000000000600052601260045260246000fd5b600061127382610c95565b915061127e83610c95565b92508261128e5761128d611239565b5b82820690509291505056fea2646970667358221220f9ab472082f14f65cd28708843db5cdaaaa9c595cadc026604abc05681aa895964736f6c63430008090033","opcodes":"PUSH1 0x80 PUSH1 0x40 MSTORE CALLVALUE DUP1 ISZERO PUSH3 0x11 JUMPI PUSH1 0x0 DUP1 REVERT JUMPDEST POP PUSH1 0x40 MLOAD PUSH3 0x1422 CODESIZE SUB DUP1 PUSH3 0x1422 DUP4 CODECOPY DUP2 DUP2 ADD PUSH1 0x40 MSTORE DUP2 ADD SWAP1 PUSH3 0x37 SWAP2 SWAP1 PUSH3 0x111 JUMP JUMPDEST DUP1 PUSH1 0x4 PUSH1 0x0 PUSH2 0x100 EXP DUP2 SLOAD DUP2 PUSH20 0xFFFFFFFFFFFFFFFFFFFFFFFFFFFFFFFFFFFFFFFF MUL NOT AND SWAP1 DUP4 PUSH20 0xFFFFFFFFFFFFFFFFFFFFFFFFFFFFFFFFFFFFFFFF AND MUL OR SWAP1 SSTORE POP PUSH1 0x1 PUSH1 0x2 PUSH1 0x0 PUSH2 0x100 EXP DUP2 SLOAD DUP2 PUSH1 0xFF MUL NOT AND SWAP1 DUP4 ISZERO ISZERO MUL OR SWAP1 SSTORE POP PUSH6 0x5AF3107A4000 PUSH1 0x3 DUP2 SWAP1 SSTORE POP POP PUSH3 0x143 JUMP JUMPDEST PUSH1 0x0 DUP1 REVERT JUMPDEST PUSH1 0x0 PUSH20 0xFFFFFFFFFFFFFFFFFFFFFFFFFFFFFFFFFFFFFFFF DUP3 AND SWAP1 POP SWAP2 SWAP1 POP JUMP JUMPDEST PUSH1 0x0 PUSH3 0xD9 DUP3 PUSH3 0xAC JUMP JUMPDEST SWAP1 POP SWAP2 SWAP1 POP JUMP JUMPDEST PUSH3 0xEB DUP2 PUSH3 0xCC JUMP JUMPDEST DUP2 EQ PUSH3 0xF7 JUMPI PUSH1 0x0 DUP1 REVERT JUMPDEST POP JUMP JUMPDEST PUSH1 0x0 DUP2 MLOAD SWAP1 POP PUSH3 0x10B DUP2 PUSH3 0xE0 JUMP JUMPDEST SWAP3 SWAP2 POP POP JUMP JUMPDEST PUSH1 0x0 PUSH1 0x20 DUP3 DUP5 SUB SLT ISZERO PUSH3 0x12A JUMPI PUSH3 0x129 PUSH3 0xA7 JUMP JUMPDEST JUMPDEST PUSH1 0x0 PUSH3 0x13A DUP5 DUP3 DUP6 ADD PUSH3 0xFA JUMP JUMPDEST SWAP2 POP POP SWAP3 SWAP2 POP POP JUMP JUMPDEST PUSH2 0x12CF DUP1 PUSH3 0x153 PUSH1 0x0 CODECOPY PUSH1 0x0 RETURN INVALID PUSH1 0x80 PUSH1 0x40 MSTORE PUSH1 0x4 CALLDATASIZE LT PUSH2 0x7B JUMPI PUSH1 0x0 CALLDATALOAD PUSH1 0xE0 SHR DUP1 PUSH4 0x57514943 GT PUSH2 0x4E JUMPI DUP1 PUSH4 0x57514943 EQ PUSH2 0x12F JUMPI DUP1 PUSH4 0xC22C4F43 EQ PUSH2 0x158 JUMPI DUP1 PUSH4 0xC594E5EC EQ PUSH2 0x198 JUMPI DUP1 PUSH4 0xDD36FF27 EQ PUSH2 0x1B4 JUMPI PUSH2 0x7B JUMP JUMPDEST DUP1 PUSH4 0x3FF5C99 EQ PUSH2 0x80 JUMPI DUP1 PUSH4 0x8551A53 EQ PUSH2 0x9C JUMPI DUP1 PUSH4 0x1CF82BD2 EQ PUSH2 0xC7 JUMPI DUP1 PUSH4 0x4C3912E7 EQ PUSH2 0xF0 JUMPI JUMPDEST PUSH1 0x0 DUP1 REVERT JUMPDEST PUSH2 0x9A PUSH1 0x4 DUP1 CALLDATASIZE SUB DUP2 ADD SWAP1 PUSH2 0x95 SWAP2 SWAP1 PUSH2 0xCCB JUMP JUMPDEST PUSH2 0x1D0 JUMP JUMPDEST STOP JUMPDEST CALLVALUE DUP1 ISZERO PUSH2 0xA8 JUMPI PUSH1 0x0 DUP1 REVERT JUMPDEST POP PUSH2 0xB1 PUSH2 0x429 JUMP JUMPDEST PUSH1 0x40 MLOAD PUSH2 0xBE SWAP2 SWAP1 PUSH2 0xD39 JUMP JUMPDEST PUSH1 0x40 MLOAD DUP1 SWAP2 SUB SWAP1 RETURN JUMPDEST CALLVALUE DUP1 ISZERO PUSH2 0xD3 JUMPI PUSH1 0x0 DUP1 REVERT JUMPDEST POP PUSH2 0xEE PUSH1 0x4 DUP1 CALLDATASIZE SUB DUP2 ADD SWAP1 PUSH2 0xE9 SWAP2 SWAP1 PUSH2 0xE9A JUMP JUMPDEST PUSH2 0x44F JUMP JUMPDEST STOP JUMPDEST CALLVALUE DUP1 ISZERO PUSH2 0xFC JUMPI PUSH1 0x0 DUP1 REVERT JUMPDEST POP PUSH2 0x117 PUSH1 0x4 DUP1 CALLDATASIZE SUB DUP2 ADD SWAP1 PUSH2 0x112 SWAP2 SWAP1 PUSH2 0xCCB JUMP JUMPDEST PUSH2 0x510 JUMP JUMPDEST PUSH1 0x40 MLOAD PUSH2 0x126 SWAP4 SWAP3 SWAP2 SWAP1 PUSH2 0xFA8 JUMP JUMPDEST PUSH1 0x40 MLOAD DUP1 SWAP2 SUB SWAP1 RETURN JUMPDEST CALLVALUE DUP1 ISZERO PUSH2 0x13B JUMPI PUSH1 0x0 DUP1 REVERT JUMPDEST POP PUSH2 0x156 PUSH1 0x4 DUP1 CALLDATASIZE SUB DUP2 ADD SWAP1 PUSH2 0x151 SWAP2 SWAP1 PUSH2 0xFE6 JUMP JUMPDEST PUSH2 0x5DF JUMP JUMPDEST STOP JUMPDEST CALLVALUE DUP1 ISZERO PUSH2 0x164 JUMPI PUSH1 0x0 DUP1 REVERT JUMPDEST POP PUSH2 0x17F PUSH1 0x4 DUP1 CALLDATASIZE SUB DUP2 ADD SWAP1 PUSH2 0x17A SWAP2 SWAP1 PUSH2 0xCCB JUMP JUMPDEST PUSH2 0x77B JUMP JUMPDEST PUSH1 0x40 MLOAD PUSH2 0x18F SWAP5 SWAP4 SWAP3 SWAP2 SWAP1 PUSH2 0x1039 JUMP JUMPDEST PUSH1 0x40 MLOAD DUP1 SWAP2 SUB SWAP1 RETURN JUMPDEST PUSH2 0x1B2 PUSH1 0x4 DUP1 CALLDATASIZE SUB DUP2 ADD SWAP1 PUSH2 0x1AD SWAP2 SWAP1 PUSH2 0xCCB JUMP JUMPDEST PUSH2 0x7E8 JUMP JUMPDEST STOP JUMPDEST PUSH2 0x1CE PUSH1 0x4 DUP1 CALLDATASIZE SUB DUP2 ADD SWAP1 PUSH2 0x1C9 SWAP2 SWAP1 PUSH2 0xCCB JUMP JUMPDEST PUSH2 0x983 JUMP JUMPDEST STOP JUMPDEST PUSH1 0x4 PUSH1 0x0 SWAP1 SLOAD SWAP1 PUSH2 0x100 EXP SWAP1 DIV PUSH20 0xFFFFFFFFFFFFFFFFFFFFFFFFFFFFFFFFFFFFFFFF AND PUSH20 0xFFFFFFFFFFFFFFFFFFFFFFFFFFFFFFFFFFFFFFFF AND CALLER PUSH20 0xFFFFFFFFFFFFFFFFFFFFFFFFFFFFFFFFFFFFFFFF AND EQ PUSH2 0x22A JUMPI PUSH1 0x0 DUP1 REVERT JUMPDEST PUSH1 0x0 PUSH1 0x1 DUP3 DUP2 SLOAD DUP2 LT PUSH2 0x240 JUMPI PUSH2 0x23F PUSH2 0x107E JUMP JUMPDEST JUMPDEST SWAP1 PUSH1 0x0 MSTORE PUSH1 0x20 PUSH1 0x0 KECCAK256 SWAP1 PUSH1 0x4 MUL ADD SWAP1 POP PUSH1 0x0 DUP1 DUP3 PUSH1 0x0 ADD SLOAD DUP2 SLOAD DUP2 LT PUSH2 0x269 JUMPI PUSH2 0x268 PUSH2 0x107E JUMP JUMPDEST JUMPDEST SWAP1 PUSH1 0x0 MSTORE PUSH1 0x20 PUSH1 0x0 KECCAK256 SWAP1 PUSH1 0x3 MUL ADD SWAP1 POP PUSH1 0x1 DUP3 PUSH1 0x1 ADD PUSH1 0x0 PUSH2 0x100 EXP DUP2 SLOAD DUP2 PUSH1 0xFF MUL NOT AND SWAP1 DUP4 ISZERO ISZERO MUL OR SWAP1 SSTORE POP PUSH1 0x1 DUP2 PUSH1 0x2 ADD PUSH1 0x0 PUSH2 0x100 EXP DUP2 SLOAD DUP2 PUSH1 0xFF MUL NOT AND SWAP1 DUP4 ISZERO ISZERO MUL OR SWAP1 SSTORE POP PUSH2 0x708 DUP3 PUSH1 0x2 ADD SLOAD PUSH2 0x2C5 SWAP2 SWAP1 PUSH2 0x10DC JUMP JUMPDEST TIMESTAMP LT ISZERO PUSH2 0x3A9 JUMPI DUP2 PUSH1 0x3 ADD PUSH1 0x0 SWAP1 SLOAD SWAP1 PUSH2 0x100 EXP SWAP1 DIV PUSH20 0xFFFFFFFFFFFFFFFFFFFFFFFFFFFFFFFFFFFFFFFF AND PUSH20 0xFFFFFFFFFFFFFFFFFFFFFFFFFFFFFFFFFFFFFFFF AND PUSH2 0x8FC DUP3 PUSH1 0x1 ADD SLOAD SWAP1 DUP2 ISZERO MUL SWAP1 PUSH1 0x40 MLOAD PUSH1 0x0 PUSH1 0x40 MLOAD DUP1 DUP4 SUB DUP2 DUP6 DUP9 DUP9 CALL SWAP4 POP POP POP POP ISZERO DUP1 ISZERO PUSH2 0x33A JUMPI RETURNDATASIZE PUSH1 0x0 DUP1 RETURNDATACOPY RETURNDATASIZE PUSH1 0x0 REVERT JUMPDEST POP PUSH1 0x4 PUSH1 0x0 SWAP1 SLOAD SWAP1 PUSH2 0x100 EXP SWAP1 DIV PUSH20 0xFFFFFFFFFFFFFFFFFFFFFFFFFFFFFFFFFFFFFFFF AND PUSH20 0xFFFFFFFFFFFFFFFFFFFFFFFFFFFFFFFFFFFFFFFF AND PUSH2 0x8FC CALLVALUE SWAP1 DUP2 ISZERO MUL SWAP1 PUSH1 0x40 MLOAD PUSH1 0x0 PUSH1 0x40 MLOAD DUP1 DUP4 SUB DUP2 DUP6 DUP9 DUP9 CALL SWAP4 POP POP POP POP ISZERO DUP1 ISZERO PUSH2 0x3A3 JUMPI RETURNDATASIZE PUSH1 0x0 DUP1 RETURNDATACOPY RETURNDATASIZE PUSH1 0x0 REVERT JUMPDEST POP PUSH2 0x424 JUMP JUMPDEST DUP2 PUSH1 0x3 ADD PUSH1 0x0 SWAP1 SLOAD SWAP1 PUSH2 0x100 EXP SWAP1 DIV PUSH20 0xFFFFFFFFFFFFFFFFFFFFFFFFFFFFFFFFFFFFFFFF AND PUSH20 0xFFFFFFFFFFFFFFFFFFFFFFFFFFFFFFFFFFFFFFFF AND PUSH2 0x8FC CALLVALUE DUP4 PUSH1 0x1 ADD SLOAD PUSH2 0x3F7 SWAP2 SWAP1 PUSH2 0x10DC JUMP JUMPDEST SWAP1 DUP2 ISZERO MUL SWAP1 PUSH1 0x40 MLOAD PUSH1 0x0 PUSH1 0x40 MLOAD DUP1 DUP4 SUB DUP2 DUP6 DUP9 DUP9 CALL SWAP4 POP POP POP POP ISZERO DUP1 ISZERO PUSH2 0x422 JUMPI RETURNDATASIZE PUSH1 0x0 DUP1 RETURNDATACOPY RETURNDATASIZE PUSH1 0x0 REVERT JUMPDEST POP JUMPDEST POP POP POP JUMP JUMPDEST PUSH1 0x4 PUSH1 0x0 SWAP1 SLOAD SWAP1 PUSH2 0x100 EXP SWAP1 DIV PUSH20 0xFFFFFFFFFFFFFFFFFFFFFFFFFFFFFFFFFFFFFFFF AND DUP2 JUMP JUMPDEST PUSH1 0x4 PUSH1 0x0 SWAP1 SLOAD SWAP1 PUSH2 0x100 EXP SWAP1 DIV PUSH20 0xFFFFFFFFFFFFFFFFFFFFFFFFFFFFFFFFFFFFFFFF AND PUSH20 0xFFFFFFFFFFFFFFFFFFFFFFFFFFFFFFFFFFFFFFFF AND CALLER PUSH20 0xFFFFFFFFFFFFFFFFFFFFFFFFFFFFFFFFFFFFFFFF AND EQ PUSH2 0x4A9 JUMPI PUSH1 0x0 DUP1 REVERT JUMPDEST PUSH1 0x0 DUP1 PUSH1 0x1 DUP2 PUSH1 0x1 DUP2 SLOAD ADD DUP1 DUP3 SSTORE DUP1 SWAP2 POP POP SUB SWAP1 PUSH1 0x0 MSTORE PUSH1 0x20 PUSH1 0x0 KECCAK256 SWAP1 PUSH1 0x3 MUL ADD SWAP1 POP DUP3 DUP2 PUSH1 0x0 ADD SWAP1 DUP1 MLOAD SWAP1 PUSH1 0x20 ADD SWAP1 PUSH2 0x4E4 SWAP3 SWAP2 SWAP1 PUSH2 0xBDE JUMP JUMPDEST POP DUP2 DUP2 PUSH1 0x1 ADD DUP2 SWAP1 SSTORE POP PUSH1 0x1 DUP2 PUSH1 0x2 ADD PUSH1 0x0 PUSH2 0x100 EXP DUP2 SLOAD DUP2 PUSH1 0xFF MUL NOT AND SWAP1 DUP4 ISZERO ISZERO MUL OR SWAP1 SSTORE POP POP POP POP JUMP JUMPDEST PUSH1 0x0 DUP2 DUP2 SLOAD DUP2 LT PUSH2 0x520 JUMPI PUSH1 0x0 DUP1 REVERT JUMPDEST SWAP1 PUSH1 0x0 MSTORE PUSH1 0x20 PUSH1 0x0 KECCAK256 SWAP1 PUSH1 0x3 MUL ADD PUSH1 0x0 SWAP2 POP SWAP1 POP DUP1 PUSH1 0x0 ADD DUP1 SLOAD PUSH2 0x543 SWAP1 PUSH2 0x1161 JUMP JUMPDEST DUP1 PUSH1 0x1F ADD PUSH1 0x20 DUP1 SWAP2 DIV MUL PUSH1 0x20 ADD PUSH1 0x40 MLOAD SWAP1 DUP2 ADD PUSH1 0x40 MSTORE DUP1 SWAP3 SWAP2 SWAP1 DUP2 DUP2 MSTORE PUSH1 0x20 ADD DUP3 DUP1 SLOAD PUSH2 0x56F SWAP1 PUSH2 0x1161 JUMP JUMPDEST DUP1 ISZERO PUSH2 0x5BC JUMPI DUP1 PUSH1 0x1F LT PUSH2 0x591 JUMPI PUSH2 0x100 DUP1 DUP4 SLOAD DIV MUL DUP4 MSTORE SWAP2 PUSH1 0x20 ADD SWAP2 PUSH2 0x5BC JUMP JUMPDEST DUP3 ADD SWAP2 SWAP1 PUSH1 0x0 MSTORE PUSH1 0x20 PUSH1 0x0 KECCAK256 SWAP1 JUMPDEST DUP2 SLOAD DUP2 MSTORE SWAP1 PUSH1 0x1 ADD SWAP1 PUSH1 0x20 ADD DUP1 DUP4 GT PUSH2 0x59F JUMPI DUP3 SWAP1 SUB PUSH1 0x1F AND DUP3 ADD SWAP2 JUMPDEST POP POP POP POP POP SWAP1 DUP1 PUSH1 0x1 ADD SLOAD SWAP1 DUP1 PUSH1 0x2 ADD PUSH1 0x0 SWAP1 SLOAD SWAP1 PUSH2 0x100 EXP SWAP1 DIV PUSH1 0xFF AND SWAP1 POP DUP4 JUMP JUMPDEST PUSH1 0x4 PUSH1 0x0 SWAP1 SLOAD SWAP1 PUSH2 0x100 EXP SWAP1 DIV PUSH20 0xFFFFFFFFFFFFFFFFFFFFFFFFFFFFFFFFFFFFFFFF AND PUSH20 0xFFFFFFFFFFFFFFFFFFFFFFFFFFFFFFFFFFFFFFFF AND CALLER PUSH20 0xFFFFFFFFFFFFFFFFFFFFFFFFFFFFFFFFFFFFFFFF AND EQ PUSH2 0x639 JUMPI PUSH1 0x0 DUP1 REVERT JUMPDEST PUSH1 0x0 PUSH1 0x1 DUP5 DUP2 SLOAD DUP2 LT PUSH2 0x64F JUMPI PUSH2 0x64E PUSH2 0x107E JUMP JUMPDEST JUMPDEST SWAP1 PUSH1 0x0 MSTORE PUSH1 0x20 PUSH1 0x0 KECCAK256 SWAP1 PUSH1 0x4 MUL ADD SWAP1 POP DUP3 PUSH1 0x6 PUSH1 0x0 DUP4 PUSH1 0x2 ADD SLOAD DUP2 MSTORE PUSH1 0x20 ADD SWAP1 DUP2 MSTORE PUSH1 0x20 ADD PUSH1 0x0 KECCAK256 SLOAD EQ DUP1 ISZERO PUSH2 0x69B JUMPI POP DUP2 PUSH1 0x7 PUSH1 0x0 DUP4 PUSH1 0x2 ADD SLOAD DUP2 MSTORE PUSH1 0x20 ADD SWAP1 DUP2 MSTORE PUSH1 0x20 ADD PUSH1 0x0 KECCAK256 SLOAD EQ JUMPDEST PUSH2 0x6A4 JUMPI PUSH1 0x0 DUP1 REVERT JUMPDEST PUSH1 0x1 DUP2 PUSH1 0x1 ADD PUSH1 0x0 PUSH2 0x100 EXP DUP2 SLOAD DUP2 PUSH1 0xFF MUL NOT AND SWAP1 DUP4 ISZERO ISZERO MUL OR SWAP1 SSTORE POP PUSH1 0x0 DUP1 DUP3 PUSH1 0x0 ADD SLOAD DUP2 SLOAD DUP2 LT PUSH2 0x6DA JUMPI PUSH2 0x6D9 PUSH2 0x107E JUMP JUMPDEST JUMPDEST SWAP1 PUSH1 0x0 MSTORE PUSH1 0x20 PUSH1 0x0 KECCAK256 SWAP1 PUSH1 0x3 MUL ADD SWAP1 POP PUSH1 0x4 PUSH1 0x0 SWAP1 SLOAD SWAP1 PUSH2 0x100 EXP SWAP1 DIV PUSH20 0xFFFFFFFFFFFFFFFFFFFFFFFFFFFFFFFFFFFFFFFF AND PUSH20 0xFFFFFFFFFFFFFFFFFFFFFFFFFFFFFFFFFFFFFFFF AND PUSH2 0x8FC DUP3 PUSH1 0x1 ADD SLOAD SWAP1 DUP2 ISZERO MUL SWAP1 PUSH1 0x40 MLOAD PUSH1 0x0 PUSH1 0x40 MLOAD DUP1 DUP4 SUB DUP2 DUP6 DUP9 DUP9 CALL SWAP4 POP POP POP POP ISZERO DUP1 ISZERO PUSH2 0x756 JUMPI RETURNDATASIZE PUSH1 0x0 DUP1 RETURNDATACOPY RETURNDATASIZE PUSH1 0x0 REVERT JUMPDEST POP PUSH1 0x1 DUP2 PUSH1 0x2 ADD PUSH1 0x0 PUSH2 0x100 EXP DUP2 SLOAD DUP2 PUSH1 0xFF MUL NOT AND SWAP1 DUP4 ISZERO ISZERO MUL OR SWAP1 SSTORE POP POP POP POP POP POP JUMP JUMPDEST PUSH1 0x1 DUP2 DUP2 SLOAD DUP2 LT PUSH2 0x78B JUMPI PUSH1 0x0 DUP1 REVERT JUMPDEST SWAP1 PUSH1 0x0 MSTORE PUSH1 0x20 PUSH1 0x0 KECCAK256 SWAP1 PUSH1 0x4 MUL ADD PUSH1 0x0 SWAP2 POP SWAP1 POP DUP1 PUSH1 0x0 ADD SLOAD SWAP1 DUP1 PUSH1 0x1 ADD PUSH1 0x0 SWAP1 SLOAD SWAP1 PUSH2 0x100 EXP SWAP1 DIV PUSH1 0xFF AND SWAP1 DUP1 PUSH1 0x2 ADD SLOAD SWAP1 DUP1 PUSH1 0x3 ADD PUSH1 0x0 SWAP1 SLOAD SWAP1 PUSH2 0x100 EXP SWAP1 DIV PUSH20 0xFFFFFFFFFFFFFFFFFFFFFFFFFFFFFFFFFFFFFFFF AND SWAP1 POP DUP5 JUMP JUMPDEST PUSH1 0x1 ISZERO ISZERO PUSH1 0x2 PUSH1 0x0 SWAP1 SLOAD SWAP1 PUSH2 0x100 EXP SWAP1 DIV PUSH1 0xFF AND ISZERO ISZERO EQ PUSH2 0x808 JUMPI PUSH1 0x0 DUP1 REVERT JUMPDEST PUSH1 0x0 PUSH1 0x1 DUP1 DUP2 PUSH1 0x1 DUP2 SLOAD ADD DUP1 DUP3 SSTORE DUP1 SWAP2 POP POP SUB SWAP1 PUSH1 0x0 MSTORE PUSH1 0x20 PUSH1 0x0 KECCAK256 SWAP1 PUSH1 0x4 MUL ADD SWAP1 POP PUSH1 0x0 DUP1 DUP4 DUP2 SLOAD DUP2 LT PUSH2 0x840 JUMPI PUSH2 0x83F PUSH2 0x107E JUMP JUMPDEST JUMPDEST SWAP1 PUSH1 0x0 MSTORE PUSH1 0x20 PUSH1 0x0 KECCAK256 SWAP1 PUSH1 0x3 MUL ADD SWAP1 POP DUP1 PUSH1 0x1 ADD SLOAD CALLVALUE EQ PUSH2 0x860 JUMPI PUSH1 0x0 DUP1 REVERT JUMPDEST TIMESTAMP DUP3 PUSH1 0x2 ADD DUP2 SWAP1 SSTORE POP DUP3 DUP3 PUSH1 0x0 ADD DUP2 SWAP1 SSTORE POP CALLER DUP3 PUSH1 0x3 ADD PUSH1 0x0 PUSH2 0x100 EXP DUP2 SLOAD DUP2 PUSH20 0xFFFFFFFFFFFFFFFFFFFFFFFFFFFFFFFFFFFFFFFF MUL NOT AND SWAP1 DUP4 PUSH20 0xFFFFFFFFFFFFFFFFFFFFFFFFFFFFFFFFFFFFFFFF AND MUL OR SWAP1 SSTORE POP PUSH1 0x0 DUP3 PUSH1 0x1 ADD PUSH1 0x0 PUSH2 0x100 EXP DUP2 SLOAD DUP2 PUSH1 0xFF MUL NOT AND SWAP1 DUP4 ISZERO ISZERO MUL OR SWAP1 SSTORE POP PUSH2 0x3E8 TIMESTAMP DIFFICULTY CALLER PUSH1 0x40 MLOAD PUSH1 0x20 ADD PUSH2 0x8EA SWAP4 SWAP3 SWAP2 SWAP1 PUSH2 0x11FC JUMP JUMPDEST PUSH1 0x40 MLOAD PUSH1 0x20 DUP2 DUP4 SUB SUB DUP2 MSTORE SWAP1 PUSH1 0x40 MSTORE DUP1 MLOAD SWAP1 PUSH1 0x20 ADD KECCAK256 PUSH1 0x0 SHR PUSH2 0x90D SWAP2 SWAP1 PUSH2 0x1268 JUMP JUMPDEST PUSH1 0x6 PUSH1 0x0 DUP5 PUSH1 0x2 ADD SLOAD DUP2 MSTORE PUSH1 0x20 ADD SWAP1 DUP2 MSTORE PUSH1 0x20 ADD PUSH1 0x0 KECCAK256 DUP2 SWAP1 SSTORE POP PUSH2 0x3E8 TIMESTAMP DIFFICULTY CALLER PUSH1 0x40 MLOAD PUSH1 0x20 ADD PUSH2 0x940 SWAP4 SWAP3 SWAP2 SWAP1 PUSH2 0x11FC JUMP JUMPDEST PUSH1 0x40 MLOAD PUSH1 0x20 DUP2 DUP4 SUB SUB DUP2 MSTORE SWAP1 PUSH1 0x40 MSTORE DUP1 MLOAD SWAP1 PUSH1 0x20 ADD KECCAK256 PUSH1 0x0 SHR PUSH2 0x963 SWAP2 SWAP1 PUSH2 0x1268 JUMP JUMPDEST PUSH1 0x7 PUSH1 0x0 DUP5 PUSH1 0x2 ADD SLOAD DUP2 MSTORE PUSH1 0x20 ADD SWAP1 DUP2 MSTORE PUSH1 0x20 ADD PUSH1 0x0 KECCAK256 DUP2 SWAP1 SSTORE POP POP POP POP JUMP JUMPDEST PUSH1 0x0 PUSH1 0x1 DUP3 DUP2 SLOAD DUP2 LT PUSH2 0x999 JUMPI PUSH2 0x998 PUSH2 0x107E JUMP JUMPDEST JUMPDEST SWAP1 PUSH1 0x0 MSTORE PUSH1 0x20 PUSH1 0x0 KECCAK256 SWAP1 PUSH1 0x4 MUL ADD SWAP1 POP PUSH1 0x0 DUP1 DUP3 PUSH1 0x0 ADD SLOAD DUP2 SLOAD DUP2 LT PUSH2 0x9C2 JUMPI PUSH2 0x9C1 PUSH2 0x107E JUMP JUMPDEST JUMPDEST SWAP1 PUSH1 0x0 MSTORE PUSH1 0x20 PUSH1 0x0 KECCAK256 SWAP1 PUSH1 0x3 MUL ADD SWAP1 POP DUP2 PUSH1 0x3 ADD PUSH1 0x0 SWAP1 SLOAD SWAP1 PUSH2 0x100 EXP SWAP1 DIV PUSH20 0xFFFFFFFFFFFFFFFFFFFFFFFFFFFFFFFFFFFFFFFF AND PUSH20 0xFFFFFFFFFFFFFFFFFFFFFFFFFFFFFFFFFFFFFFFF AND CALLER PUSH20 0xFFFFFFFFFFFFFFFFFFFFFFFFFFFFFFFFFFFFFFFF AND EQ PUSH2 0xA2E JUMPI PUSH1 0x0 DUP1 REVERT JUMPDEST PUSH1 0x1 DUP3 PUSH1 0x1 ADD PUSH1 0x0 PUSH2 0x100 EXP DUP2 SLOAD DUP2 PUSH1 0xFF MUL NOT AND SWAP1 DUP4 ISZERO ISZERO MUL OR SWAP1 SSTORE POP PUSH1 0x1 DUP2 PUSH1 0x2 ADD PUSH1 0x0 PUSH2 0x100 EXP DUP2 SLOAD DUP2 PUSH1 0xFF MUL NOT AND SWAP1 DUP4 ISZERO ISZERO MUL OR SWAP1 SSTORE POP PUSH2 0x708 DUP3 PUSH1 0x2 ADD SLOAD PUSH2 0xA7A SWAP2 SWAP1 PUSH2 0x10DC JUMP JUMPDEST TIMESTAMP LT ISZERO PUSH2 0xB00 JUMPI DUP2 PUSH1 0x3 ADD PUSH1 0x0 SWAP1 SLOAD SWAP1 PUSH2 0x100 EXP SWAP1 DIV PUSH20 0xFFFFFFFFFFFFFFFFFFFFFFFFFFFFFFFFFFFFFFFF AND PUSH20 0xFFFFFFFFFFFFFFFFFFFFFFFFFFFFFFFFFFFFFFFF AND PUSH2 0x8FC CALLVALUE DUP4 PUSH1 0x1 ADD SLOAD PUSH2 0xACF SWAP2 SWAP1 PUSH2 0x10DC JUMP JUMPDEST SWAP1 DUP2 ISZERO MUL SWAP1 PUSH1 0x40 MLOAD PUSH1 0x0 PUSH1 0x40 MLOAD DUP1 DUP4 SUB DUP2 DUP6 DUP9 DUP9 CALL SWAP4 POP POP POP POP ISZERO DUP1 ISZERO PUSH2 0xAFA JUMPI RETURNDATASIZE PUSH1 0x0 DUP1 RETURNDATACOPY RETURNDATASIZE PUSH1 0x0 REVERT JUMPDEST POP PUSH2 0xBD9 JUMP JUMPDEST PUSH1 0x4 PUSH1 0x0 SWAP1 SLOAD SWAP1 PUSH2 0x100 EXP SWAP1 DIV PUSH20 0xFFFFFFFFFFFFFFFFFFFFFFFFFFFFFFFFFFFFFFFF AND PUSH20 0xFFFFFFFFFFFFFFFFFFFFFFFFFFFFFFFFFFFFFFFF AND PUSH2 0x8FC CALLVALUE SWAP1 DUP2 ISZERO MUL SWAP1 PUSH1 0x40 MLOAD PUSH1 0x0 PUSH1 0x40 MLOAD DUP1 DUP4 SUB DUP2 DUP6 DUP9 DUP9 CALL SWAP4 POP POP POP POP ISZERO DUP1 ISZERO PUSH2 0xB68 JUMPI RETURNDATASIZE PUSH1 0x0 DUP1 RETURNDATACOPY RETURNDATASIZE PUSH1 0x0 REVERT JUMPDEST POP DUP2 PUSH1 0x3 ADD PUSH1 0x0 SWAP1 SLOAD SWAP1 PUSH2 0x100 EXP SWAP1 DIV PUSH20 0xFFFFFFFFFFFFFFFFFFFFFFFFFFFFFFFFFFFFFFFF AND PUSH20 0xFFFFFFFFFFFFFFFFFFFFFFFFFFFFFFFFFFFFFFFF AND PUSH2 0x8FC DUP3 PUSH1 0x1 ADD SLOAD SWAP1 DUP2 ISZERO MUL SWAP1 PUSH1 0x40 MLOAD PUSH1 0x0 PUSH1 0x40 MLOAD DUP1 DUP4 SUB DUP2 DUP6 DUP9 DUP9 CALL SWAP4 POP POP POP POP ISZERO DUP1 ISZERO PUSH2 0xBD7 JUMPI RETURNDATASIZE PUSH1 0x0 DUP1 RETURNDATACOPY RETURNDATASIZE PUSH1 0x0 REVERT JUMPDEST POP JUMPDEST POP POP POP JUMP JUMPDEST DUP3 DUP1 SLOAD PUSH2 0xBEA SWAP1 PUSH2 0x1161 JUMP JUMPDEST SWAP1 PUSH1 0x0 MSTORE PUSH1 0x20 PUSH1 0x0 KECCAK256 SWAP1 PUSH1 0x1F ADD PUSH1 0x20 SWAP1 DIV DUP2 ADD SWAP3 DUP3 PUSH2 0xC0C JUMPI PUSH1 0x0 DUP6 SSTORE PUSH2 0xC53 JUMP JUMPDEST DUP3 PUSH1 0x1F LT PUSH2 0xC25 JUMPI DUP1 MLOAD PUSH1 0xFF NOT AND DUP4 DUP1 ADD OR DUP6 SSTORE PUSH2 0xC53 JUMP JUMPDEST DUP3 DUP1 ADD PUSH1 0x1 ADD DUP6 SSTORE DUP3 ISZERO PUSH2 0xC53 JUMPI SWAP2 DUP3 ADD JUMPDEST DUP3 DUP2 GT ISZERO PUSH2 0xC52 JUMPI DUP3 MLOAD DUP3 SSTORE SWAP2 PUSH1 0x20 ADD SWAP2 SWAP1 PUSH1 0x1 ADD SWAP1 PUSH2 0xC37 JUMP JUMPDEST JUMPDEST POP SWAP1 POP PUSH2 0xC60 SWAP2 SWAP1 PUSH2 0xC64 JUMP JUMPDEST POP SWAP1 JUMP JUMPDEST JUMPDEST DUP1 DUP3 GT ISZERO PUSH2 0xC7D JUMPI PUSH1 0x0 DUP2 PUSH1 0x0 SWAP1 SSTORE POP PUSH1 0x1 ADD PUSH2 0xC65 JUMP JUMPDEST POP SWAP1 JUMP JUMPDEST PUSH1 0x0 PUSH1 0x40 MLOAD SWAP1 POP SWAP1 JUMP JUMPDEST PUSH1 0x0 DUP1 REVERT JUMPDEST PUSH1 0x0 DUP1 REVERT JUMPDEST PUSH1 0x0 DUP2 SWAP1 POP SWAP2 SWAP1 POP JUMP JUMPDEST PUSH2 0xCA8 DUP2 PUSH2 0xC95 JUMP JUMPDEST DUP2 EQ PUSH2 0xCB3 JUMPI PUSH1 0x0 DUP1 REVERT JUMPDEST POP JUMP JUMPDEST PUSH1 0x0 DUP2 CALLDATALOAD SWAP1 POP PUSH2 0xCC5 DUP2 PUSH2 0xC9F JUMP JUMPDEST SWAP3 SWAP2 POP POP JUMP JUMPDEST PUSH1 0x0 PUSH1 0x20 DUP3 DUP5 SUB SLT ISZERO PUSH2 0xCE1 JUMPI PUSH2 0xCE0 PUSH2 0xC8B JUMP JUMPDEST JUMPDEST PUSH1 0x0 PUSH2 0xCEF DUP5 DUP3 DUP6 ADD PUSH2 0xCB6 JUMP JUMPDEST SWAP2 POP POP SWAP3 SWAP2 POP POP JUMP JUMPDEST PUSH1 0x0 PUSH20 0xFFFFFFFFFFFFFFFFFFFFFFFFFFFFFFFFFFFFFFFF DUP3 AND SWAP1 POP SWAP2 SWAP1 POP JUMP JUMPDEST PUSH1 0x0 PUSH2 0xD23 DUP3 PUSH2 0xCF8 JUMP JUMPDEST SWAP1 POP SWAP2 SWAP1 POP JUMP JUMPDEST PUSH2 0xD33 DUP2 PUSH2 0xD18 JUMP JUMPDEST DUP3 MSTORE POP POP JUMP JUMPDEST PUSH1 0x0 PUSH1 0x20 DUP3 ADD SWAP1 POP PUSH2 0xD4E PUSH1 0x0 DUP4 ADD DUP5 PUSH2 0xD2A JUMP JUMPDEST SWAP3 SWAP2 POP POP JUMP JUMPDEST PUSH1 0x0 DUP1 REVERT JUMPDEST PUSH1 0x0 DUP1 REVERT JUMPDEST PUSH1 0x0 PUSH1 0x1F NOT PUSH1 0x1F DUP4 ADD AND SWAP1 POP SWAP2 SWAP1 POP JUMP JUMPDEST PUSH32 0x4E487B7100000000000000000000000000000000000000000000000000000000 PUSH1 0x0 MSTORE PUSH1 0x41 PUSH1 0x4 MSTORE PUSH1 0x24 PUSH1 0x0 REVERT JUMPDEST PUSH2 0xDA7 DUP3 PUSH2 0xD5E JUMP JUMPDEST DUP2 ADD DUP2 DUP2 LT PUSH8 0xFFFFFFFFFFFFFFFF DUP3 GT OR ISZERO PUSH2 0xDC6 JUMPI PUSH2 0xDC5 PUSH2 0xD6F JUMP JUMPDEST JUMPDEST DUP1 PUSH1 0x40 MSTORE POP POP POP JUMP JUMPDEST PUSH1 0x0 PUSH2 0xDD9 PUSH2 0xC81 JUMP JUMPDEST SWAP1 POP PUSH2 0xDE5 DUP3 DUP3 PUSH2 0xD9E JUMP JUMPDEST SWAP2 SWAP1 POP JUMP JUMPDEST PUSH1 0x0 PUSH8 0xFFFFFFFFFFFFFFFF DUP3 GT ISZERO PUSH2 0xE05 JUMPI PUSH2 0xE04 PUSH2 0xD6F JUMP JUMPDEST JUMPDEST PUSH2 0xE0E DUP3 PUSH2 0xD5E JUMP JUMPDEST SWAP1 POP PUSH1 0x20 DUP2 ADD SWAP1 POP SWAP2 SWAP1 POP JUMP JUMPDEST DUP3 DUP2 DUP4 CALLDATACOPY PUSH1 0x0 DUP4 DUP4 ADD MSTORE POP POP POP JUMP JUMPDEST PUSH1 0x0 PUSH2 0xE3D PUSH2 0xE38 DUP5 PUSH2 0xDEA JUMP JUMPDEST PUSH2 0xDCF JUMP JUMPDEST SWAP1 POP DUP3 DUP2 MSTORE PUSH1 0x20 DUP2 ADD DUP5 DUP5 DUP5 ADD GT ISZERO PUSH2 0xE59 JUMPI PUSH2 0xE58 PUSH2 0xD59 JUMP JUMPDEST JUMPDEST PUSH2 0xE64 DUP5 DUP3 DUP6 PUSH2 0xE1B JUMP JUMPDEST POP SWAP4 SWAP3 POP POP POP JUMP JUMPDEST PUSH1 0x0 DUP3 PUSH1 0x1F DUP4 ADD SLT PUSH2 0xE81 JUMPI PUSH2 0xE80 PUSH2 0xD54 JUMP JUMPDEST JUMPDEST DUP2 CALLDATALOAD PUSH2 0xE91 DUP5 DUP3 PUSH1 0x20 DUP7 ADD PUSH2 0xE2A JUMP JUMPDEST SWAP2 POP POP SWAP3 SWAP2 POP POP JUMP JUMPDEST PUSH1 0x0 DUP1 PUSH1 0x40 DUP4 DUP6 SUB SLT ISZERO PUSH2 0xEB1 JUMPI PUSH2 0xEB0 PUSH2 0xC8B JUMP JUMPDEST JUMPDEST PUSH1 0x0 DUP4 ADD CALLDATALOAD PUSH8 0xFFFFFFFFFFFFFFFF DUP2 GT ISZERO PUSH2 0xECF JUMPI PUSH2 0xECE PUSH2 0xC90 JUMP JUMPDEST JUMPDEST PUSH2 0xEDB DUP6 DUP3 DUP7 ADD PUSH2 0xE6C JUMP JUMPDEST SWAP3 POP POP PUSH1 0x20 PUSH2 0xEEC DUP6 DUP3 DUP7 ADD PUSH2 0xCB6 JUMP JUMPDEST SWAP2 POP POP SWAP3 POP SWAP3 SWAP1 POP JUMP JUMPDEST PUSH1 0x0 DUP2 MLOAD SWAP1 POP SWAP2 SWAP1 POP JUMP JUMPDEST PUSH1 0x0 DUP3 DUP3 MSTORE PUSH1 0x20 DUP3 ADD SWAP1 POP SWAP3 SWAP2 POP POP JUMP JUMPDEST PUSH1 0x0 JUMPDEST DUP4 DUP2 LT ISZERO PUSH2 0xF30 JUMPI DUP1 DUP3 ADD MLOAD DUP2 DUP5 ADD MSTORE PUSH1 0x20 DUP2 ADD SWAP1 POP PUSH2 0xF15 JUMP JUMPDEST DUP4 DUP2 GT ISZERO PUSH2 0xF3F JUMPI PUSH1 0x0 DUP5 DUP5 ADD MSTORE JUMPDEST POP POP POP POP JUMP JUMPDEST PUSH1 0x0 PUSH2 0xF50 DUP3 PUSH2 0xEF6 JUMP JUMPDEST PUSH2 0xF5A DUP2 DUP6 PUSH2 0xF01 JUMP JUMPDEST SWAP4 POP PUSH2 0xF6A DUP2 DUP6 PUSH1 0x20 DUP7 ADD PUSH2 0xF12 JUMP JUMPDEST PUSH2 0xF73 DUP2 PUSH2 0xD5E JUMP JUMPDEST DUP5 ADD SWAP2 POP POP SWAP3 SWAP2 POP POP JUMP JUMPDEST PUSH2 0xF87 DUP2 PUSH2 0xC95 JUMP JUMPDEST DUP3 MSTORE POP POP JUMP JUMPDEST PUSH1 0x0 DUP2 ISZERO ISZERO SWAP1 POP SWAP2 SWAP1 POP JUMP JUMPDEST PUSH2 0xFA2 DUP2 PUSH2 0xF8D JUMP JUMPDEST DUP3 MSTORE POP POP JUMP JUMPDEST PUSH1 0x0 PUSH1 0x60 DUP3 ADD SWAP1 POP DUP2 DUP2 SUB PUSH1 0x0 DUP4 ADD MSTORE PUSH2 0xFC2 DUP2 DUP7 PUSH2 0xF45 JUMP JUMPDEST SWAP1 POP PUSH2 0xFD1 PUSH1 0x20 DUP4 ADD DUP6 PUSH2 0xF7E JUMP JUMPDEST PUSH2 0xFDE PUSH1 0x40 DUP4 ADD DUP5 PUSH2 0xF99 JUMP JUMPDEST SWAP5 SWAP4 POP POP POP POP JUMP JUMPDEST PUSH1 0x0 DUP1 PUSH1 0x0 PUSH1 0x60 DUP5 DUP7 SUB SLT ISZERO PUSH2 0xFFF JUMPI PUSH2 0xFFE PUSH2 0xC8B JUMP JUMPDEST JUMPDEST PUSH1 0x0 PUSH2 0x100D DUP7 DUP3 DUP8 ADD PUSH2 0xCB6 JUMP JUMPDEST SWAP4 POP POP PUSH1 0x20 PUSH2 0x101E DUP7 DUP3 DUP8 ADD PUSH2 0xCB6 JUMP JUMPDEST SWAP3 POP POP PUSH1 0x40 PUSH2 0x102F DUP7 DUP3 DUP8 ADD PUSH2 0xCB6 JUMP JUMPDEST SWAP2 POP POP SWAP3 POP SWAP3 POP SWAP3 JUMP JUMPDEST PUSH1 0x0 PUSH1 0x80 DUP3 ADD SWAP1 POP PUSH2 0x104E PUSH1 0x0 DUP4 ADD DUP8 PUSH2 0xF7E JUMP JUMPDEST PUSH2 0x105B PUSH1 0x20 DUP4 ADD DUP7 PUSH2 0xF99 JUMP JUMPDEST PUSH2 0x1068 PUSH1 0x40 DUP4 ADD DUP6 PUSH2 0xF7E JUMP JUMPDEST PUSH2 0x1075 PUSH1 0x60 DUP4 ADD DUP5 PUSH2 0xD2A JUMP JUMPDEST SWAP6 SWAP5 POP POP POP POP POP JUMP JUMPDEST PUSH32 0x4E487B7100000000000000000000000000000000000000000000000000000000 PUSH1 0x0 MSTORE PUSH1 0x32 PUSH1 0x4 MSTORE PUSH1 0x24 PUSH1 0x0 REVERT JUMPDEST PUSH32 0x4E487B7100000000000000000000000000000000000000000000000000000000 PUSH1 0x0 MSTORE PUSH1 0x11 PUSH1 0x4 MSTORE PUSH1 0x24 PUSH1 0x0 REVERT JUMPDEST PUSH1 0x0 PUSH2 0x10E7 DUP3 PUSH2 0xC95 JUMP JUMPDEST SWAP2 POP PUSH2 0x10F2 DUP4 PUSH2 0xC95 JUMP JUMPDEST SWAP3 POP DUP3 PUSH32 0xFFFFFFFFFFFFFFFFFFFFFFFFFFFFFFFFFFFFFFFFFFFFFFFFFFFFFFFFFFFFFFFF SUB DUP3 GT ISZERO PUSH2 0x1127 JUMPI PUSH2 0x1126 PUSH2 0x10AD JUMP JUMPDEST JUMPDEST DUP3 DUP3 ADD SWAP1 POP SWAP3 SWAP2 POP POP JUMP JUMPDEST PUSH32 0x4E487B7100000000000000000000000000000000000000000000000000000000 PUSH1 0x0 MSTORE PUSH1 0x22 PUSH1 0x4 MSTORE PUSH1 0x24 PUSH1 0x0 REVERT JUMPDEST PUSH1 0x0 PUSH1 0x2 DUP3 DIV SWAP1 POP PUSH1 0x1 DUP3 AND DUP1 PUSH2 0x1179 JUMPI PUSH1 0x7F DUP3 AND SWAP2 POP JUMPDEST PUSH1 0x20 DUP3 LT DUP2 EQ ISZERO PUSH2 0x118D JUMPI PUSH2 0x118C PUSH2 0x1132 JUMP JUMPDEST JUMPDEST POP SWAP2 SWAP1 POP JUMP JUMPDEST PUSH1 0x0 DUP2 SWAP1 POP SWAP2 SWAP1 POP JUMP JUMPDEST PUSH2 0x11AE PUSH2 0x11A9 DUP3 PUSH2 0xC95 JUMP JUMPDEST PUSH2 0x1193 JUMP JUMPDEST DUP3 MSTORE POP POP JUMP JUMPDEST PUSH1 0x0 DUP2 PUSH1 0x60 SHL SWAP1 POP SWAP2 SWAP1 POP JUMP JUMPDEST PUSH1 0x0 PUSH2 0x11CC DUP3 PUSH2 0x11B4 JUMP JUMPDEST SWAP1 POP SWAP2 SWAP1 POP JUMP JUMPDEST PUSH1 0x0 PUSH2 0x11DE DUP3 PUSH2 0x11C1 JUMP JUMPDEST SWAP1 POP SWAP2 SWAP1 POP JUMP JUMPDEST PUSH2 0x11F6 PUSH2 0x11F1 DUP3 PUSH2 0xD18 JUMP JUMPDEST PUSH2 0x11D3 JUMP JUMPDEST DUP3 MSTORE POP POP JUMP JUMPDEST PUSH1 0x0 PUSH2 0x1208 DUP3 DUP7 PUSH2 0x119D JUMP JUMPDEST PUSH1 0x20 DUP3 ADD SWAP2 POP PUSH2 0x1218 DUP3 DUP6 PUSH2 0x119D JUMP JUMPDEST PUSH1 0x20 DUP3 ADD SWAP2 POP PUSH2 0x1228 DUP3 DUP5 PUSH2 0x11E5 JUMP JUMPDEST PUSH1 0x14 DUP3 ADD SWAP2 POP DUP2 SWAP1 POP SWAP5 SWAP4 POP POP POP POP JUMP JUMPDEST PUSH32 0x4E487B7100000000000000000000000000000000000000000000000000000000 PUSH1 0x0 MSTORE PUSH1 0x12 PUSH1 0x4 MSTORE PUSH1 0x24 PUSH1 0x0 REVERT JUMPDEST PUSH1 0x0 PUSH2 0x1273 DUP3 PUSH2 0xC95 JUMP JUMPDEST SWAP2 POP PUSH2 0x127E DUP4 PUSH2 0xC95 JUMP JUMPDEST SWAP3 POP DUP3 PUSH2 0x128E JUMPI PUSH2 0x128D PUSH2 0x1239 JUMP JUMPDEST JUMPDEST DUP3 DUP3 MOD SWAP1 POP SWAP3 SWAP2 POP POP JUMP INVALID LOG2 PUSH5 0x6970667358 0x22 SLT KECCAK256 0xF9 0xAB SELFBALANCE KECCAK256 DUP3 CALL 0x4F PUSH6 0xCD28708843DB 0x5C 0xDA 0xAA 0xA9 0xC5 SWAP6 0xCA 0xDC MUL PUSH7 0x4ABC05681AA89 MSIZE PUSH5 0x736F6C6343 STOP ADDMOD MULMOD STOP CALLER "},"gasEstimates":{"creation":{"codeDepositCost":"963000","executionCost":"infinite","totalCost":"infinite"},"external":{"buyService(uint256)":"infinite","cancelRequestSeller(uint256)":"infinite","cancelServiceBuyer(uint256)":"infinite","createService(string,uint256)":"infinite","seller()":"2537","sellerApproval(uint256,uint256,uint256)":"infinite","serviceTypes(uint256)":"infinite","services(uint256)":"infinite"}},"methodIdentifiers":{"buyService(uint256)":"c594e5ec","cancelRequestSeller(uint256)":"03ff5c99","cancelServiceBuyer(uint256)":"dd36ff27","createService(string,uint256)":"1cf82bd2","seller()":"08551a53","sellerApproval(uint256,uint256,uint256)":"57514943","serviceTypes(uint256)":"4c3912e7","services(uint256)":"c22c4f43"}},"storageLayout":{"storage":[{"astId":96,"contract":"MarketPlace.sol:LabourMarket","label":"serviceTypes","offset":0,"slot":"0","type":"t_array(t_struct(Service)83_storage)dyn_storage"},{"astId":100,"contract":"MarketPlace.sol:LabourMarket","label":"services","offset":0,"slot":"1","type":"t_array(t_struct(ServiceRequest)92_storage)dyn_storage"},{"astId":102,"contract":"MarketPlace.sol:LabourMarket","label":"available","offset":0,"slot":"2","type":"t_bool"},{"astId":104,"contract":"MarketPlace.sol:LabourMarket","label":"penalty","offset":0,"slot":"3","type":"t_uint256"},{"astId":106,"contract":"MarketPlace.sol:LabourMarket","label":"seller","offset":0,"slot":"4","type":"t_address"},{"astId":110,"contract":"MarketPlace.sol:LabourMarket","label":"serviceBought","offset":0,"slot":"5","type":"t_mapping(t_address,t_uint256)"},{"astId":114,"contract":"MarketPlace.sol:LabourMarket","label":"sellerOTP","offset":0,"slot":"6","type":"t_mapping(t_uint256,t_uint256)"},{"astId":118,"contract":"MarketPlace.sol:LabourMarket","label":"buyerOTP","offset":0,"slot":"7","type":"t_mapping(t_uint256,t_uint256)"}],"types":{"t_address":{"encoding":"inplace","label":"address","numberOfBytes":"20"},"t_array(t_struct(Service)83_storage)dyn_storage":{"base":"t_struct(Service)83_storage","encoding":"dynamic_array","label":"struct LabourMarket.Service[]","numberOfBytes":"32"},"t_array(t_struct(ServiceRequest)92_storage)dyn_storage":{"base":"t_struct(ServiceRequest)92_storage","encoding":"dynamic_array","label":"struct LabourMarket.ServiceRequest[]","numberOfBytes":"32"},"t_bool":{"encoding":"inplace","label":"bool","numberOfBytes":"1"},"t_mapping(t_address,t_uint256)":{"encoding":"mapping","key":"t_address","label":"mapping(address => uint256)","numberOfBytes":"32","value":"t_uint256"},"t_mapping(t_uint256,t_uint256)":{"encoding":"mapping","key":"t_uint256","label":"mapping(uint256 => uint256)","numberOfBytes":"32","value":"t_uint256"},"t_string_storage":{"encoding":"bytes","label":"string","numberOfBytes":"32"},"t_struct(Service)83_storage":{"encoding":"inplace","label":"struct LabourMarket.Service","members":[{"astId":78,"contract":"MarketPlace.sol:LabourMarket","label":"description","offset":0,"slot":"0","type":"t_string_storage"},{"astId":80,"contract":"MarketPlace.sol:LabourMarket","label":"value","offset":0,"slot":"1","type":"t_uint256"},{"astId":82,"contract":"MarketPlace.sol:LabourMarket","label":"availability","offset":0,"slot":"2","type":"t_bool"}],"numberOfBytes":"96"},"t_struct(ServiceRequest)92_storage":{"encoding":"inplace","label":"struct LabourMarket.ServiceRequest","members":[{"astId":85,"contract":"MarketPlace.sol:LabourMarket","label":"serviceType","offset":0,"slot":"0","type":"t_uint256"},{"astId":87,"contract":"MarketPlace.sol:LabourMarket","label":"complete","offset":0,"slot":"1","type":"t_bool"},{"astId":89,"contract":"MarketPlace.sol:LabourMarket","label":"requestTime","offset":0,"slot":"2","type":"t_uint256"},{"astId":91,"contract":"MarketPlace.sol:LabourMarket","label":"buyer","offset":0,"slot":"3","type":"t_address"}],"numberOfBytes":"128"},"t_uint256":{"encoding":"inplace","label":"uint256","numberOfBytes":"32"}}},"userdoc":{"kind":"user","methods":{},"version":1}}